{
	"data": {
		"bytecode": {
			"linkReferences": {},
			"object": "60806040526009805460ff191690556000600a5562503340600e553480156200002757600080fd5b506040516200374638038062003746833981810160405260608110156200004d57600080fd5b50805160208201516040909201519091906000620000736001600160e01b03620000ea16565b600080546001600160a01b0319166001600160a01b0383169081178255604051929350917f8be0079c531659141344cd1fd0a4f28419497f9722a3daafe3b4186f6b6457e0908290a350600380546001600160a01b0319166001600160a01b039490941693909317909255600455600b55620000ee565b3390565b61364880620000fe6000396000f3fe608060405234801561001057600080fd5b50600436106102275760003560e01c8063715018a611610130578063b337d32c116100b8578063e2bbb1581161007c578063e2bbb158146105c6578063e4c75c27146105e9578063e6ab8d481461062e578063e715e23414610636578063f2fde38b1461066457610227565b8063b337d32c14610559578063b5ec5c991461057c578063cb4502c414610599578063d431b1ac146105b6578063dfc7b95b146105be57610227565b80638fa39a88116100ff5780638fa39a881461049657806393f1a40b1461049e578063a9fb763c146104e8578063aaae43cc14610505578063b0c7044b1461053357610227565b8063715018a614610443578063791ba3741461044b5780637fe6f5ac146104685780638da5cb5b1461048e57610227565b806351eb05a6116101b35780635a3e251f116101825780635a3e251f146103f85780635c975abb14610400578063630b5ba11461040857806364482f7914610410578063705bbc011461043b57610227565b806351eb05a61461037c5780635312ea8e146103995780635672ab55146103b657806356c5867d146103be57610227565b80631b15b579116101fa5780631b15b579146102c55780631eaaa045146102e25780634315490714610318578063441a3e701461035157806348cd4cb11461037457610227565b8063081e3eda1461022c578063135f8aa7146102465780631526fe271461026357806317caf6f1146102bd575b600080fd5b61023461068a565b60408051918252519081900360200190f35b6102346004803603602081101561025c57600080fd5b5035610690565b6102806004803603602081101561027957600080fd5b50356106f7565b604080516001600160a01b0390971687526020870195909552858501939093526060850191909152608084015260a0830152519081900360c00190f35b610234610744565b610234600480360360208110156102db57600080fd5b503561074a565b610316600480360360608110156102f857600080fd5b508035906001600160a01b0360208201351690604001351515610818565b005b6103356004803603602081101561032e57600080fd5b5035610a86565b604080516001600160a01b039092168252519081900360200190f35b6103166004803603604081101561036757600080fd5b5080359060200135610aef565b610234610b9e565b6103166004803603602081101561039257600080fd5b5035610ba4565b610316600480360360208110156103af57600080fd5b5035610dad565b610335610e59565b6103e4600480360360208110156103d457600080fd5b50356001600160a01b0316610e68565b604080519115158252519081900360200190f35b610234610faf565b6103e4610fb5565b610316610fbe565b6103166004803603606081101561042657600080fd5b50803590602081013590604001351515610fdd565b6103356110b2565b6103166110c1565b6103166004803603602081101561046157600080fd5b503561116d565b6103e46004803603602081101561047e57600080fd5b50356001600160a01b03166111dc565b6103356111e9565b6102346111f8565b6104ca600480360360408110156104b457600080fd5b50803590602001356001600160a01b03166111fe565b60408051938452602084019290925282820152519081900360600190f35b610234600480360360208110156104fe57600080fd5b503561122a565b6103166004803603604081101561051b57600080fd5b506001600160a01b0381358116916020013516611257565b6102346004803603602081101561054957600080fd5b50356001600160a01b0316611461565b6103166004803603604081101561056f57600080fd5b5080359060200135611473565b6103166004803603602081101561059257600080fd5b503561153b565b610234600480360360208110156105af57600080fd5b50356115a2565b6103166115b4565b61033561162a565b610316600480360360408110156105dc57600080fd5b5080359060200135611639565b610615600480360360408110156105ff57600080fd5b50803590602001356001600160a01b03166116de565b6040805192835260208301919091528051918290030190f35b610234611758565b6103166004803603604081101561064c57600080fd5b506001600160a01b0381358116916020013516611769565b6103166004803603602081101561067a57600080fd5b50356001600160a01b0316611860565b60055490565b6000600e54600014156106a5575060006106f2565b600b548211156106ee576106e7600e546106db60016106cf600b548761196290919063ffffffff16565b9063ffffffff61196216565b9063ffffffff6119bf16565b90506106f2565b5060005b919050565b6005818154811061070457fe5b60009182526020909120600690910201805460018201546002830154600384015460048501546005909501546001600160a01b0390941695509193909286565b600a5481565b6000808061075784610690565b9050600061076443610690565b90505b808210156107e357600b54600e5460019093019260009161079f9161079390869063ffffffff611a2616565b9063ffffffff611a7f16565b90506107d96107cc6107b08361122a565b6107c0848a63ffffffff61196216565b9063ffffffff611a2616565b859063ffffffff611a7f16565b9095509250610767565b61080f6108026107f24361122a565b6107c0438963ffffffff61196216565b849063ffffffff611a7f16565b95945050505050565b610820611ad9565b6001600160a01b03166108316111e9565b6001600160a01b03161461087a576040805162461bcd60e51b815260206004820181905260248201526000805160206135c9833981519152604482015290519081900360640190fd5b6001600160a01b0382166108d5576040805162461bcd60e51b815260206004820152601c60248201527f5f6c70546f6b656e20697320746865207a65726f206164647265737300000000604482015290519081900360640190fd5b80156108e3576108e3610fbe565b6000600b5443116108f657600b546108f8565b435b600a5490915061090e908563ffffffff611a7f16565b600a556040805160c0810182526001600160a01b038581168252602082018781529282018481526000606084018181526080850182815260a0860183815260058054600180820183559190955296517f036b6384b5eca791c62761152d0c79bb0604c104a5fb6f4eb0703f3154bb3db0600690950294850180546001600160a01b031916919097161790955595517f036b6384b5eca791c62761152d0c79bb0604c104a5fb6f4eb0703f3154bb3db183015591517f036b6384b5eca791c62761152d0c79bb0604c104a5fb6f4eb0703f3154bb3db282015590517f036b6384b5eca791c62761152d0c79bb0604c104a5fb6f4eb0703f3154bb3db382015592517f036b6384b5eca791c62761152d0c79bb0604c104a5fb6f4eb0703f3154bb3db4840155517f036b6384b5eca791c62761152d0c79bb0604c104a5fb6f4eb0703f3154bb3db590920191909155610a6361068a565b6001600160a01b0390941660009081526008602052604090209303909255505050565b60006001610a92611758565b03821115610ade576040805162461bcd60e51b815260206004820152601460248201527306e6f742066696e642074686973206d756c744c560641b604482015290519081900360640190fd5b610ae9600183611add565b92915050565b60095460ff1615610b43576040805162461bcd60e51b8152602060048201526019602482015278135a5b9a5b99c81a185cc81899595b881cdd5cdc195b991959603a1b604482015290519081900360640190fd5b600060058381548110610b5257fe5b600091825260209091206006909102018054909150610b79906001600160a01b03166111dc565b15610b8e57610b89838333611ae9565b610b99565b610b99838333611eab565b505050565b600b5481565b600060058281548110610bb357fe5b9060005260206000209060060201905080600201544311610bd45750610daa565b8054600090610beb906001600160a01b03166111dc565b15610c11576005820154610c06575043600290910155610daa565b506005810154610c9b565b8154604080516370a0823160e01b815230600482015290516001600160a01b03909216916370a0823191602480820192602092909190829003018186803b158015610c5b57600080fd5b505afa158015610c6f573d6000803e3d6000fd5b505050506040513d6020811015610c8557600080fd5b5051905080610c9b575043600290910155610daa565b6000610caa836002015461074a565b905060008111610cbc57505050610daa565b6000610cdb600a546106db866001015485611a2690919063ffffffff16565b600354604080516340c10f1960e01b81523060048201526024810184905290519293506000926001600160a01b03909216916340c10f199160448082019260209290919082900301818787803b158015610d3457600080fd5b505af1158015610d48573d6000803e3d6000fd5b505050506040513d6020811015610d5e57600080fd5b505190508015610d9b57610d95610d84856106db8564e8d4a5100063ffffffff611a2616565b60038701549063ffffffff611a7f16565b60038601555b43856002018190555050505050505b50565b60095460ff1615610e01576040805162461bcd60e51b8152602060048201526019602482015278135a5b9a5b99c81a185cc81899595b881cdd5cdc195b991959603a1b604482015290519081900360640190fd5b600060058281548110610e1057fe5b600091825260209091206006909102018054909150610e37906001600160a01b03166111dc565b15610e4b57610e468233612042565b610e55565b610e55823361229b565b5050565b6003546001600160a01b031681565b6000610e72611ad9565b6001600160a01b0316610e836111e9565b6001600160a01b031614610ecc576040805162461bcd60e51b815260206004820181905260248201526000805160206135c9833981519152604482015290519081900360640190fd5b6001600160a01b038216610f20576040805162461bcd60e51b81526020600482015260166024820152754c5020697320746865207a65726f206164647265737360501b604482015290519081900360640190fd5b600c546040805163095ea7b360e01b81526001600160a01b039283166004820152600019602482015290519184169163095ea7b3916044808201926020929091908290030181600087803b158015610f7757600080fd5b505af1158015610f8b573d6000803e3d6000fd5b505050506040513d6020811015610fa157600080fd5b50610ae9905060018361235d565b600e5481565b60095460ff1681565b60055460005b81811015610e5557610fd581610ba4565b600101610fc4565b610fe5611ad9565b6001600160a01b0316610ff66111e9565b6001600160a01b03161461103f576040805162461bcd60e51b815260206004820181905260248201526000805160206135c9833981519152604482015290519081900360640190fd5b801561104d5761104d610fbe565b611084826107936005868154811061106157fe5b906000526020600020906006020160010154600a5461196290919063ffffffff16565b600a81905550816005848154811061109857fe5b906000526020600020906006020160010181905550505050565b600d546001600160a01b031681565b6110c9611ad9565b6001600160a01b03166110da6111e9565b6001600160a01b031614611123576040805162461bcd60e51b815260206004820181905260248201526000805160206135c9833981519152604482015290519081900360640190fd5b600080546040516001600160a01b03909116907f8be0079c531659141344cd1fd0a4f28419497f9722a3daafe3b4186f6b6457e0908390a3600080546001600160a01b0319169055565b611175611ad9565b6001600160a01b03166111866111e9565b6001600160a01b0316146111cf576040805162461bcd60e51b815260206004820181905260248201526000805160206135c9833981519152604482015290519081900360640190fd5b6111d7610fbe565b600455565b6000610ae9600183612372565b6000546001600160a01b031690565b60045481565b600660209081526000928352604080842090915290825290208054600182015460029092015490919083565b60008061123683610690565b90506112508160020a6004546119bf90919063ffffffff16565b9392505050565b61125f611ad9565b6001600160a01b03166112706111e9565b6001600160a01b0316146112b9576040805162461bcd60e51b815260206004820181905260248201526000805160206135c9833981519152604482015290519081900360640190fd5b6001600160a01b038216158015906112d957506001600160a01b03811615155b611320576040805162461bcd60e51b8152602060048201526013602482015272697320746865207a65726f206164647265737360681b604482015290519081900360640190fd5b60095460ff161515600114611373576040805162461bcd60e51b815260206004820152601460248201527327379036b4b734b7339039bab9b832b739b4b7b760611b604482015290519081900360640190fd5b600d80546001600160a01b038085166001600160a01b031992831617909255600c80549284169290911691909117905560006113ad611758565b90505b8015610b995760006113c460016000611add565b6001600160a01b03808216600090815260086020908152604080832054600c548185526007909352818420548251632989754760e11b815260048101919091529151959650949190931692635312ea8e92602480830193919282900301818387803b15801561143257600080fd5b505af1158015611446573d6000803e3d6000fd5b50505050611455600183612387565b505050600019016113b0565b60086020526000908152604090205481565b61147b611ad9565b6001600160a01b031661148c6111e9565b6001600160a01b0316146114d5576040805162461bcd60e51b815260206004820181905260248201526000805160206135c9833981519152604482015290519081900360640190fd5b60016114df61068a565b03821115611529576040805162461bcd60e51b81526020600482015260126024820152711b9bdd08199a5b99081d1a1a5cc81c1bdbdb60721b604482015290519081900360640190fd5b60009182526007602052604090912055565b611543611ad9565b6001600160a01b03166115546111e9565b6001600160a01b03161461159d576040805162461bcd60e51b815260206004820181905260248201526000805160206135c9833981519152604482015290519081900360640190fd5b600e55565b60076020526000908152604090205481565b6115bc611ad9565b6001600160a01b03166115cd6111e9565b6001600160a01b031614611616576040805162461bcd60e51b815260206004820181905260248201526000805160206135c9833981519152604482015290519081900360640190fd5b6009805460ff19811660ff90911615179055565b600c546001600160a01b031681565b60095460ff161561168d576040805162461bcd60e51b8152602060048201526019602482015278135a5b9a5b99c81a185cc81899595b881cdd5cdc195b991959603a1b604482015290519081900360640190fd5b60006005838154811061169c57fe5b6000918252602090912060069091020180549091506116c3906001600160a01b03166111dc565b156116d357610b8983833361239c565b610b9983833361295e565b6000806000600585815481106116f057fe5b600091825260209091206006909102018054909150611717906001600160a01b03166111dc565b15611737576000806117298787612aaf565b909550935061175192505050565b60006117438686612cf2565b935060009250611751915050565b9250929050565b60006117646001612e8e565b905090565b611771611ad9565b6001600160a01b03166117826111e9565b6001600160a01b0316146117cb576040805162461bcd60e51b815260206004820181905260248201526000805160206135c9833981519152604482015290519081900360640190fd5b6001600160a01b038216158015906117eb57506001600160a01b03811615155b611832576040805162461bcd60e51b8152602060048201526013602482015272697320746865207a65726f206164647265737360681b604482015290519081900360640190fd5b600d80546001600160a01b039384166001600160a01b031991821617909155600c8054929093169116179055565b611868611ad9565b6001600160a01b03166118796111e9565b6001600160a01b0316146118c2576040805162461bcd60e51b815260206004820181905260248201526000805160206135c9833981519152604482015290519081900360640190fd5b6001600160a01b0381166119075760405162461bcd60e51b815260040180806020018281038252602681526020018061355c6026913960400191505060405180910390fd5b600080546040516001600160a01b03808516939216917f8be0079c531659141344cd1fd0a4f28419497f9722a3daafe3b4186f6b6457e091a3600080546001600160a01b0319166001600160a01b0392909216919091179055565b6000828211156119b9576040805162461bcd60e51b815260206004820152601e60248201527f536166654d6174683a207375627472616374696f6e206f766572666c6f770000604482015290519081900360640190fd5b50900390565b6000808211611a15576040805162461bcd60e51b815260206004820152601a60248201527f536166654d6174683a206469766973696f6e206279207a65726f000000000000604482015290519081900360640190fd5b818381611a1e57fe5b049392505050565b600082611a3557506000610ae9565b82820282848281611a4257fe5b04146112505760405162461bcd60e51b81526004018080602001828103825260218152602001806135a86021913960400191505060405180910390fd5b600082820183811015611250576040805162461bcd60e51b815260206004820152601b60248201527f536166654d6174683a206164646974696f6e206f766572666c6f770000000000604482015290519081900360640190fd5b3390565b60006112508383612e99565b600060058481548110611af857fe5b60009182526020808320878452600680835260408086206001600160a01b0389168752909352919093208054929091029092019250841115611b81576040805162461bcd60e51b815260206004820152601d60248201527f77697468647261774d6478416e64546f6b656e3a206e6f7420676f6f64000000604482015290519081900360640190fd5b611b8a85610ba4565b6000611bb882600101546106cf64e8d4a510006106db87600301548760000154611a2690919063ffffffff16565b90508015611bca57611bca8482612efd565b8415611e1757600d54604080516370a0823160e01b815230600482015290516000926001600160a01b0316916370a08231916024808301926020929190829003018186803b158015611c1b57600080fd5b505afa158015611c2f573d6000803e3d6000fd5b505050506040513d6020811015611c4557600080fd5b5051600c54600089815260076020526040808220548151630441a3e760e41b81526004810191909152602481018b905290519394506001600160a01b039092169263441a3e7092604480820193929182900301818387803b158015611ca957600080fd5b505af1158015611cbd573d6000803e3d6000fd5b5050600d54604080516370a0823160e01b81523060048201529051600094506001600160a01b0390921692506370a08231916024808301926020929190829003018186803b158015611d0e57600080fd5b505afa158015611d22573d6000803e3d6000fd5b505050506040513d6020811015611d3857600080fd5b50516005860154909150611d7490611d63906106db64e8d4a510006107c0868863ffffffff61196216565b60048701549063ffffffff611a7f16565b6004860181905560028501548554600092611da492916106cf9164e8d4a51000916106db9163ffffffff611a2616565b90508015611dc957600d54611dc9906001600160a01b0316888363ffffffff61308d16565b8454611ddb908963ffffffff61196216565b85556005860154611df2908963ffffffff61196216565b60058701558554611e13906001600160a01b0316888a63ffffffff61308d16565b5050505b60038301548254611e389164e8d4a51000916106db9163ffffffff611a2616565b600183015560048301548254611e5e9164e8d4a51000916106db9163ffffffff611a2616565b600283015560408051868152905187916001600160a01b038716917ff279e6a1f5e320cca91135676d9cb6e44ca8a08c0b88342bcdb1144f6511b5689181900360200190a3505050505050565b600060058481548110611eba57fe5b60009182526020808320878452600680835260408086206001600160a01b0389168752909352919093208054929091029092019250841115611f3b576040805162461bcd60e51b81526020600482015260156024820152741dda5d1a191c985dd3591e0e881b9bdd0819dbdbd9605a1b604482015290519081900360640190fd5b611f4485610ba4565b6000611f7282600101546106cf64e8d4a510006106db87600301548760000154611a2690919063ffffffff16565b90508015611f8457611f848482612efd565b8415611fd4578154611f9c908663ffffffff61196216565b82556005830154611fb3908663ffffffff61196216565b60058401558254611fd4906001600160a01b0316858763ffffffff61308d16565b60038301548254611ff59164e8d4a51000916106db9163ffffffff611a2616565b600183015560408051868152905187916001600160a01b038716917ff279e6a1f5e320cca91135676d9cb6e44ca8a08c0b88342bcdb1144f6511b5689181900360200190a3505050505050565b60006005838154811061205157fe5b60009182526020808320868452600680835260408086206001600160a01b03808a1688529085528187208054600d5484516370a0823160e01b8152306004820152945195909802909501985096939593949316926370a0823192602480840193829003018186803b1580156120c557600080fd5b505afa1580156120d9573d6000803e3d6000fd5b505050506040513d60208110156120ef57600080fd5b5051600c54600088815260076020526040808220548151630441a3e760e41b815260048101919091526024810187905290519394506001600160a01b039092169263441a3e7092604480820193929182900301818387803b15801561215357600080fd5b505af1158015612167573d6000803e3d6000fd5b5050600d54604080516370a0823160e01b81523060048201529051600094506001600160a01b0390921692506370a08231916024808301926020929190829003018186803b1580156121b857600080fd5b505afa1580156121cc573d6000803e3d6000fd5b505050506040513d60208110156121e257600080fd5b5051600586015490915061220d90611d63906106db64e8d4a510006107c0868863ffffffff61196216565b6004860155600080855560018501558454612238906001600160a01b0316878563ffffffff61308d16565b600585015461224d908463ffffffff61196216565b600586015560408051848152905188916001600160a01b038916917fbb757047c2b5f3974fe26b7c10f732e7bce710b0952a71082702781e62ae05959181900360200190a350505050505050565b6000600583815481106122aa57fe5b60009182526020808320868452600680835260408086206001600160a01b03808a168852945285208054868255600182019690965593020180549094509192916122fc9116858363ffffffff61308d16565b6005830154612311908263ffffffff61196216565b600584015560408051828152905186916001600160a01b038716917fbb757047c2b5f3974fe26b7c10f732e7bce710b0952a71082702781e62ae05959181900360200190a35050505050565b6000611250836001600160a01b0384166130df565b6000611250836001600160a01b038416613129565b6000611250836001600160a01b038416613141565b6000600584815481106123ab57fe5b60009182526020808320878452600680835260408086206001600160a01b038916875290935291909320910290910191506123e585610ba4565b80541561261957600061241a82600101546106cf64e8d4a510006106db87600301548760000154611a2690919063ffffffff16565b9050801561242c5761242c8482612efd565b600d54604080516370a0823160e01b815230600482015290516000926001600160a01b0316916370a08231916024808301926020929190829003018186803b15801561247757600080fd5b505afa15801561248b573d6000803e3d6000fd5b505050506040513d60208110156124a157600080fd5b5051600c54600089815260076020526040808220548151631c57762b60e31b815260048101919091526024810183905290519394506001600160a01b039092169263e2bbb15892604480820193929182900301818387803b15801561250557600080fd5b505af1158015612519573d6000803e3d6000fd5b5050600d54604080516370a0823160e01b81523060048201529051600094506001600160a01b0390921692506370a08231916024808301926020929190829003018186803b15801561256a57600080fd5b505afa15801561257e573d6000803e3d6000fd5b505050506040513d602081101561259457600080fd5b505160058601549091506125bf90611d63906106db64e8d4a510006107c0868863ffffffff61196216565b60048601819055600285015485546000926125ef92916106cf9164e8d4a51000916106db9163ffffffff611a2616565b9050801561261457600d54612614906001600160a01b0316888363ffffffff61308d16565b505050505b83156128cb57815461263c906001600160a01b031684308763ffffffff61320716565b60058201546126f157600c54600086815260076020526040808220548151631c57762b60e31b815260048101919091526024810188905290516001600160a01b039093169263e2bbb1589260448084019391929182900301818387803b1580156126a557600080fd5b505af11580156126b9573d6000803e3d6000fd5b505082546126d0925090508563ffffffff611a7f16565b815560058201546126e7908563ffffffff611a7f16565b60058301556128cb565b600d54604080516370a0823160e01b815230600482015290516000926001600160a01b0316916370a08231916024808301926020929190829003018186803b15801561273c57600080fd5b505afa158015612750573d6000803e3d6000fd5b505050506040513d602081101561276657600080fd5b5051600c54600088815260076020526040808220548151631c57762b60e31b81526004810191909152602481018a905290519394506001600160a01b039092169263e2bbb15892604480820193929182900301818387803b1580156127ca57600080fd5b505af11580156127de573d6000803e3d6000fd5b5050600d54604080516370a0823160e01b81523060048201529051600094506001600160a01b0390921692506370a08231916024808301926020929190829003018186803b15801561282f57600080fd5b505afa158015612843573d6000803e3d6000fd5b505050506040513d602081101561285957600080fd5b5051600585015490915061289590612884906106db64e8d4a510006107c0868863ffffffff61196216565b60048601549063ffffffff611a7f16565b600485015582546128ac908763ffffffff611a7f16565b835560058401546128c3908763ffffffff611a7f16565b600585015550505b600382015481546128ec9164e8d4a51000916106db9163ffffffff611a2616565b6001820155600482015481546129129164e8d4a51000916106db9163ffffffff611a2616565b600282015560408051858152905186916001600160a01b038616917f90890809c654f11d6e72a28fa60149770a0d11ec6c92319d6ceb2bb0a4ea1a159181900360200190a35050505050565b60006005848154811061296d57fe5b60009182526020808320878452600680835260408086206001600160a01b038916875290935291909320910290910191506129a785610ba4565b8054156129f05760006129dc82600101546106cf64e8d4a510006106db87600301548760000154611a2690919063ffffffff16565b905080156129ee576129ee8482612efd565b505b8315612a42578154612a13906001600160a01b031684308763ffffffff61320716565b8054612a25908563ffffffff611a7f16565b81556005820154612a3c908563ffffffff611a7f16565b60058301555b60038201548154612a639164e8d4a51000916106db9163ffffffff611a2616565b600182015560408051858152905186916001600160a01b038616917f90890809c654f11d6e72a28fa60149770a0d11ec6c92319d6ceb2bb0a4ea1a159181900360200190a35050505050565b600080600060058581548110612ac157fe5b60009182526020808320888452600680835260408086206001600160a01b038b168752909352919093209102909101600381015460048201548354929450909115612ce257600c54600089815260076020908152604080832054815163e4c75c2760e01b81526004810191909152306024820152905192936001600160a01b03169263e4c75c2792604480840193919291829003018186803b158015612b6657600080fd5b505afa158015612b7a573d6000803e3d6000fd5b505050506040513d6020811015612b9057600080fd5b50516005860154909150612bc490612bb7906106db8464e8d4a5100063ffffffff611a2616565b839063ffffffff611a7f16565b91506000612bf085600201546106cf64e8d4a510006106db878a60000154611a2690919063ffffffff16565b90508560020154431115612c9c576000612c0d876002015461074a565b90506000612c2e600a546106db8a6001015485611a2690919063ffffffff16565b9050612c60612c5389600501546106db64e8d4a5100085611a2690919063ffffffff16565b879063ffffffff611a7f16565b9550612c8a87600101546106cf64e8d4a510006106db8a8c60000154611a2690919063ffffffff16565b83995099505050505050505050611751565b8560020154431415612cdf57612cd085600101546106cf64e8d4a510006106db888a60000154611a2690919063ffffffff16565b97509550611751945050505050565b50505b5060009788975095505050505050565b60008060058481548110612d0257fe5b60009182526020808320878452600680835260408086206001600160a01b03808b16885290855281872060039390960290930191820154825482516370a0823160e01b815230600482015292519398509596909590949316926370a0823192602480840193829003018186803b158015612d7b57600080fd5b505afa158015612d8f573d6000803e3d6000fd5b505050506040513d6020811015612da557600080fd5b5051835490915015612e81578360020154431115612e42576000612dcc856002015461074a565b90506000612ded600a546106db886001015485611a2690919063ffffffff16565b9050612e0b6107cc846106db8464e8d4a5100063ffffffff611a2616565b9350612e3585600101546106cf64e8d4a510006106db888a60000154611a2690919063ffffffff16565b9650505050505050610ae9565b8360020154431415612e8157612e7683600101546106cf64e8d4a510006106db868860000154611a2690919063ffffffff16565b945050505050610ae9565b5060009695505050505050565b6000610ae982613267565b81546000908210612edb5760405162461bcd60e51b815260040180806020018281038252602281526020018061353a6022913960400191505060405180910390fd5b826000018281548110612eea57fe5b9060005260206000200154905092915050565b600354604080516370a0823160e01b815230600482015290516000926001600160a01b0316916370a08231916024808301926020929190829003018186803b158015612f4857600080fd5b505afa158015612f5c573d6000803e3d6000fd5b505050506040513d6020811015612f7257600080fd5b5051905080821115613006576003546040805163a9059cbb60e01b81526001600160a01b038681166004830152602482018590529151919092169163a9059cbb9160448083019260209291908290030181600087803b158015612fd457600080fd5b505af1158015612fe8573d6000803e3d6000fd5b505050506040513d6020811015612ffe57600080fd5b50610b999050565b6003546040805163a9059cbb60e01b81526001600160a01b038681166004830152602482018690529151919092169163a9059cbb9160448083019260209291908290030181600087803b15801561305c57600080fd5b505af1158015613070573d6000803e3d6000fd5b505050506040513d602081101561308657600080fd5b5050505050565b604080516001600160a01b038416602482015260448082018490528251808303909101815260649091019091526020810180516001600160e01b031663a9059cbb60e01b179052610b9990849061326b565b60006130eb8383613129565b61312157508154600181810184556000848152602080822090930184905584548482528286019093526040902091909155610ae9565b506000610ae9565b60009081526001919091016020526040902054151590565b600081815260018301602052604081205480156131fd578354600019808301919081019060009087908390811061317457fe5b906000526020600020015490508087600001848154811061319157fe5b6000918252602080832090910192909255828152600189810190925260409020908401905586548790806131c157fe5b60019003818190600052602060002001600090559055866001016000878152602001908152602001600020600090556001945050505050610ae9565b6000915050610ae9565b604080516001600160a01b0380861660248301528416604482015260648082018490528251808303909101815260849091019091526020810180516001600160e01b03166323b872dd60e01b17905261326190859061326b565b50505050565b5490565b60606132c0826040518060400160405280602081526020017f5361666545524332303a206c6f772d6c6576656c2063616c6c206661696c6564815250856001600160a01b031661331c9092919063ffffffff16565b805190915015610b99578080602001905160208110156132df57600080fd5b5051610b995760405162461bcd60e51b815260040180806020018281038252602a8152602001806135e9602a913960400191505060405180910390fd5b606061332b8484600085613333565b949350505050565b6060824710156133745760405162461bcd60e51b81526004018080602001828103825260268152602001806135826026913960400191505060405180910390fd5b61337d8561348f565b6133ce576040805162461bcd60e51b815260206004820152601d60248201527f416464726573733a2063616c6c20746f206e6f6e2d636f6e7472616374000000604482015290519081900360640190fd5b60006060866001600160a01b031685876040518082805190602001908083835b6020831061340d5780518252601f1990920191602091820191016133ee565b6001836020036101000a03801982511681845116808217855250505050505090500191505060006040518083038185875af1925050503d806000811461346f576040519150601f19603f3d011682016040523d82523d6000602084013e613474565b606091505b5091509150613484828286613495565b979650505050505050565b3b151590565b606083156134a4575081611250565b8251156134b45782518084602001fd5b8160405162461bcd60e51b81526004018080602001828103825283818151815260200191508051906020019080838360005b838110156134fe5781810151838201526020016134e6565b50505050905090810190601f16801561352b5780820380516001836020036101000a031916815260200191505b509250505060405180910390fdfe456e756d657261626c655365743a20696e646578206f7574206f6620626f756e64734f776e61626c653a206e6577206f776e657220697320746865207a65726f2061646472657373416464726573733a20696e73756666696369656e742062616c616e636520666f722063616c6c536166654d6174683a206d756c7469706c69636174696f6e206f766572666c6f774f776e61626c653a2063616c6c6572206973206e6f7420746865206f776e65725361666545524332303a204552433230206f7065726174696f6e20646964206e6f742073756363656564a26469706673582212208ca37b2ebef68032344f07d9ee824b6e0e396dca48088e85a16dfbe6acae74b764736f6c63430006060033",
			"opcodes": "PUSH1 0x80 PUSH1 0x40 MSTORE PUSH1 0x9 DUP1 SLOAD PUSH1 0xFF NOT AND SWAP1 SSTORE PUSH1 0x0 PUSH1 0xA SSTORE PUSH3 0x503340 PUSH1 0xE SSTORE CALLVALUE DUP1 ISZERO PUSH3 0x27 JUMPI PUSH1 0x0 DUP1 REVERT JUMPDEST POP PUSH1 0x40 MLOAD PUSH3 0x3746 CODESIZE SUB DUP1 PUSH3 0x3746 DUP4 CODECOPY DUP2 DUP2 ADD PUSH1 0x40 MSTORE PUSH1 0x60 DUP2 LT ISZERO PUSH3 0x4D JUMPI PUSH1 0x0 DUP1 REVERT JUMPDEST POP DUP1 MLOAD PUSH1 0x20 DUP3 ADD MLOAD PUSH1 0x40 SWAP1 SWAP3 ADD MLOAD SWAP1 SWAP2 SWAP1 PUSH1 0x0 PUSH3 0x73 PUSH1 0x1 PUSH1 0x1 PUSH1 0xE0 SHL SUB PUSH3 0xEA AND JUMP JUMPDEST PUSH1 0x0 DUP1 SLOAD PUSH1 0x1 PUSH1 0x1 PUSH1 0xA0 SHL SUB NOT AND PUSH1 0x1 PUSH1 0x1 PUSH1 0xA0 SHL SUB DUP4 AND SWAP1 DUP2 OR DUP3 SSTORE PUSH1 0x40 MLOAD SWAP3 SWAP4 POP SWAP2 PUSH32 0x8BE0079C531659141344CD1FD0A4F28419497F9722A3DAAFE3B4186F6B6457E0 SWAP1 DUP3 SWAP1 LOG3 POP PUSH1 0x3 DUP1 SLOAD PUSH1 0x1 PUSH1 0x1 PUSH1 0xA0 SHL SUB NOT AND PUSH1 0x1 PUSH1 0x1 PUSH1 0xA0 SHL SUB SWAP5 SWAP1 SWAP5 AND SWAP4 SWAP1 SWAP4 OR SWAP1 SWAP3 SSTORE PUSH1 0x4 SSTORE PUSH1 0xB SSTORE PUSH3 0xEE JUMP JUMPDEST CALLER SWAP1 JUMP JUMPDEST PUSH2 0x3648 DUP1 PUSH3 0xFE PUSH1 0x0 CODECOPY PUSH1 0x0 RETURN INVALID PUSH1 0x80 PUSH1 0x40 MSTORE CALLVALUE DUP1 ISZERO PUSH2 0x10 JUMPI PUSH1 0x0 DUP1 REVERT JUMPDEST POP PUSH1 0x4 CALLDATASIZE LT PUSH2 0x227 JUMPI PUSH1 0x0 CALLDATALOAD PUSH1 0xE0 SHR DUP1 PUSH4 0x715018A6 GT PUSH2 0x130 JUMPI DUP1 PUSH4 0xB337D32C GT PUSH2 0xB8 JUMPI DUP1 PUSH4 0xE2BBB158 GT PUSH2 0x7C JUMPI DUP1 PUSH4 0xE2BBB158 EQ PUSH2 0x5C6 JUMPI DUP1 PUSH4 0xE4C75C27 EQ PUSH2 0x5E9 JUMPI DUP1 PUSH4 0xE6AB8D48 EQ PUSH2 0x62E JUMPI DUP1 PUSH4 0xE715E234 EQ PUSH2 0x636 JUMPI DUP1 PUSH4 0xF2FDE38B EQ PUSH2 0x664 JUMPI PUSH2 0x227 JUMP JUMPDEST DUP1 PUSH4 0xB337D32C EQ PUSH2 0x559 JUMPI DUP1 PUSH4 0xB5EC5C99 EQ PUSH2 0x57C JUMPI DUP1 PUSH4 0xCB4502C4 EQ PUSH2 0x599 JUMPI DUP1 PUSH4 0xD431B1AC EQ PUSH2 0x5B6 JUMPI DUP1 PUSH4 0xDFC7B95B EQ PUSH2 0x5BE JUMPI PUSH2 0x227 JUMP JUMPDEST DUP1 PUSH4 0x8FA39A88 GT PUSH2 0xFF JUMPI DUP1 PUSH4 0x8FA39A88 EQ PUSH2 0x496 JUMPI DUP1 PUSH4 0x93F1A40B EQ PUSH2 0x49E JUMPI DUP1 PUSH4 0xA9FB763C EQ PUSH2 0x4E8 JUMPI DUP1 PUSH4 0xAAAE43CC EQ PUSH2 0x505 JUMPI DUP1 PUSH4 0xB0C7044B EQ PUSH2 0x533 JUMPI PUSH2 0x227 JUMP JUMPDEST DUP1 PUSH4 0x715018A6 EQ PUSH2 0x443 JUMPI DUP1 PUSH4 0x791BA374 EQ PUSH2 0x44B JUMPI DUP1 PUSH4 0x7FE6F5AC EQ PUSH2 0x468 JUMPI DUP1 PUSH4 0x8DA5CB5B EQ PUSH2 0x48E JUMPI PUSH2 0x227 JUMP JUMPDEST DUP1 PUSH4 0x51EB05A6 GT PUSH2 0x1B3 JUMPI DUP1 PUSH4 0x5A3E251F GT PUSH2 0x182 JUMPI DUP1 PUSH4 0x5A3E251F EQ PUSH2 0x3F8 JUMPI DUP1 PUSH4 0x5C975ABB EQ PUSH2 0x400 JUMPI DUP1 PUSH4 0x630B5BA1 EQ PUSH2 0x408 JUMPI DUP1 PUSH4 0x64482F79 EQ PUSH2 0x410 JUMPI DUP1 PUSH4 0x705BBC01 EQ PUSH2 0x43B JUMPI PUSH2 0x227 JUMP JUMPDEST DUP1 PUSH4 0x51EB05A6 EQ PUSH2 0x37C JUMPI DUP1 PUSH4 0x5312EA8E EQ PUSH2 0x399 JUMPI DUP1 PUSH4 0x5672AB55 EQ PUSH2 0x3B6 JUMPI DUP1 PUSH4 0x56C5867D EQ PUSH2 0x3BE JUMPI PUSH2 0x227 JUMP JUMPDEST DUP1 PUSH4 0x1B15B579 GT PUSH2 0x1FA JUMPI DUP1 PUSH4 0x1B15B579 EQ PUSH2 0x2C5 JUMPI DUP1 PUSH4 0x1EAAA045 EQ PUSH2 0x2E2 JUMPI DUP1 PUSH4 0x43154907 EQ PUSH2 0x318 JUMPI DUP1 PUSH4 0x441A3E70 EQ PUSH2 0x351 JUMPI DUP1 PUSH4 0x48CD4CB1 EQ PUSH2 0x374 JUMPI PUSH2 0x227 JUMP JUMPDEST DUP1 PUSH4 0x81E3EDA EQ PUSH2 0x22C JUMPI DUP1 PUSH4 0x135F8AA7 EQ PUSH2 0x246 JUMPI DUP1 PUSH4 0x1526FE27 EQ PUSH2 0x263 JUMPI DUP1 PUSH4 0x17CAF6F1 EQ PUSH2 0x2BD JUMPI JUMPDEST PUSH1 0x0 DUP1 REVERT JUMPDEST PUSH2 0x234 PUSH2 0x68A JUMP JUMPDEST PUSH1 0x40 DUP1 MLOAD SWAP2 DUP3 MSTORE MLOAD SWAP1 DUP2 SWAP1 SUB PUSH1 0x20 ADD SWAP1 RETURN JUMPDEST PUSH2 0x234 PUSH1 0x4 DUP1 CALLDATASIZE SUB PUSH1 0x20 DUP2 LT ISZERO PUSH2 0x25C JUMPI PUSH1 0x0 DUP1 REVERT JUMPDEST POP CALLDATALOAD PUSH2 0x690 JUMP JUMPDEST PUSH2 0x280 PUSH1 0x4 DUP1 CALLDATASIZE SUB PUSH1 0x20 DUP2 LT ISZERO PUSH2 0x279 JUMPI PUSH1 0x0 DUP1 REVERT JUMPDEST POP CALLDATALOAD PUSH2 0x6F7 JUMP JUMPDEST PUSH1 0x40 DUP1 MLOAD PUSH1 0x1 PUSH1 0x1 PUSH1 0xA0 SHL SUB SWAP1 SWAP8 AND DUP8 MSTORE PUSH1 0x20 DUP8 ADD SWAP6 SWAP1 SWAP6 MSTORE DUP6 DUP6 ADD SWAP4 SWAP1 SWAP4 MSTORE PUSH1 0x60 DUP6 ADD SWAP2 SWAP1 SWAP2 MSTORE PUSH1 0x80 DUP5 ADD MSTORE PUSH1 0xA0 DUP4 ADD MSTORE MLOAD SWAP1 DUP2 SWAP1 SUB PUSH1 0xC0 ADD SWAP1 RETURN JUMPDEST PUSH2 0x234 PUSH2 0x744 JUMP JUMPDEST PUSH2 0x234 PUSH1 0x4 DUP1 CALLDATASIZE SUB PUSH1 0x20 DUP2 LT ISZERO PUSH2 0x2DB JUMPI PUSH1 0x0 DUP1 REVERT JUMPDEST POP CALLDATALOAD PUSH2 0x74A JUMP JUMPDEST PUSH2 0x316 PUSH1 0x4 DUP1 CALLDATASIZE SUB PUSH1 0x60 DUP2 LT ISZERO PUSH2 0x2F8 JUMPI PUSH1 0x0 DUP1 REVERT JUMPDEST POP DUP1 CALLDATALOAD SWAP1 PUSH1 0x1 PUSH1 0x1 PUSH1 0xA0 SHL SUB PUSH1 0x20 DUP3 ADD CALLDATALOAD AND SWAP1 PUSH1 0x40 ADD CALLDATALOAD ISZERO ISZERO PUSH2 0x818 JUMP JUMPDEST STOP JUMPDEST PUSH2 0x335 PUSH1 0x4 DUP1 CALLDATASIZE SUB PUSH1 0x20 DUP2 LT ISZERO PUSH2 0x32E JUMPI PUSH1 0x0 DUP1 REVERT JUMPDEST POP CALLDATALOAD PUSH2 0xA86 JUMP JUMPDEST PUSH1 0x40 DUP1 MLOAD PUSH1 0x1 PUSH1 0x1 PUSH1 0xA0 SHL SUB SWAP1 SWAP3 AND DUP3 MSTORE MLOAD SWAP1 DUP2 SWAP1 SUB PUSH1 0x20 ADD SWAP1 RETURN JUMPDEST PUSH2 0x316 PUSH1 0x4 DUP1 CALLDATASIZE SUB PUSH1 0x40 DUP2 LT ISZERO PUSH2 0x367 JUMPI PUSH1 0x0 DUP1 REVERT JUMPDEST POP DUP1 CALLDATALOAD SWAP1 PUSH1 0x20 ADD CALLDATALOAD PUSH2 0xAEF JUMP JUMPDEST PUSH2 0x234 PUSH2 0xB9E JUMP JUMPDEST PUSH2 0x316 PUSH1 0x4 DUP1 CALLDATASIZE SUB PUSH1 0x20 DUP2 LT ISZERO PUSH2 0x392 JUMPI PUSH1 0x0 DUP1 REVERT JUMPDEST POP CALLDATALOAD PUSH2 0xBA4 JUMP JUMPDEST PUSH2 0x316 PUSH1 0x4 DUP1 CALLDATASIZE SUB PUSH1 0x20 DUP2 LT ISZERO PUSH2 0x3AF JUMPI PUSH1 0x0 DUP1 REVERT JUMPDEST POP CALLDATALOAD PUSH2 0xDAD JUMP JUMPDEST PUSH2 0x335 PUSH2 0xE59 JUMP JUMPDEST PUSH2 0x3E4 PUSH1 0x4 DUP1 CALLDATASIZE SUB PUSH1 0x20 DUP2 LT ISZERO PUSH2 0x3D4 JUMPI PUSH1 0x0 DUP1 REVERT JUMPDEST POP CALLDATALOAD PUSH1 0x1 PUSH1 0x1 PUSH1 0xA0 SHL SUB AND PUSH2 0xE68 JUMP JUMPDEST PUSH1 0x40 DUP1 MLOAD SWAP2 ISZERO ISZERO DUP3 MSTORE MLOAD SWAP1 DUP2 SWAP1 SUB PUSH1 0x20 ADD SWAP1 RETURN JUMPDEST PUSH2 0x234 PUSH2 0xFAF JUMP JUMPDEST PUSH2 0x3E4 PUSH2 0xFB5 JUMP JUMPDEST PUSH2 0x316 PUSH2 0xFBE JUMP JUMPDEST PUSH2 0x316 PUSH1 0x4 DUP1 CALLDATASIZE SUB PUSH1 0x60 DUP2 LT ISZERO PUSH2 0x426 JUMPI PUSH1 0x0 DUP1 REVERT JUMPDEST POP DUP1 CALLDATALOAD SWAP1 PUSH1 0x20 DUP2 ADD CALLDATALOAD SWAP1 PUSH1 0x40 ADD CALLDATALOAD ISZERO ISZERO PUSH2 0xFDD JUMP JUMPDEST PUSH2 0x335 PUSH2 0x10B2 JUMP JUMPDEST PUSH2 0x316 PUSH2 0x10C1 JUMP JUMPDEST PUSH2 0x316 PUSH1 0x4 DUP1 CALLDATASIZE SUB PUSH1 0x20 DUP2 LT ISZERO PUSH2 0x461 JUMPI PUSH1 0x0 DUP1 REVERT JUMPDEST POP CALLDATALOAD PUSH2 0x116D JUMP JUMPDEST PUSH2 0x3E4 PUSH1 0x4 DUP1 CALLDATASIZE SUB PUSH1 0x20 DUP2 LT ISZERO PUSH2 0x47E JUMPI PUSH1 0x0 DUP1 REVERT JUMPDEST POP CALLDATALOAD PUSH1 0x1 PUSH1 0x1 PUSH1 0xA0 SHL SUB AND PUSH2 0x11DC JUMP JUMPDEST PUSH2 0x335 PUSH2 0x11E9 JUMP JUMPDEST PUSH2 0x234 PUSH2 0x11F8 JUMP JUMPDEST PUSH2 0x4CA PUSH1 0x4 DUP1 CALLDATASIZE SUB PUSH1 0x40 DUP2 LT ISZERO PUSH2 0x4B4 JUMPI PUSH1 0x0 DUP1 REVERT JUMPDEST POP DUP1 CALLDATALOAD SWAP1 PUSH1 0x20 ADD CALLDATALOAD PUSH1 0x1 PUSH1 0x1 PUSH1 0xA0 SHL SUB AND PUSH2 0x11FE JUMP JUMPDEST PUSH1 0x40 DUP1 MLOAD SWAP4 DUP5 MSTORE PUSH1 0x20 DUP5 ADD SWAP3 SWAP1 SWAP3 MSTORE DUP3 DUP3 ADD MSTORE MLOAD SWAP1 DUP2 SWAP1 SUB PUSH1 0x60 ADD SWAP1 RETURN JUMPDEST PUSH2 0x234 PUSH1 0x4 DUP1 CALLDATASIZE SUB PUSH1 0x20 DUP2 LT ISZERO PUSH2 0x4FE JUMPI PUSH1 0x0 DUP1 REVERT JUMPDEST POP CALLDATALOAD PUSH2 0x122A JUMP JUMPDEST PUSH2 0x316 PUSH1 0x4 DUP1 CALLDATASIZE SUB PUSH1 0x40 DUP2 LT ISZERO PUSH2 0x51B JUMPI PUSH1 0x0 DUP1 REVERT JUMPDEST POP PUSH1 0x1 PUSH1 0x1 PUSH1 0xA0 SHL SUB DUP2 CALLDATALOAD DUP2 AND SWAP2 PUSH1 0x20 ADD CALLDATALOAD AND PUSH2 0x1257 JUMP JUMPDEST PUSH2 0x234 PUSH1 0x4 DUP1 CALLDATASIZE SUB PUSH1 0x20 DUP2 LT ISZERO PUSH2 0x549 JUMPI PUSH1 0x0 DUP1 REVERT JUMPDEST POP CALLDATALOAD PUSH1 0x1 PUSH1 0x1 PUSH1 0xA0 SHL SUB AND PUSH2 0x1461 JUMP JUMPDEST PUSH2 0x316 PUSH1 0x4 DUP1 CALLDATASIZE SUB PUSH1 0x40 DUP2 LT ISZERO PUSH2 0x56F JUMPI PUSH1 0x0 DUP1 REVERT JUMPDEST POP DUP1 CALLDATALOAD SWAP1 PUSH1 0x20 ADD CALLDATALOAD PUSH2 0x1473 JUMP JUMPDEST PUSH2 0x316 PUSH1 0x4 DUP1 CALLDATASIZE SUB PUSH1 0x20 DUP2 LT ISZERO PUSH2 0x592 JUMPI PUSH1 0x0 DUP1 REVERT JUMPDEST POP CALLDATALOAD PUSH2 0x153B JUMP JUMPDEST PUSH2 0x234 PUSH1 0x4 DUP1 CALLDATASIZE SUB PUSH1 0x20 DUP2 LT ISZERO PUSH2 0x5AF JUMPI PUSH1 0x0 DUP1 REVERT JUMPDEST POP CALLDATALOAD PUSH2 0x15A2 JUMP JUMPDEST PUSH2 0x316 PUSH2 0x15B4 JUMP JUMPDEST PUSH2 0x335 PUSH2 0x162A JUMP JUMPDEST PUSH2 0x316 PUSH1 0x4 DUP1 CALLDATASIZE SUB PUSH1 0x40 DUP2 LT ISZERO PUSH2 0x5DC JUMPI PUSH1 0x0 DUP1 REVERT JUMPDEST POP DUP1 CALLDATALOAD SWAP1 PUSH1 0x20 ADD CALLDATALOAD PUSH2 0x1639 JUMP JUMPDEST PUSH2 0x615 PUSH1 0x4 DUP1 CALLDATASIZE SUB PUSH1 0x40 DUP2 LT ISZERO PUSH2 0x5FF JUMPI PUSH1 0x0 DUP1 REVERT JUMPDEST POP DUP1 CALLDATALOAD SWAP1 PUSH1 0x20 ADD CALLDATALOAD PUSH1 0x1 PUSH1 0x1 PUSH1 0xA0 SHL SUB AND PUSH2 0x16DE JUMP JUMPDEST PUSH1 0x40 DUP1 MLOAD SWAP3 DUP4 MSTORE PUSH1 0x20 DUP4 ADD SWAP2 SWAP1 SWAP2 MSTORE DUP1 MLOAD SWAP2 DUP3 SWAP1 SUB ADD SWAP1 RETURN JUMPDEST PUSH2 0x234 PUSH2 0x1758 JUMP JUMPDEST PUSH2 0x316 PUSH1 0x4 DUP1 CALLDATASIZE SUB PUSH1 0x40 DUP2 LT ISZERO PUSH2 0x64C JUMPI PUSH1 0x0 DUP1 REVERT JUMPDEST POP PUSH1 0x1 PUSH1 0x1 PUSH1 0xA0 SHL SUB DUP2 CALLDATALOAD DUP2 AND SWAP2 PUSH1 0x20 ADD CALLDATALOAD AND PUSH2 0x1769 JUMP JUMPDEST PUSH2 0x316 PUSH1 0x4 DUP1 CALLDATASIZE SUB PUSH1 0x20 DUP2 LT ISZERO PUSH2 0x67A JUMPI PUSH1 0x0 DUP1 REVERT JUMPDEST POP CALLDATALOAD PUSH1 0x1 PUSH1 0x1 PUSH1 0xA0 SHL SUB AND PUSH2 0x1860 JUMP JUMPDEST PUSH1 0x5 SLOAD SWAP1 JUMP JUMPDEST PUSH1 0x0 PUSH1 0xE SLOAD PUSH1 0x0 EQ ISZERO PUSH2 0x6A5 JUMPI POP PUSH1 0x0 PUSH2 0x6F2 JUMP JUMPDEST PUSH1 0xB SLOAD DUP3 GT ISZERO PUSH2 0x6EE JUMPI PUSH2 0x6E7 PUSH1 0xE SLOAD PUSH2 0x6DB PUSH1 0x1 PUSH2 0x6CF PUSH1 0xB SLOAD DUP8 PUSH2 0x1962 SWAP1 SWAP2 SWAP1 PUSH4 0xFFFFFFFF AND JUMP JUMPDEST SWAP1 PUSH4 0xFFFFFFFF PUSH2 0x1962 AND JUMP JUMPDEST SWAP1 PUSH4 0xFFFFFFFF PUSH2 0x19BF AND JUMP JUMPDEST SWAP1 POP PUSH2 0x6F2 JUMP JUMPDEST POP PUSH1 0x0 JUMPDEST SWAP2 SWAP1 POP JUMP JUMPDEST PUSH1 0x5 DUP2 DUP2 SLOAD DUP2 LT PUSH2 0x704 JUMPI INVALID JUMPDEST PUSH1 0x0 SWAP2 DUP3 MSTORE PUSH1 0x20 SWAP1 SWAP2 KECCAK256 PUSH1 0x6 SWAP1 SWAP2 MUL ADD DUP1 SLOAD PUSH1 0x1 DUP3 ADD SLOAD PUSH1 0x2 DUP4 ADD SLOAD PUSH1 0x3 DUP5 ADD SLOAD PUSH1 0x4 DUP6 ADD SLOAD PUSH1 0x5 SWAP1 SWAP6 ADD SLOAD PUSH1 0x1 PUSH1 0x1 PUSH1 0xA0 SHL SUB SWAP1 SWAP5 AND SWAP6 POP SWAP2 SWAP4 SWAP1 SWAP3 DUP7 JUMP JUMPDEST PUSH1 0xA SLOAD DUP2 JUMP JUMPDEST PUSH1 0x0 DUP1 DUP1 PUSH2 0x757 DUP5 PUSH2 0x690 JUMP JUMPDEST SWAP1 POP PUSH1 0x0 PUSH2 0x764 NUMBER PUSH2 0x690 JUMP JUMPDEST SWAP1 POP JUMPDEST DUP1 DUP3 LT ISZERO PUSH2 0x7E3 JUMPI PUSH1 0xB SLOAD PUSH1 0xE SLOAD PUSH1 0x1 SWAP1 SWAP4 ADD SWAP3 PUSH1 0x0 SWAP2 PUSH2 0x79F SWAP2 PUSH2 0x793 SWAP1 DUP7 SWAP1 PUSH4 0xFFFFFFFF PUSH2 0x1A26 AND JUMP JUMPDEST SWAP1 PUSH4 0xFFFFFFFF PUSH2 0x1A7F AND JUMP JUMPDEST SWAP1 POP PUSH2 0x7D9 PUSH2 0x7CC PUSH2 0x7B0 DUP4 PUSH2 0x122A JUMP JUMPDEST PUSH2 0x7C0 DUP5 DUP11 PUSH4 0xFFFFFFFF PUSH2 0x1962 AND JUMP JUMPDEST SWAP1 PUSH4 0xFFFFFFFF PUSH2 0x1A26 AND JUMP JUMPDEST DUP6 SWAP1 PUSH4 0xFFFFFFFF PUSH2 0x1A7F AND JUMP JUMPDEST SWAP1 SWAP6 POP SWAP3 POP PUSH2 0x767 JUMP JUMPDEST PUSH2 0x80F PUSH2 0x802 PUSH2 0x7F2 NUMBER PUSH2 0x122A JUMP JUMPDEST PUSH2 0x7C0 NUMBER DUP10 PUSH4 0xFFFFFFFF PUSH2 0x1962 AND JUMP JUMPDEST DUP5 SWAP1 PUSH4 0xFFFFFFFF PUSH2 0x1A7F AND JUMP JUMPDEST SWAP6 SWAP5 POP POP POP POP POP JUMP JUMPDEST PUSH2 0x820 PUSH2 0x1AD9 JUMP JUMPDEST PUSH1 0x1 PUSH1 0x1 PUSH1 0xA0 SHL SUB AND PUSH2 0x831 PUSH2 0x11E9 JUMP JUMPDEST PUSH1 0x1 PUSH1 0x1 PUSH1 0xA0 SHL SUB AND EQ PUSH2 0x87A JUMPI PUSH1 0x40 DUP1 MLOAD PUSH3 0x461BCD PUSH1 0xE5 SHL DUP2 MSTORE PUSH1 0x20 PUSH1 0x4 DUP3 ADD DUP2 SWAP1 MSTORE PUSH1 0x24 DUP3 ADD MSTORE PUSH1 0x0 DUP1 MLOAD PUSH1 0x20 PUSH2 0x35C9 DUP4 CODECOPY DUP2 MLOAD SWAP2 MSTORE PUSH1 0x44 DUP3 ADD MSTORE SWAP1 MLOAD SWAP1 DUP2 SWAP1 SUB PUSH1 0x64 ADD SWAP1 REVERT JUMPDEST PUSH1 0x1 PUSH1 0x1 PUSH1 0xA0 SHL SUB DUP3 AND PUSH2 0x8D5 JUMPI PUSH1 0x40 DUP1 MLOAD PUSH3 0x461BCD PUSH1 0xE5 SHL DUP2 MSTORE PUSH1 0x20 PUSH1 0x4 DUP3 ADD MSTORE PUSH1 0x1C PUSH1 0x24 DUP3 ADD MSTORE PUSH32 0x5F6C70546F6B656E20697320746865207A65726F206164647265737300000000 PUSH1 0x44 DUP3 ADD MSTORE SWAP1 MLOAD SWAP1 DUP2 SWAP1 SUB PUSH1 0x64 ADD SWAP1 REVERT JUMPDEST DUP1 ISZERO PUSH2 0x8E3 JUMPI PUSH2 0x8E3 PUSH2 0xFBE JUMP JUMPDEST PUSH1 0x0 PUSH1 0xB SLOAD NUMBER GT PUSH2 0x8F6 JUMPI PUSH1 0xB SLOAD PUSH2 0x8F8 JUMP JUMPDEST NUMBER JUMPDEST PUSH1 0xA SLOAD SWAP1 SWAP2 POP PUSH2 0x90E SWAP1 DUP6 PUSH4 0xFFFFFFFF PUSH2 0x1A7F AND JUMP JUMPDEST PUSH1 0xA SSTORE PUSH1 0x40 DUP1 MLOAD PUSH1 0xC0 DUP2 ADD DUP3 MSTORE PUSH1 0x1 PUSH1 0x1 PUSH1 0xA0 SHL SUB DUP6 DUP2 AND DUP3 MSTORE PUSH1 0x20 DUP3 ADD DUP8 DUP2 MSTORE SWAP3 DUP3 ADD DUP5 DUP2 MSTORE PUSH1 0x0 PUSH1 0x60 DUP5 ADD DUP2 DUP2 MSTORE PUSH1 0x80 DUP6 ADD DUP3 DUP2 MSTORE PUSH1 0xA0 DUP7 ADD DUP4 DUP2 MSTORE PUSH1 0x5 DUP1 SLOAD PUSH1 0x1 DUP1 DUP3 ADD DUP4 SSTORE SWAP2 SWAP1 SWAP6 MSTORE SWAP7 MLOAD PUSH32 0x36B6384B5ECA791C62761152D0C79BB0604C104A5FB6F4EB0703F3154BB3DB0 PUSH1 0x6 SWAP1 SWAP6 MUL SWAP5 DUP6 ADD DUP1 SLOAD PUSH1 0x1 PUSH1 0x1 PUSH1 0xA0 SHL SUB NOT AND SWAP2 SWAP1 SWAP8 AND OR SWAP1 SWAP6 SSTORE SWAP6 MLOAD PUSH32 0x36B6384B5ECA791C62761152D0C79BB0604C104A5FB6F4EB0703F3154BB3DB1 DUP4 ADD SSTORE SWAP2 MLOAD PUSH32 0x36B6384B5ECA791C62761152D0C79BB0604C104A5FB6F4EB0703F3154BB3DB2 DUP3 ADD SSTORE SWAP1 MLOAD PUSH32 0x36B6384B5ECA791C62761152D0C79BB0604C104A5FB6F4EB0703F3154BB3DB3 DUP3 ADD SSTORE SWAP3 MLOAD PUSH32 0x36B6384B5ECA791C62761152D0C79BB0604C104A5FB6F4EB0703F3154BB3DB4 DUP5 ADD SSTORE MLOAD PUSH32 0x36B6384B5ECA791C62761152D0C79BB0604C104A5FB6F4EB0703F3154BB3DB5 SWAP1 SWAP3 ADD SWAP2 SWAP1 SWAP2 SSTORE PUSH2 0xA63 PUSH2 0x68A JUMP JUMPDEST PUSH1 0x1 PUSH1 0x1 PUSH1 0xA0 SHL SUB SWAP1 SWAP5 AND PUSH1 0x0 SWAP1 DUP2 MSTORE PUSH1 0x8 PUSH1 0x20 MSTORE PUSH1 0x40 SWAP1 KECCAK256 SWAP4 SUB SWAP1 SWAP3 SSTORE POP POP POP JUMP JUMPDEST PUSH1 0x0 PUSH1 0x1 PUSH2 0xA92 PUSH2 0x1758 JUMP JUMPDEST SUB DUP3 GT ISZERO PUSH2 0xADE JUMPI PUSH1 0x40 DUP1 MLOAD PUSH3 0x461BCD PUSH1 0xE5 SHL DUP2 MSTORE PUSH1 0x20 PUSH1 0x4 DUP3 ADD MSTORE PUSH1 0x14 PUSH1 0x24 DUP3 ADD MSTORE PUSH20 0x6E6F742066696E642074686973206D756C744C5 PUSH1 0x64 SHL PUSH1 0x44 DUP3 ADD MSTORE SWAP1 MLOAD SWAP1 DUP2 SWAP1 SUB PUSH1 0x64 ADD SWAP1 REVERT JUMPDEST PUSH2 0xAE9 PUSH1 0x1 DUP4 PUSH2 0x1ADD JUMP JUMPDEST SWAP3 SWAP2 POP POP JUMP JUMPDEST PUSH1 0x9 SLOAD PUSH1 0xFF AND ISZERO PUSH2 0xB43 JUMPI PUSH1 0x40 DUP1 MLOAD PUSH3 0x461BCD PUSH1 0xE5 SHL DUP2 MSTORE PUSH1 0x20 PUSH1 0x4 DUP3 ADD MSTORE PUSH1 0x19 PUSH1 0x24 DUP3 ADD MSTORE PUSH25 0x135A5B9A5B99C81A185CC81899595B881CDD5CDC195B991959 PUSH1 0x3A SHL PUSH1 0x44 DUP3 ADD MSTORE SWAP1 MLOAD SWAP1 DUP2 SWAP1 SUB PUSH1 0x64 ADD SWAP1 REVERT JUMPDEST PUSH1 0x0 PUSH1 0x5 DUP4 DUP2 SLOAD DUP2 LT PUSH2 0xB52 JUMPI INVALID JUMPDEST PUSH1 0x0 SWAP2 DUP3 MSTORE PUSH1 0x20 SWAP1 SWAP2 KECCAK256 PUSH1 0x6 SWAP1 SWAP2 MUL ADD DUP1 SLOAD SWAP1 SWAP2 POP PUSH2 0xB79 SWAP1 PUSH1 0x1 PUSH1 0x1 PUSH1 0xA0 SHL SUB AND PUSH2 0x11DC JUMP JUMPDEST ISZERO PUSH2 0xB8E JUMPI PUSH2 0xB89 DUP4 DUP4 CALLER PUSH2 0x1AE9 JUMP JUMPDEST PUSH2 0xB99 JUMP JUMPDEST PUSH2 0xB99 DUP4 DUP4 CALLER PUSH2 0x1EAB JUMP JUMPDEST POP POP POP JUMP JUMPDEST PUSH1 0xB SLOAD DUP2 JUMP JUMPDEST PUSH1 0x0 PUSH1 0x5 DUP3 DUP2 SLOAD DUP2 LT PUSH2 0xBB3 JUMPI INVALID JUMPDEST SWAP1 PUSH1 0x0 MSTORE PUSH1 0x20 PUSH1 0x0 KECCAK256 SWAP1 PUSH1 0x6 MUL ADD SWAP1 POP DUP1 PUSH1 0x2 ADD SLOAD NUMBER GT PUSH2 0xBD4 JUMPI POP PUSH2 0xDAA JUMP JUMPDEST DUP1 SLOAD PUSH1 0x0 SWAP1 PUSH2 0xBEB SWAP1 PUSH1 0x1 PUSH1 0x1 PUSH1 0xA0 SHL SUB AND PUSH2 0x11DC JUMP JUMPDEST ISZERO PUSH2 0xC11 JUMPI PUSH1 0x5 DUP3 ADD SLOAD PUSH2 0xC06 JUMPI POP NUMBER PUSH1 0x2 SWAP1 SWAP2 ADD SSTORE PUSH2 0xDAA JUMP JUMPDEST POP PUSH1 0x5 DUP2 ADD SLOAD PUSH2 0xC9B JUMP JUMPDEST DUP2 SLOAD PUSH1 0x40 DUP1 MLOAD PUSH4 0x70A08231 PUSH1 0xE0 SHL DUP2 MSTORE ADDRESS PUSH1 0x4 DUP3 ADD MSTORE SWAP1 MLOAD PUSH1 0x1 PUSH1 0x1 PUSH1 0xA0 SHL SUB SWAP1 SWAP3 AND SWAP2 PUSH4 0x70A08231 SWAP2 PUSH1 0x24 DUP1 DUP3 ADD SWAP3 PUSH1 0x20 SWAP3 SWAP1 SWAP2 SWAP1 DUP3 SWAP1 SUB ADD DUP2 DUP7 DUP1 EXTCODESIZE ISZERO DUP1 ISZERO PUSH2 0xC5B JUMPI PUSH1 0x0 DUP1 REVERT JUMPDEST POP GAS STATICCALL ISZERO DUP1 ISZERO PUSH2 0xC6F JUMPI RETURNDATASIZE PUSH1 0x0 DUP1 RETURNDATACOPY RETURNDATASIZE PUSH1 0x0 REVERT JUMPDEST POP POP POP POP PUSH1 0x40 MLOAD RETURNDATASIZE PUSH1 0x20 DUP2 LT ISZERO PUSH2 0xC85 JUMPI PUSH1 0x0 DUP1 REVERT JUMPDEST POP MLOAD SWAP1 POP DUP1 PUSH2 0xC9B JUMPI POP NUMBER PUSH1 0x2 SWAP1 SWAP2 ADD SSTORE PUSH2 0xDAA JUMP JUMPDEST PUSH1 0x0 PUSH2 0xCAA DUP4 PUSH1 0x2 ADD SLOAD PUSH2 0x74A JUMP JUMPDEST SWAP1 POP PUSH1 0x0 DUP2 GT PUSH2 0xCBC JUMPI POP POP POP PUSH2 0xDAA JUMP JUMPDEST PUSH1 0x0 PUSH2 0xCDB PUSH1 0xA SLOAD PUSH2 0x6DB DUP7 PUSH1 0x1 ADD SLOAD DUP6 PUSH2 0x1A26 SWAP1 SWAP2 SWAP1 PUSH4 0xFFFFFFFF AND JUMP JUMPDEST PUSH1 0x3 SLOAD PUSH1 0x40 DUP1 MLOAD PUSH4 0x40C10F19 PUSH1 0xE0 SHL DUP2 MSTORE ADDRESS PUSH1 0x4 DUP3 ADD MSTORE PUSH1 0x24 DUP2 ADD DUP5 SWAP1 MSTORE SWAP1 MLOAD SWAP3 SWAP4 POP PUSH1 0x0 SWAP3 PUSH1 0x1 PUSH1 0x1 PUSH1 0xA0 SHL SUB SWAP1 SWAP3 AND SWAP2 PUSH4 0x40C10F19 SWAP2 PUSH1 0x44 DUP1 DUP3 ADD SWAP3 PUSH1 0x20 SWAP3 SWAP1 SWAP2 SWAP1 DUP3 SWAP1 SUB ADD DUP2 DUP8 DUP8 DUP1 EXTCODESIZE ISZERO DUP1 ISZERO PUSH2 0xD34 JUMPI PUSH1 0x0 DUP1 REVERT JUMPDEST POP GAS CALL ISZERO DUP1 ISZERO PUSH2 0xD48 JUMPI RETURNDATASIZE PUSH1 0x0 DUP1 RETURNDATACOPY RETURNDATASIZE PUSH1 0x0 REVERT JUMPDEST POP POP POP POP PUSH1 0x40 MLOAD RETURNDATASIZE PUSH1 0x20 DUP2 LT ISZERO PUSH2 0xD5E JUMPI PUSH1 0x0 DUP1 REVERT JUMPDEST POP MLOAD SWAP1 POP DUP1 ISZERO PUSH2 0xD9B JUMPI PUSH2 0xD95 PUSH2 0xD84 DUP6 PUSH2 0x6DB DUP6 PUSH5 0xE8D4A51000 PUSH4 0xFFFFFFFF PUSH2 0x1A26 AND JUMP JUMPDEST PUSH1 0x3 DUP8 ADD SLOAD SWAP1 PUSH4 0xFFFFFFFF PUSH2 0x1A7F AND JUMP JUMPDEST PUSH1 0x3 DUP7 ADD SSTORE JUMPDEST NUMBER DUP6 PUSH1 0x2 ADD DUP2 SWAP1 SSTORE POP POP POP POP POP POP JUMPDEST POP JUMP JUMPDEST PUSH1 0x9 SLOAD PUSH1 0xFF AND ISZERO PUSH2 0xE01 JUMPI PUSH1 0x40 DUP1 MLOAD PUSH3 0x461BCD PUSH1 0xE5 SHL DUP2 MSTORE PUSH1 0x20 PUSH1 0x4 DUP3 ADD MSTORE PUSH1 0x19 PUSH1 0x24 DUP3 ADD MSTORE PUSH25 0x135A5B9A5B99C81A185CC81899595B881CDD5CDC195B991959 PUSH1 0x3A SHL PUSH1 0x44 DUP3 ADD MSTORE SWAP1 MLOAD SWAP1 DUP2 SWAP1 SUB PUSH1 0x64 ADD SWAP1 REVERT JUMPDEST PUSH1 0x0 PUSH1 0x5 DUP3 DUP2 SLOAD DUP2 LT PUSH2 0xE10 JUMPI INVALID JUMPDEST PUSH1 0x0 SWAP2 DUP3 MSTORE PUSH1 0x20 SWAP1 SWAP2 KECCAK256 PUSH1 0x6 SWAP1 SWAP2 MUL ADD DUP1 SLOAD SWAP1 SWAP2 POP PUSH2 0xE37 SWAP1 PUSH1 0x1 PUSH1 0x1 PUSH1 0xA0 SHL SUB AND PUSH2 0x11DC JUMP JUMPDEST ISZERO PUSH2 0xE4B JUMPI PUSH2 0xE46 DUP3 CALLER PUSH2 0x2042 JUMP JUMPDEST PUSH2 0xE55 JUMP JUMPDEST PUSH2 0xE55 DUP3 CALLER PUSH2 0x229B JUMP JUMPDEST POP POP JUMP JUMPDEST PUSH1 0x3 SLOAD PUSH1 0x1 PUSH1 0x1 PUSH1 0xA0 SHL SUB AND DUP2 JUMP JUMPDEST PUSH1 0x0 PUSH2 0xE72 PUSH2 0x1AD9 JUMP JUMPDEST PUSH1 0x1 PUSH1 0x1 PUSH1 0xA0 SHL SUB AND PUSH2 0xE83 PUSH2 0x11E9 JUMP JUMPDEST PUSH1 0x1 PUSH1 0x1 PUSH1 0xA0 SHL SUB AND EQ PUSH2 0xECC JUMPI PUSH1 0x40 DUP1 MLOAD PUSH3 0x461BCD PUSH1 0xE5 SHL DUP2 MSTORE PUSH1 0x20 PUSH1 0x4 DUP3 ADD DUP2 SWAP1 MSTORE PUSH1 0x24 DUP3 ADD MSTORE PUSH1 0x0 DUP1 MLOAD PUSH1 0x20 PUSH2 0x35C9 DUP4 CODECOPY DUP2 MLOAD SWAP2 MSTORE PUSH1 0x44 DUP3 ADD MSTORE SWAP1 MLOAD SWAP1 DUP2 SWAP1 SUB PUSH1 0x64 ADD SWAP1 REVERT JUMPDEST PUSH1 0x1 PUSH1 0x1 PUSH1 0xA0 SHL SUB DUP3 AND PUSH2 0xF20 JUMPI PUSH1 0x40 DUP1 MLOAD PUSH3 0x461BCD PUSH1 0xE5 SHL DUP2 MSTORE PUSH1 0x20 PUSH1 0x4 DUP3 ADD MSTORE PUSH1 0x16 PUSH1 0x24 DUP3 ADD MSTORE PUSH22 0x4C5020697320746865207A65726F2061646472657373 PUSH1 0x50 SHL PUSH1 0x44 DUP3 ADD MSTORE SWAP1 MLOAD SWAP1 DUP2 SWAP1 SUB PUSH1 0x64 ADD SWAP1 REVERT JUMPDEST PUSH1 0xC SLOAD PUSH1 0x40 DUP1 MLOAD PUSH4 0x95EA7B3 PUSH1 0xE0 SHL DUP2 MSTORE PUSH1 0x1 PUSH1 0x1 PUSH1 0xA0 SHL SUB SWAP3 DUP4 AND PUSH1 0x4 DUP3 ADD MSTORE PUSH1 0x0 NOT PUSH1 0x24 DUP3 ADD MSTORE SWAP1 MLOAD SWAP2 DUP5 AND SWAP2 PUSH4 0x95EA7B3 SWAP2 PUSH1 0x44 DUP1 DUP3 ADD SWAP3 PUSH1 0x20 SWAP3 SWAP1 SWAP2 SWAP1 DUP3 SWAP1 SUB ADD DUP2 PUSH1 0x0 DUP8 DUP1 EXTCODESIZE ISZERO DUP1 ISZERO PUSH2 0xF77 JUMPI PUSH1 0x0 DUP1 REVERT JUMPDEST POP GAS CALL ISZERO DUP1 ISZERO PUSH2 0xF8B JUMPI RETURNDATASIZE PUSH1 0x0 DUP1 RETURNDATACOPY RETURNDATASIZE PUSH1 0x0 REVERT JUMPDEST POP POP POP POP PUSH1 0x40 MLOAD RETURNDATASIZE PUSH1 0x20 DUP2 LT ISZERO PUSH2 0xFA1 JUMPI PUSH1 0x0 DUP1 REVERT JUMPDEST POP PUSH2 0xAE9 SWAP1 POP PUSH1 0x1 DUP4 PUSH2 0x235D JUMP JUMPDEST PUSH1 0xE SLOAD DUP2 JUMP JUMPDEST PUSH1 0x9 SLOAD PUSH1 0xFF AND DUP2 JUMP JUMPDEST PUSH1 0x5 SLOAD PUSH1 0x0 JUMPDEST DUP2 DUP2 LT ISZERO PUSH2 0xE55 JUMPI PUSH2 0xFD5 DUP2 PUSH2 0xBA4 JUMP JUMPDEST PUSH1 0x1 ADD PUSH2 0xFC4 JUMP JUMPDEST PUSH2 0xFE5 PUSH2 0x1AD9 JUMP JUMPDEST PUSH1 0x1 PUSH1 0x1 PUSH1 0xA0 SHL SUB AND PUSH2 0xFF6 PUSH2 0x11E9 JUMP JUMPDEST PUSH1 0x1 PUSH1 0x1 PUSH1 0xA0 SHL SUB AND EQ PUSH2 0x103F JUMPI PUSH1 0x40 DUP1 MLOAD PUSH3 0x461BCD PUSH1 0xE5 SHL DUP2 MSTORE PUSH1 0x20 PUSH1 0x4 DUP3 ADD DUP2 SWAP1 MSTORE PUSH1 0x24 DUP3 ADD MSTORE PUSH1 0x0 DUP1 MLOAD PUSH1 0x20 PUSH2 0x35C9 DUP4 CODECOPY DUP2 MLOAD SWAP2 MSTORE PUSH1 0x44 DUP3 ADD MSTORE SWAP1 MLOAD SWAP1 DUP2 SWAP1 SUB PUSH1 0x64 ADD SWAP1 REVERT JUMPDEST DUP1 ISZERO PUSH2 0x104D JUMPI PUSH2 0x104D PUSH2 0xFBE JUMP JUMPDEST PUSH2 0x1084 DUP3 PUSH2 0x793 PUSH1 0x5 DUP7 DUP2 SLOAD DUP2 LT PUSH2 0x1061 JUMPI INVALID JUMPDEST SWAP1 PUSH1 0x0 MSTORE PUSH1 0x20 PUSH1 0x0 KECCAK256 SWAP1 PUSH1 0x6 MUL ADD PUSH1 0x1 ADD SLOAD PUSH1 0xA SLOAD PUSH2 0x1962 SWAP1 SWAP2 SWAP1 PUSH4 0xFFFFFFFF AND JUMP JUMPDEST PUSH1 0xA DUP2 SWAP1 SSTORE POP DUP2 PUSH1 0x5 DUP5 DUP2 SLOAD DUP2 LT PUSH2 0x1098 JUMPI INVALID JUMPDEST SWAP1 PUSH1 0x0 MSTORE PUSH1 0x20 PUSH1 0x0 KECCAK256 SWAP1 PUSH1 0x6 MUL ADD PUSH1 0x1 ADD DUP2 SWAP1 SSTORE POP POP POP POP JUMP JUMPDEST PUSH1 0xD SLOAD PUSH1 0x1 PUSH1 0x1 PUSH1 0xA0 SHL SUB AND DUP2 JUMP JUMPDEST PUSH2 0x10C9 PUSH2 0x1AD9 JUMP JUMPDEST PUSH1 0x1 PUSH1 0x1 PUSH1 0xA0 SHL SUB AND PUSH2 0x10DA PUSH2 0x11E9 JUMP JUMPDEST PUSH1 0x1 PUSH1 0x1 PUSH1 0xA0 SHL SUB AND EQ PUSH2 0x1123 JUMPI PUSH1 0x40 DUP1 MLOAD PUSH3 0x461BCD PUSH1 0xE5 SHL DUP2 MSTORE PUSH1 0x20 PUSH1 0x4 DUP3 ADD DUP2 SWAP1 MSTORE PUSH1 0x24 DUP3 ADD MSTORE PUSH1 0x0 DUP1 MLOAD PUSH1 0x20 PUSH2 0x35C9 DUP4 CODECOPY DUP2 MLOAD SWAP2 MSTORE PUSH1 0x44 DUP3 ADD MSTORE SWAP1 MLOAD SWAP1 DUP2 SWAP1 SUB PUSH1 0x64 ADD SWAP1 REVERT JUMPDEST PUSH1 0x0 DUP1 SLOAD PUSH1 0x40 MLOAD PUSH1 0x1 PUSH1 0x1 PUSH1 0xA0 SHL SUB SWAP1 SWAP2 AND SWAP1 PUSH32 0x8BE0079C531659141344CD1FD0A4F28419497F9722A3DAAFE3B4186F6B6457E0 SWAP1 DUP4 SWAP1 LOG3 PUSH1 0x0 DUP1 SLOAD PUSH1 0x1 PUSH1 0x1 PUSH1 0xA0 SHL SUB NOT AND SWAP1 SSTORE JUMP JUMPDEST PUSH2 0x1175 PUSH2 0x1AD9 JUMP JUMPDEST PUSH1 0x1 PUSH1 0x1 PUSH1 0xA0 SHL SUB AND PUSH2 0x1186 PUSH2 0x11E9 JUMP JUMPDEST PUSH1 0x1 PUSH1 0x1 PUSH1 0xA0 SHL SUB AND EQ PUSH2 0x11CF JUMPI PUSH1 0x40 DUP1 MLOAD PUSH3 0x461BCD PUSH1 0xE5 SHL DUP2 MSTORE PUSH1 0x20 PUSH1 0x4 DUP3 ADD DUP2 SWAP1 MSTORE PUSH1 0x24 DUP3 ADD MSTORE PUSH1 0x0 DUP1 MLOAD PUSH1 0x20 PUSH2 0x35C9 DUP4 CODECOPY DUP2 MLOAD SWAP2 MSTORE PUSH1 0x44 DUP3 ADD MSTORE SWAP1 MLOAD SWAP1 DUP2 SWAP1 SUB PUSH1 0x64 ADD SWAP1 REVERT JUMPDEST PUSH2 0x11D7 PUSH2 0xFBE JUMP JUMPDEST PUSH1 0x4 SSTORE JUMP JUMPDEST PUSH1 0x0 PUSH2 0xAE9 PUSH1 0x1 DUP4 PUSH2 0x2372 JUMP JUMPDEST PUSH1 0x0 SLOAD PUSH1 0x1 PUSH1 0x1 PUSH1 0xA0 SHL SUB AND SWAP1 JUMP JUMPDEST PUSH1 0x4 SLOAD DUP2 JUMP JUMPDEST PUSH1 0x6 PUSH1 0x20 SWAP1 DUP2 MSTORE PUSH1 0x0 SWAP3 DUP4 MSTORE PUSH1 0x40 DUP1 DUP5 KECCAK256 SWAP1 SWAP2 MSTORE SWAP1 DUP3 MSTORE SWAP1 KECCAK256 DUP1 SLOAD PUSH1 0x1 DUP3 ADD SLOAD PUSH1 0x2 SWAP1 SWAP3 ADD SLOAD SWAP1 SWAP2 SWAP1 DUP4 JUMP JUMPDEST PUSH1 0x0 DUP1 PUSH2 0x1236 DUP4 PUSH2 0x690 JUMP JUMPDEST SWAP1 POP PUSH2 0x1250 DUP2 PUSH1 0x2 EXP PUSH1 0x4 SLOAD PUSH2 0x19BF SWAP1 SWAP2 SWAP1 PUSH4 0xFFFFFFFF AND JUMP JUMPDEST SWAP4 SWAP3 POP POP POP JUMP JUMPDEST PUSH2 0x125F PUSH2 0x1AD9 JUMP JUMPDEST PUSH1 0x1 PUSH1 0x1 PUSH1 0xA0 SHL SUB AND PUSH2 0x1270 PUSH2 0x11E9 JUMP JUMPDEST PUSH1 0x1 PUSH1 0x1 PUSH1 0xA0 SHL SUB AND EQ PUSH2 0x12B9 JUMPI PUSH1 0x40 DUP1 MLOAD PUSH3 0x461BCD PUSH1 0xE5 SHL DUP2 MSTORE PUSH1 0x20 PUSH1 0x4 DUP3 ADD DUP2 SWAP1 MSTORE PUSH1 0x24 DUP3 ADD MSTORE PUSH1 0x0 DUP1 MLOAD PUSH1 0x20 PUSH2 0x35C9 DUP4 CODECOPY DUP2 MLOAD SWAP2 MSTORE PUSH1 0x44 DUP3 ADD MSTORE SWAP1 MLOAD SWAP1 DUP2 SWAP1 SUB PUSH1 0x64 ADD SWAP1 REVERT JUMPDEST PUSH1 0x1 PUSH1 0x1 PUSH1 0xA0 SHL SUB DUP3 AND ISZERO DUP1 ISZERO SWAP1 PUSH2 0x12D9 JUMPI POP PUSH1 0x1 PUSH1 0x1 PUSH1 0xA0 SHL SUB DUP2 AND ISZERO ISZERO JUMPDEST PUSH2 0x1320 JUMPI PUSH1 0x40 DUP1 MLOAD PUSH3 0x461BCD PUSH1 0xE5 SHL DUP2 MSTORE PUSH1 0x20 PUSH1 0x4 DUP3 ADD MSTORE PUSH1 0x13 PUSH1 0x24 DUP3 ADD MSTORE PUSH19 0x697320746865207A65726F2061646472657373 PUSH1 0x68 SHL PUSH1 0x44 DUP3 ADD MSTORE SWAP1 MLOAD SWAP1 DUP2 SWAP1 SUB PUSH1 0x64 ADD SWAP1 REVERT JUMPDEST PUSH1 0x9 SLOAD PUSH1 0xFF AND ISZERO ISZERO PUSH1 0x1 EQ PUSH2 0x1373 JUMPI PUSH1 0x40 DUP1 MLOAD PUSH3 0x461BCD PUSH1 0xE5 SHL DUP2 MSTORE PUSH1 0x20 PUSH1 0x4 DUP3 ADD MSTORE PUSH1 0x14 PUSH1 0x24 DUP3 ADD MSTORE PUSH20 0x27379036B4B734B7339039BAB9B832B739B4B7B7 PUSH1 0x61 SHL PUSH1 0x44 DUP3 ADD MSTORE SWAP1 MLOAD SWAP1 DUP2 SWAP1 SUB PUSH1 0x64 ADD SWAP1 REVERT JUMPDEST PUSH1 0xD DUP1 SLOAD PUSH1 0x1 PUSH1 0x1 PUSH1 0xA0 SHL SUB DUP1 DUP6 AND PUSH1 0x1 PUSH1 0x1 PUSH1 0xA0 SHL SUB NOT SWAP3 DUP4 AND OR SWAP1 SWAP3 SSTORE PUSH1 0xC DUP1 SLOAD SWAP3 DUP5 AND SWAP3 SWAP1 SWAP2 AND SWAP2 SWAP1 SWAP2 OR SWAP1 SSTORE PUSH1 0x0 PUSH2 0x13AD PUSH2 0x1758 JUMP JUMPDEST SWAP1 POP JUMPDEST DUP1 ISZERO PUSH2 0xB99 JUMPI PUSH1 0x0 PUSH2 0x13C4 PUSH1 0x1 PUSH1 0x0 PUSH2 0x1ADD JUMP JUMPDEST PUSH1 0x1 PUSH1 0x1 PUSH1 0xA0 SHL SUB DUP1 DUP3 AND PUSH1 0x0 SWAP1 DUP2 MSTORE PUSH1 0x8 PUSH1 0x20 SWAP1 DUP2 MSTORE PUSH1 0x40 DUP1 DUP4 KECCAK256 SLOAD PUSH1 0xC SLOAD DUP2 DUP6 MSTORE PUSH1 0x7 SWAP1 SWAP4 MSTORE DUP2 DUP5 KECCAK256 SLOAD DUP3 MLOAD PUSH4 0x29897547 PUSH1 0xE1 SHL DUP2 MSTORE PUSH1 0x4 DUP2 ADD SWAP2 SWAP1 SWAP2 MSTORE SWAP2 MLOAD SWAP6 SWAP7 POP SWAP5 SWAP2 SWAP1 SWAP4 AND SWAP3 PUSH4 0x5312EA8E SWAP3 PUSH1 0x24 DUP1 DUP4 ADD SWAP4 SWAP2 SWAP3 DUP3 SWAP1 SUB ADD DUP2 DUP4 DUP8 DUP1 EXTCODESIZE ISZERO DUP1 ISZERO PUSH2 0x1432 JUMPI PUSH1 0x0 DUP1 REVERT JUMPDEST POP GAS CALL ISZERO DUP1 ISZERO PUSH2 0x1446 JUMPI RETURNDATASIZE PUSH1 0x0 DUP1 RETURNDATACOPY RETURNDATASIZE PUSH1 0x0 REVERT JUMPDEST POP POP POP POP PUSH2 0x1455 PUSH1 0x1 DUP4 PUSH2 0x2387 JUMP JUMPDEST POP POP POP PUSH1 0x0 NOT ADD PUSH2 0x13B0 JUMP JUMPDEST PUSH1 0x8 PUSH1 0x20 MSTORE PUSH1 0x0 SWAP1 DUP2 MSTORE PUSH1 0x40 SWAP1 KECCAK256 SLOAD DUP2 JUMP JUMPDEST PUSH2 0x147B PUSH2 0x1AD9 JUMP JUMPDEST PUSH1 0x1 PUSH1 0x1 PUSH1 0xA0 SHL SUB AND PUSH2 0x148C PUSH2 0x11E9 JUMP JUMPDEST PUSH1 0x1 PUSH1 0x1 PUSH1 0xA0 SHL SUB AND EQ PUSH2 0x14D5 JUMPI PUSH1 0x40 DUP1 MLOAD PUSH3 0x461BCD PUSH1 0xE5 SHL DUP2 MSTORE PUSH1 0x20 PUSH1 0x4 DUP3 ADD DUP2 SWAP1 MSTORE PUSH1 0x24 DUP3 ADD MSTORE PUSH1 0x0 DUP1 MLOAD PUSH1 0x20 PUSH2 0x35C9 DUP4 CODECOPY DUP2 MLOAD SWAP2 MSTORE PUSH1 0x44 DUP3 ADD MSTORE SWAP1 MLOAD SWAP1 DUP2 SWAP1 SUB PUSH1 0x64 ADD SWAP1 REVERT JUMPDEST PUSH1 0x1 PUSH2 0x14DF PUSH2 0x68A JUMP JUMPDEST SUB DUP3 GT ISZERO PUSH2 0x1529 JUMPI PUSH1 0x40 DUP1 MLOAD PUSH3 0x461BCD PUSH1 0xE5 SHL DUP2 MSTORE PUSH1 0x20 PUSH1 0x4 DUP3 ADD MSTORE PUSH1 0x12 PUSH1 0x24 DUP3 ADD MSTORE PUSH18 0x1B9BDD08199A5B99081D1A1A5CC81C1BDBDB PUSH1 0x72 SHL PUSH1 0x44 DUP3 ADD MSTORE SWAP1 MLOAD SWAP1 DUP2 SWAP1 SUB PUSH1 0x64 ADD SWAP1 REVERT JUMPDEST PUSH1 0x0 SWAP2 DUP3 MSTORE PUSH1 0x7 PUSH1 0x20 MSTORE PUSH1 0x40 SWAP1 SWAP2 KECCAK256 SSTORE JUMP JUMPDEST PUSH2 0x1543 PUSH2 0x1AD9 JUMP JUMPDEST PUSH1 0x1 PUSH1 0x1 PUSH1 0xA0 SHL SUB AND PUSH2 0x1554 PUSH2 0x11E9 JUMP JUMPDEST PUSH1 0x1 PUSH1 0x1 PUSH1 0xA0 SHL SUB AND EQ PUSH2 0x159D JUMPI PUSH1 0x40 DUP1 MLOAD PUSH3 0x461BCD PUSH1 0xE5 SHL DUP2 MSTORE PUSH1 0x20 PUSH1 0x4 DUP3 ADD DUP2 SWAP1 MSTORE PUSH1 0x24 DUP3 ADD MSTORE PUSH1 0x0 DUP1 MLOAD PUSH1 0x20 PUSH2 0x35C9 DUP4 CODECOPY DUP2 MLOAD SWAP2 MSTORE PUSH1 0x44 DUP3 ADD MSTORE SWAP1 MLOAD SWAP1 DUP2 SWAP1 SUB PUSH1 0x64 ADD SWAP1 REVERT JUMPDEST PUSH1 0xE SSTORE JUMP JUMPDEST PUSH1 0x7 PUSH1 0x20 MSTORE PUSH1 0x0 SWAP1 DUP2 MSTORE PUSH1 0x40 SWAP1 KECCAK256 SLOAD DUP2 JUMP JUMPDEST PUSH2 0x15BC PUSH2 0x1AD9 JUMP JUMPDEST PUSH1 0x1 PUSH1 0x1 PUSH1 0xA0 SHL SUB AND PUSH2 0x15CD PUSH2 0x11E9 JUMP JUMPDEST PUSH1 0x1 PUSH1 0x1 PUSH1 0xA0 SHL SUB AND EQ PUSH2 0x1616 JUMPI PUSH1 0x40 DUP1 MLOAD PUSH3 0x461BCD PUSH1 0xE5 SHL DUP2 MSTORE PUSH1 0x20 PUSH1 0x4 DUP3 ADD DUP2 SWAP1 MSTORE PUSH1 0x24 DUP3 ADD MSTORE PUSH1 0x0 DUP1 MLOAD PUSH1 0x20 PUSH2 0x35C9 DUP4 CODECOPY DUP2 MLOAD SWAP2 MSTORE PUSH1 0x44 DUP3 ADD MSTORE SWAP1 MLOAD SWAP1 DUP2 SWAP1 SUB PUSH1 0x64 ADD SWAP1 REVERT JUMPDEST PUSH1 0x9 DUP1 SLOAD PUSH1 0xFF NOT DUP2 AND PUSH1 0xFF SWAP1 SWAP2 AND ISZERO OR SWAP1 SSTORE JUMP JUMPDEST PUSH1 0xC SLOAD PUSH1 0x1 PUSH1 0x1 PUSH1 0xA0 SHL SUB AND DUP2 JUMP JUMPDEST PUSH1 0x9 SLOAD PUSH1 0xFF AND ISZERO PUSH2 0x168D JUMPI PUSH1 0x40 DUP1 MLOAD PUSH3 0x461BCD PUSH1 0xE5 SHL DUP2 MSTORE PUSH1 0x20 PUSH1 0x4 DUP3 ADD MSTORE PUSH1 0x19 PUSH1 0x24 DUP3 ADD MSTORE PUSH25 0x135A5B9A5B99C81A185CC81899595B881CDD5CDC195B991959 PUSH1 0x3A SHL PUSH1 0x44 DUP3 ADD MSTORE SWAP1 MLOAD SWAP1 DUP2 SWAP1 SUB PUSH1 0x64 ADD SWAP1 REVERT JUMPDEST PUSH1 0x0 PUSH1 0x5 DUP4 DUP2 SLOAD DUP2 LT PUSH2 0x169C JUMPI INVALID JUMPDEST PUSH1 0x0 SWAP2 DUP3 MSTORE PUSH1 0x20 SWAP1 SWAP2 KECCAK256 PUSH1 0x6 SWAP1 SWAP2 MUL ADD DUP1 SLOAD SWAP1 SWAP2 POP PUSH2 0x16C3 SWAP1 PUSH1 0x1 PUSH1 0x1 PUSH1 0xA0 SHL SUB AND PUSH2 0x11DC JUMP JUMPDEST ISZERO PUSH2 0x16D3 JUMPI PUSH2 0xB89 DUP4 DUP4 CALLER PUSH2 0x239C JUMP JUMPDEST PUSH2 0xB99 DUP4 DUP4 CALLER PUSH2 0x295E JUMP JUMPDEST PUSH1 0x0 DUP1 PUSH1 0x0 PUSH1 0x5 DUP6 DUP2 SLOAD DUP2 LT PUSH2 0x16F0 JUMPI INVALID JUMPDEST PUSH1 0x0 SWAP2 DUP3 MSTORE PUSH1 0x20 SWAP1 SWAP2 KECCAK256 PUSH1 0x6 SWAP1 SWAP2 MUL ADD DUP1 SLOAD SWAP1 SWAP2 POP PUSH2 0x1717 SWAP1 PUSH1 0x1 PUSH1 0x1 PUSH1 0xA0 SHL SUB AND PUSH2 0x11DC JUMP JUMPDEST ISZERO PUSH2 0x1737 JUMPI PUSH1 0x0 DUP1 PUSH2 0x1729 DUP8 DUP8 PUSH2 0x2AAF JUMP JUMPDEST SWAP1 SWAP6 POP SWAP4 POP PUSH2 0x1751 SWAP3 POP POP POP JUMP JUMPDEST PUSH1 0x0 PUSH2 0x1743 DUP7 DUP7 PUSH2 0x2CF2 JUMP JUMPDEST SWAP4 POP PUSH1 0x0 SWAP3 POP PUSH2 0x1751 SWAP2 POP POP JUMP JUMPDEST SWAP3 POP SWAP3 SWAP1 POP JUMP JUMPDEST PUSH1 0x0 PUSH2 0x1764 PUSH1 0x1 PUSH2 0x2E8E JUMP JUMPDEST SWAP1 POP SWAP1 JUMP JUMPDEST PUSH2 0x1771 PUSH2 0x1AD9 JUMP JUMPDEST PUSH1 0x1 PUSH1 0x1 PUSH1 0xA0 SHL SUB AND PUSH2 0x1782 PUSH2 0x11E9 JUMP JUMPDEST PUSH1 0x1 PUSH1 0x1 PUSH1 0xA0 SHL SUB AND EQ PUSH2 0x17CB JUMPI PUSH1 0x40 DUP1 MLOAD PUSH3 0x461BCD PUSH1 0xE5 SHL DUP2 MSTORE PUSH1 0x20 PUSH1 0x4 DUP3 ADD DUP2 SWAP1 MSTORE PUSH1 0x24 DUP3 ADD MSTORE PUSH1 0x0 DUP1 MLOAD PUSH1 0x20 PUSH2 0x35C9 DUP4 CODECOPY DUP2 MLOAD SWAP2 MSTORE PUSH1 0x44 DUP3 ADD MSTORE SWAP1 MLOAD SWAP1 DUP2 SWAP1 SUB PUSH1 0x64 ADD SWAP1 REVERT JUMPDEST PUSH1 0x1 PUSH1 0x1 PUSH1 0xA0 SHL SUB DUP3 AND ISZERO DUP1 ISZERO SWAP1 PUSH2 0x17EB JUMPI POP PUSH1 0x1 PUSH1 0x1 PUSH1 0xA0 SHL SUB DUP2 AND ISZERO ISZERO JUMPDEST PUSH2 0x1832 JUMPI PUSH1 0x40 DUP1 MLOAD PUSH3 0x461BCD PUSH1 0xE5 SHL DUP2 MSTORE PUSH1 0x20 PUSH1 0x4 DUP3 ADD MSTORE PUSH1 0x13 PUSH1 0x24 DUP3 ADD MSTORE PUSH19 0x697320746865207A65726F2061646472657373 PUSH1 0x68 SHL PUSH1 0x44 DUP3 ADD MSTORE SWAP1 MLOAD SWAP1 DUP2 SWAP1 SUB PUSH1 0x64 ADD SWAP1 REVERT JUMPDEST PUSH1 0xD DUP1 SLOAD PUSH1 0x1 PUSH1 0x1 PUSH1 0xA0 SHL SUB SWAP4 DUP5 AND PUSH1 0x1 PUSH1 0x1 PUSH1 0xA0 SHL SUB NOT SWAP2 DUP3 AND OR SWAP1 SWAP2 SSTORE PUSH1 0xC DUP1 SLOAD SWAP3 SWAP1 SWAP4 AND SWAP2 AND OR SWAP1 SSTORE JUMP JUMPDEST PUSH2 0x1868 PUSH2 0x1AD9 JUMP JUMPDEST PUSH1 0x1 PUSH1 0x1 PUSH1 0xA0 SHL SUB AND PUSH2 0x1879 PUSH2 0x11E9 JUMP JUMPDEST PUSH1 0x1 PUSH1 0x1 PUSH1 0xA0 SHL SUB AND EQ PUSH2 0x18C2 JUMPI PUSH1 0x40 DUP1 MLOAD PUSH3 0x461BCD PUSH1 0xE5 SHL DUP2 MSTORE PUSH1 0x20 PUSH1 0x4 DUP3 ADD DUP2 SWAP1 MSTORE PUSH1 0x24 DUP3 ADD MSTORE PUSH1 0x0 DUP1 MLOAD PUSH1 0x20 PUSH2 0x35C9 DUP4 CODECOPY DUP2 MLOAD SWAP2 MSTORE PUSH1 0x44 DUP3 ADD MSTORE SWAP1 MLOAD SWAP1 DUP2 SWAP1 SUB PUSH1 0x64 ADD SWAP1 REVERT JUMPDEST PUSH1 0x1 PUSH1 0x1 PUSH1 0xA0 SHL SUB DUP2 AND PUSH2 0x1907 JUMPI PUSH1 0x40 MLOAD PUSH3 0x461BCD PUSH1 0xE5 SHL DUP2 MSTORE PUSH1 0x4 ADD DUP1 DUP1 PUSH1 0x20 ADD DUP3 DUP2 SUB DUP3 MSTORE PUSH1 0x26 DUP2 MSTORE PUSH1 0x20 ADD DUP1 PUSH2 0x355C PUSH1 0x26 SWAP2 CODECOPY PUSH1 0x40 ADD SWAP2 POP POP PUSH1 0x40 MLOAD DUP1 SWAP2 SUB SWAP1 REVERT JUMPDEST PUSH1 0x0 DUP1 SLOAD PUSH1 0x40 MLOAD PUSH1 0x1 PUSH1 0x1 PUSH1 0xA0 SHL SUB DUP1 DUP6 AND SWAP4 SWAP3 AND SWAP2 PUSH32 0x8BE0079C531659141344CD1FD0A4F28419497F9722A3DAAFE3B4186F6B6457E0 SWAP2 LOG3 PUSH1 0x0 DUP1 SLOAD PUSH1 0x1 PUSH1 0x1 PUSH1 0xA0 SHL SUB NOT AND PUSH1 0x1 PUSH1 0x1 PUSH1 0xA0 SHL SUB SWAP3 SWAP1 SWAP3 AND SWAP2 SWAP1 SWAP2 OR SWAP1 SSTORE JUMP JUMPDEST PUSH1 0x0 DUP3 DUP3 GT ISZERO PUSH2 0x19B9 JUMPI PUSH1 0x40 DUP1 MLOAD PUSH3 0x461BCD PUSH1 0xE5 SHL DUP2 MSTORE PUSH1 0x20 PUSH1 0x4 DUP3 ADD MSTORE PUSH1 0x1E PUSH1 0x24 DUP3 ADD MSTORE PUSH32 0x536166654D6174683A207375627472616374696F6E206F766572666C6F770000 PUSH1 0x44 DUP3 ADD MSTORE SWAP1 MLOAD SWAP1 DUP2 SWAP1 SUB PUSH1 0x64 ADD SWAP1 REVERT JUMPDEST POP SWAP1 SUB SWAP1 JUMP JUMPDEST PUSH1 0x0 DUP1 DUP3 GT PUSH2 0x1A15 JUMPI PUSH1 0x40 DUP1 MLOAD PUSH3 0x461BCD PUSH1 0xE5 SHL DUP2 MSTORE PUSH1 0x20 PUSH1 0x4 DUP3 ADD MSTORE PUSH1 0x1A PUSH1 0x24 DUP3 ADD MSTORE PUSH32 0x536166654D6174683A206469766973696F6E206279207A65726F000000000000 PUSH1 0x44 DUP3 ADD MSTORE SWAP1 MLOAD SWAP1 DUP2 SWAP1 SUB PUSH1 0x64 ADD SWAP1 REVERT JUMPDEST DUP2 DUP4 DUP2 PUSH2 0x1A1E JUMPI INVALID JUMPDEST DIV SWAP4 SWAP3 POP POP POP JUMP JUMPDEST PUSH1 0x0 DUP3 PUSH2 0x1A35 JUMPI POP PUSH1 0x0 PUSH2 0xAE9 JUMP JUMPDEST DUP3 DUP3 MUL DUP3 DUP5 DUP3 DUP2 PUSH2 0x1A42 JUMPI INVALID JUMPDEST DIV EQ PUSH2 0x1250 JUMPI PUSH1 0x40 MLOAD PUSH3 0x461BCD PUSH1 0xE5 SHL DUP2 MSTORE PUSH1 0x4 ADD DUP1 DUP1 PUSH1 0x20 ADD DUP3 DUP2 SUB DUP3 MSTORE PUSH1 0x21 DUP2 MSTORE PUSH1 0x20 ADD DUP1 PUSH2 0x35A8 PUSH1 0x21 SWAP2 CODECOPY PUSH1 0x40 ADD SWAP2 POP POP PUSH1 0x40 MLOAD DUP1 SWAP2 SUB SWAP1 REVERT JUMPDEST PUSH1 0x0 DUP3 DUP3 ADD DUP4 DUP2 LT ISZERO PUSH2 0x1250 JUMPI PUSH1 0x40 DUP1 MLOAD PUSH3 0x461BCD PUSH1 0xE5 SHL DUP2 MSTORE PUSH1 0x20 PUSH1 0x4 DUP3 ADD MSTORE PUSH1 0x1B PUSH1 0x24 DUP3 ADD MSTORE PUSH32 0x536166654D6174683A206164646974696F6E206F766572666C6F770000000000 PUSH1 0x44 DUP3 ADD MSTORE SWAP1 MLOAD SWAP1 DUP2 SWAP1 SUB PUSH1 0x64 ADD SWAP1 REVERT JUMPDEST CALLER SWAP1 JUMP JUMPDEST PUSH1 0x0 PUSH2 0x1250 DUP4 DUP4 PUSH2 0x2E99 JUMP JUMPDEST PUSH1 0x0 PUSH1 0x5 DUP5 DUP2 SLOAD DUP2 LT PUSH2 0x1AF8 JUMPI INVALID JUMPDEST PUSH1 0x0 SWAP2 DUP3 MSTORE PUSH1 0x20 DUP1 DUP4 KECCAK256 DUP8 DUP5 MSTORE PUSH1 0x6 DUP1 DUP4 MSTORE PUSH1 0x40 DUP1 DUP7 KECCAK256 PUSH1 0x1 PUSH1 0x1 PUSH1 0xA0 SHL SUB DUP10 AND DUP8 MSTORE SWAP1 SWAP4 MSTORE SWAP2 SWAP1 SWAP4 KECCAK256 DUP1 SLOAD SWAP3 SWAP1 SWAP2 MUL SWAP1 SWAP3 ADD SWAP3 POP DUP5 GT ISZERO PUSH2 0x1B81 JUMPI PUSH1 0x40 DUP1 MLOAD PUSH3 0x461BCD PUSH1 0xE5 SHL DUP2 MSTORE PUSH1 0x20 PUSH1 0x4 DUP3 ADD MSTORE PUSH1 0x1D PUSH1 0x24 DUP3 ADD MSTORE PUSH32 0x77697468647261774D6478416E64546F6B656E3A206E6F7420676F6F64000000 PUSH1 0x44 DUP3 ADD MSTORE SWAP1 MLOAD SWAP1 DUP2 SWAP1 SUB PUSH1 0x64 ADD SWAP1 REVERT JUMPDEST PUSH2 0x1B8A DUP6 PUSH2 0xBA4 JUMP JUMPDEST PUSH1 0x0 PUSH2 0x1BB8 DUP3 PUSH1 0x1 ADD SLOAD PUSH2 0x6CF PUSH5 0xE8D4A51000 PUSH2 0x6DB DUP8 PUSH1 0x3 ADD SLOAD DUP8 PUSH1 0x0 ADD SLOAD PUSH2 0x1A26 SWAP1 SWAP2 SWAP1 PUSH4 0xFFFFFFFF AND JUMP JUMPDEST SWAP1 POP DUP1 ISZERO PUSH2 0x1BCA JUMPI PUSH2 0x1BCA DUP5 DUP3 PUSH2 0x2EFD JUMP JUMPDEST DUP5 ISZERO PUSH2 0x1E17 JUMPI PUSH1 0xD SLOAD PUSH1 0x40 DUP1 MLOAD PUSH4 0x70A08231 PUSH1 0xE0 SHL DUP2 MSTORE ADDRESS PUSH1 0x4 DUP3 ADD MSTORE SWAP1 MLOAD PUSH1 0x0 SWAP3 PUSH1 0x1 PUSH1 0x1 PUSH1 0xA0 SHL SUB AND SWAP2 PUSH4 0x70A08231 SWAP2 PUSH1 0x24 DUP1 DUP4 ADD SWAP3 PUSH1 0x20 SWAP3 SWAP2 SWAP1 DUP3 SWAP1 SUB ADD DUP2 DUP7 DUP1 EXTCODESIZE ISZERO DUP1 ISZERO PUSH2 0x1C1B JUMPI PUSH1 0x0 DUP1 REVERT JUMPDEST POP GAS STATICCALL ISZERO DUP1 ISZERO PUSH2 0x1C2F JUMPI RETURNDATASIZE PUSH1 0x0 DUP1 RETURNDATACOPY RETURNDATASIZE PUSH1 0x0 REVERT JUMPDEST POP POP POP POP PUSH1 0x40 MLOAD RETURNDATASIZE PUSH1 0x20 DUP2 LT ISZERO PUSH2 0x1C45 JUMPI PUSH1 0x0 DUP1 REVERT JUMPDEST POP MLOAD PUSH1 0xC SLOAD PUSH1 0x0 DUP10 DUP2 MSTORE PUSH1 0x7 PUSH1 0x20 MSTORE PUSH1 0x40 DUP1 DUP3 KECCAK256 SLOAD DUP2 MLOAD PUSH4 0x441A3E7 PUSH1 0xE4 SHL DUP2 MSTORE PUSH1 0x4 DUP2 ADD SWAP2 SWAP1 SWAP2 MSTORE PUSH1 0x24 DUP2 ADD DUP12 SWAP1 MSTORE SWAP1 MLOAD SWAP4 SWAP5 POP PUSH1 0x1 PUSH1 0x1 PUSH1 0xA0 SHL SUB SWAP1 SWAP3 AND SWAP3 PUSH4 0x441A3E70 SWAP3 PUSH1 0x44 DUP1 DUP3 ADD SWAP4 SWAP3 SWAP2 DUP3 SWAP1 SUB ADD DUP2 DUP4 DUP8 DUP1 EXTCODESIZE ISZERO DUP1 ISZERO PUSH2 0x1CA9 JUMPI PUSH1 0x0 DUP1 REVERT JUMPDEST POP GAS CALL ISZERO DUP1 ISZERO PUSH2 0x1CBD JUMPI RETURNDATASIZE PUSH1 0x0 DUP1 RETURNDATACOPY RETURNDATASIZE PUSH1 0x0 REVERT JUMPDEST POP POP PUSH1 0xD SLOAD PUSH1 0x40 DUP1 MLOAD PUSH4 0x70A08231 PUSH1 0xE0 SHL DUP2 MSTORE ADDRESS PUSH1 0x4 DUP3 ADD MSTORE SWAP1 MLOAD PUSH1 0x0 SWAP5 POP PUSH1 0x1 PUSH1 0x1 PUSH1 0xA0 SHL SUB SWAP1 SWAP3 AND SWAP3 POP PUSH4 0x70A08231 SWAP2 PUSH1 0x24 DUP1 DUP4 ADD SWAP3 PUSH1 0x20 SWAP3 SWAP2 SWAP1 DUP3 SWAP1 SUB ADD DUP2 DUP7 DUP1 EXTCODESIZE ISZERO DUP1 ISZERO PUSH2 0x1D0E JUMPI PUSH1 0x0 DUP1 REVERT JUMPDEST POP GAS STATICCALL ISZERO DUP1 ISZERO PUSH2 0x1D22 JUMPI RETURNDATASIZE PUSH1 0x0 DUP1 RETURNDATACOPY RETURNDATASIZE PUSH1 0x0 REVERT JUMPDEST POP POP POP POP PUSH1 0x40 MLOAD RETURNDATASIZE PUSH1 0x20 DUP2 LT ISZERO PUSH2 0x1D38 JUMPI PUSH1 0x0 DUP1 REVERT JUMPDEST POP MLOAD PUSH1 0x5 DUP7 ADD SLOAD SWAP1 SWAP2 POP PUSH2 0x1D74 SWAP1 PUSH2 0x1D63 SWAP1 PUSH2 0x6DB PUSH5 0xE8D4A51000 PUSH2 0x7C0 DUP7 DUP9 PUSH4 0xFFFFFFFF PUSH2 0x1962 AND JUMP JUMPDEST PUSH1 0x4 DUP8 ADD SLOAD SWAP1 PUSH4 0xFFFFFFFF PUSH2 0x1A7F AND JUMP JUMPDEST PUSH1 0x4 DUP7 ADD DUP2 SWAP1 SSTORE PUSH1 0x2 DUP6 ADD SLOAD DUP6 SLOAD PUSH1 0x0 SWAP3 PUSH2 0x1DA4 SWAP3 SWAP2 PUSH2 0x6CF SWAP2 PUSH5 0xE8D4A51000 SWAP2 PUSH2 0x6DB SWAP2 PUSH4 0xFFFFFFFF PUSH2 0x1A26 AND JUMP JUMPDEST SWAP1 POP DUP1 ISZERO PUSH2 0x1DC9 JUMPI PUSH1 0xD SLOAD PUSH2 0x1DC9 SWAP1 PUSH1 0x1 PUSH1 0x1 PUSH1 0xA0 SHL SUB AND DUP9 DUP4 PUSH4 0xFFFFFFFF PUSH2 0x308D AND JUMP JUMPDEST DUP5 SLOAD PUSH2 0x1DDB SWAP1 DUP10 PUSH4 0xFFFFFFFF PUSH2 0x1962 AND JUMP JUMPDEST DUP6 SSTORE PUSH1 0x5 DUP7 ADD SLOAD PUSH2 0x1DF2 SWAP1 DUP10 PUSH4 0xFFFFFFFF PUSH2 0x1962 AND JUMP JUMPDEST PUSH1 0x5 DUP8 ADD SSTORE DUP6 SLOAD PUSH2 0x1E13 SWAP1 PUSH1 0x1 PUSH1 0x1 PUSH1 0xA0 SHL SUB AND DUP9 DUP11 PUSH4 0xFFFFFFFF PUSH2 0x308D AND JUMP JUMPDEST POP POP POP JUMPDEST PUSH1 0x3 DUP4 ADD SLOAD DUP3 SLOAD PUSH2 0x1E38 SWAP2 PUSH5 0xE8D4A51000 SWAP2 PUSH2 0x6DB SWAP2 PUSH4 0xFFFFFFFF PUSH2 0x1A26 AND JUMP JUMPDEST PUSH1 0x1 DUP4 ADD SSTORE PUSH1 0x4 DUP4 ADD SLOAD DUP3 SLOAD PUSH2 0x1E5E SWAP2 PUSH5 0xE8D4A51000 SWAP2 PUSH2 0x6DB SWAP2 PUSH4 0xFFFFFFFF PUSH2 0x1A26 AND JUMP JUMPDEST PUSH1 0x2 DUP4 ADD SSTORE PUSH1 0x40 DUP1 MLOAD DUP7 DUP2 MSTORE SWAP1 MLOAD DUP8 SWAP2 PUSH1 0x1 PUSH1 0x1 PUSH1 0xA0 SHL SUB DUP8 AND SWAP2 PUSH32 0xF279E6A1F5E320CCA91135676D9CB6E44CA8A08C0B88342BCDB1144F6511B568 SWAP2 DUP2 SWAP1 SUB PUSH1 0x20 ADD SWAP1 LOG3 POP POP POP POP POP POP JUMP JUMPDEST PUSH1 0x0 PUSH1 0x5 DUP5 DUP2 SLOAD DUP2 LT PUSH2 0x1EBA JUMPI INVALID JUMPDEST PUSH1 0x0 SWAP2 DUP3 MSTORE PUSH1 0x20 DUP1 DUP4 KECCAK256 DUP8 DUP5 MSTORE PUSH1 0x6 DUP1 DUP4 MSTORE PUSH1 0x40 DUP1 DUP7 KECCAK256 PUSH1 0x1 PUSH1 0x1 PUSH1 0xA0 SHL SUB DUP10 AND DUP8 MSTORE SWAP1 SWAP4 MSTORE SWAP2 SWAP1 SWAP4 KECCAK256 DUP1 SLOAD SWAP3 SWAP1 SWAP2 MUL SWAP1 SWAP3 ADD SWAP3 POP DUP5 GT ISZERO PUSH2 0x1F3B JUMPI PUSH1 0x40 DUP1 MLOAD PUSH3 0x461BCD PUSH1 0xE5 SHL DUP2 MSTORE PUSH1 0x20 PUSH1 0x4 DUP3 ADD MSTORE PUSH1 0x15 PUSH1 0x24 DUP3 ADD MSTORE PUSH21 0x1DDA5D1A191C985DD3591E0E881B9BDD0819DBDBD9 PUSH1 0x5A SHL PUSH1 0x44 DUP3 ADD MSTORE SWAP1 MLOAD SWAP1 DUP2 SWAP1 SUB PUSH1 0x64 ADD SWAP1 REVERT JUMPDEST PUSH2 0x1F44 DUP6 PUSH2 0xBA4 JUMP JUMPDEST PUSH1 0x0 PUSH2 0x1F72 DUP3 PUSH1 0x1 ADD SLOAD PUSH2 0x6CF PUSH5 0xE8D4A51000 PUSH2 0x6DB DUP8 PUSH1 0x3 ADD SLOAD DUP8 PUSH1 0x0 ADD SLOAD PUSH2 0x1A26 SWAP1 SWAP2 SWAP1 PUSH4 0xFFFFFFFF AND JUMP JUMPDEST SWAP1 POP DUP1 ISZERO PUSH2 0x1F84 JUMPI PUSH2 0x1F84 DUP5 DUP3 PUSH2 0x2EFD JUMP JUMPDEST DUP5 ISZERO PUSH2 0x1FD4 JUMPI DUP2 SLOAD PUSH2 0x1F9C SWAP1 DUP7 PUSH4 0xFFFFFFFF PUSH2 0x1962 AND JUMP JUMPDEST DUP3 SSTORE PUSH1 0x5 DUP4 ADD SLOAD PUSH2 0x1FB3 SWAP1 DUP7 PUSH4 0xFFFFFFFF PUSH2 0x1962 AND JUMP JUMPDEST PUSH1 0x5 DUP5 ADD SSTORE DUP3 SLOAD PUSH2 0x1FD4 SWAP1 PUSH1 0x1 PUSH1 0x1 PUSH1 0xA0 SHL SUB AND DUP6 DUP8 PUSH4 0xFFFFFFFF PUSH2 0x308D AND JUMP JUMPDEST PUSH1 0x3 DUP4 ADD SLOAD DUP3 SLOAD PUSH2 0x1FF5 SWAP2 PUSH5 0xE8D4A51000 SWAP2 PUSH2 0x6DB SWAP2 PUSH4 0xFFFFFFFF PUSH2 0x1A26 AND JUMP JUMPDEST PUSH1 0x1 DUP4 ADD SSTORE PUSH1 0x40 DUP1 MLOAD DUP7 DUP2 MSTORE SWAP1 MLOAD DUP8 SWAP2 PUSH1 0x1 PUSH1 0x1 PUSH1 0xA0 SHL SUB DUP8 AND SWAP2 PUSH32 0xF279E6A1F5E320CCA91135676D9CB6E44CA8A08C0B88342BCDB1144F6511B568 SWAP2 DUP2 SWAP1 SUB PUSH1 0x20 ADD SWAP1 LOG3 POP POP POP POP POP POP JUMP JUMPDEST PUSH1 0x0 PUSH1 0x5 DUP4 DUP2 SLOAD DUP2 LT PUSH2 0x2051 JUMPI INVALID JUMPDEST PUSH1 0x0 SWAP2 DUP3 MSTORE PUSH1 0x20 DUP1 DUP4 KECCAK256 DUP7 DUP5 MSTORE PUSH1 0x6 DUP1 DUP4 MSTORE PUSH1 0x40 DUP1 DUP7 KECCAK256 PUSH1 0x1 PUSH1 0x1 PUSH1 0xA0 SHL SUB DUP1 DUP11 AND DUP9 MSTORE SWAP1 DUP6 MSTORE DUP2 DUP8 KECCAK256 DUP1 SLOAD PUSH1 0xD SLOAD DUP5 MLOAD PUSH4 0x70A08231 PUSH1 0xE0 SHL DUP2 MSTORE ADDRESS PUSH1 0x4 DUP3 ADD MSTORE SWAP5 MLOAD SWAP6 SWAP1 SWAP9 MUL SWAP1 SWAP6 ADD SWAP9 POP SWAP7 SWAP4 SWAP6 SWAP4 SWAP5 SWAP4 AND SWAP3 PUSH4 0x70A08231 SWAP3 PUSH1 0x24 DUP1 DUP5 ADD SWAP4 DUP3 SWAP1 SUB ADD DUP2 DUP7 DUP1 EXTCODESIZE ISZERO DUP1 ISZERO PUSH2 0x20C5 JUMPI PUSH1 0x0 DUP1 REVERT JUMPDEST POP GAS STATICCALL ISZERO DUP1 ISZERO PUSH2 0x20D9 JUMPI RETURNDATASIZE PUSH1 0x0 DUP1 RETURNDATACOPY RETURNDATASIZE PUSH1 0x0 REVERT JUMPDEST POP POP POP POP PUSH1 0x40 MLOAD RETURNDATASIZE PUSH1 0x20 DUP2 LT ISZERO PUSH2 0x20EF JUMPI PUSH1 0x0 DUP1 REVERT JUMPDEST POP MLOAD PUSH1 0xC SLOAD PUSH1 0x0 DUP9 DUP2 MSTORE PUSH1 0x7 PUSH1 0x20 MSTORE PUSH1 0x40 DUP1 DUP3 KECCAK256 SLOAD DUP2 MLOAD PUSH4 0x441A3E7 PUSH1 0xE4 SHL DUP2 MSTORE PUSH1 0x4 DUP2 ADD SWAP2 SWAP1 SWAP2 MSTORE PUSH1 0x24 DUP2 ADD DUP8 SWAP1 MSTORE SWAP1 MLOAD SWAP4 SWAP5 POP PUSH1 0x1 PUSH1 0x1 PUSH1 0xA0 SHL SUB SWAP1 SWAP3 AND SWAP3 PUSH4 0x441A3E70 SWAP3 PUSH1 0x44 DUP1 DUP3 ADD SWAP4 SWAP3 SWAP2 DUP3 SWAP1 SUB ADD DUP2 DUP4 DUP8 DUP1 EXTCODESIZE ISZERO DUP1 ISZERO PUSH2 0x2153 JUMPI PUSH1 0x0 DUP1 REVERT JUMPDEST POP GAS CALL ISZERO DUP1 ISZERO PUSH2 0x2167 JUMPI RETURNDATASIZE PUSH1 0x0 DUP1 RETURNDATACOPY RETURNDATASIZE PUSH1 0x0 REVERT JUMPDEST POP POP PUSH1 0xD SLOAD PUSH1 0x40 DUP1 MLOAD PUSH4 0x70A08231 PUSH1 0xE0 SHL DUP2 MSTORE ADDRESS PUSH1 0x4 DUP3 ADD MSTORE SWAP1 MLOAD PUSH1 0x0 SWAP5 POP PUSH1 0x1 PUSH1 0x1 PUSH1 0xA0 SHL SUB SWAP1 SWAP3 AND SWAP3 POP PUSH4 0x70A08231 SWAP2 PUSH1 0x24 DUP1 DUP4 ADD SWAP3 PUSH1 0x20 SWAP3 SWAP2 SWAP1 DUP3 SWAP1 SUB ADD DUP2 DUP7 DUP1 EXTCODESIZE ISZERO DUP1 ISZERO PUSH2 0x21B8 JUMPI PUSH1 0x0 DUP1 REVERT JUMPDEST POP GAS STATICCALL ISZERO DUP1 ISZERO PUSH2 0x21CC JUMPI RETURNDATASIZE PUSH1 0x0 DUP1 RETURNDATACOPY RETURNDATASIZE PUSH1 0x0 REVERT JUMPDEST POP POP POP POP PUSH1 0x40 MLOAD RETURNDATASIZE PUSH1 0x20 DUP2 LT ISZERO PUSH2 0x21E2 JUMPI PUSH1 0x0 DUP1 REVERT JUMPDEST POP MLOAD PUSH1 0x5 DUP7 ADD SLOAD SWAP1 SWAP2 POP PUSH2 0x220D SWAP1 PUSH2 0x1D63 SWAP1 PUSH2 0x6DB PUSH5 0xE8D4A51000 PUSH2 0x7C0 DUP7 DUP9 PUSH4 0xFFFFFFFF PUSH2 0x1962 AND JUMP JUMPDEST PUSH1 0x4 DUP7 ADD SSTORE PUSH1 0x0 DUP1 DUP6 SSTORE PUSH1 0x1 DUP6 ADD SSTORE DUP5 SLOAD PUSH2 0x2238 SWAP1 PUSH1 0x1 PUSH1 0x1 PUSH1 0xA0 SHL SUB AND DUP8 DUP6 PUSH4 0xFFFFFFFF PUSH2 0x308D AND JUMP JUMPDEST PUSH1 0x5 DUP6 ADD SLOAD PUSH2 0x224D SWAP1 DUP5 PUSH4 0xFFFFFFFF PUSH2 0x1962 AND JUMP JUMPDEST PUSH1 0x5 DUP7 ADD SSTORE PUSH1 0x40 DUP1 MLOAD DUP5 DUP2 MSTORE SWAP1 MLOAD DUP9 SWAP2 PUSH1 0x1 PUSH1 0x1 PUSH1 0xA0 SHL SUB DUP10 AND SWAP2 PUSH32 0xBB757047C2B5F3974FE26B7C10F732E7BCE710B0952A71082702781E62AE0595 SWAP2 DUP2 SWAP1 SUB PUSH1 0x20 ADD SWAP1 LOG3 POP POP POP POP POP POP POP JUMP JUMPDEST PUSH1 0x0 PUSH1 0x5 DUP4 DUP2 SLOAD DUP2 LT PUSH2 0x22AA JUMPI INVALID JUMPDEST PUSH1 0x0 SWAP2 DUP3 MSTORE PUSH1 0x20 DUP1 DUP4 KECCAK256 DUP7 DUP5 MSTORE PUSH1 0x6 DUP1 DUP4 MSTORE PUSH1 0x40 DUP1 DUP7 KECCAK256 PUSH1 0x1 PUSH1 0x1 PUSH1 0xA0 SHL SUB DUP1 DUP11 AND DUP9 MSTORE SWAP5 MSTORE DUP6 KECCAK256 DUP1 SLOAD DUP7 DUP3 SSTORE PUSH1 0x1 DUP3 ADD SWAP7 SWAP1 SWAP7 SSTORE SWAP4 MUL ADD DUP1 SLOAD SWAP1 SWAP5 POP SWAP2 SWAP3 SWAP2 PUSH2 0x22FC SWAP2 AND DUP6 DUP4 PUSH4 0xFFFFFFFF PUSH2 0x308D AND JUMP JUMPDEST PUSH1 0x5 DUP4 ADD SLOAD PUSH2 0x2311 SWAP1 DUP3 PUSH4 0xFFFFFFFF PUSH2 0x1962 AND JUMP JUMPDEST PUSH1 0x5 DUP5 ADD SSTORE PUSH1 0x40 DUP1 MLOAD DUP3 DUP2 MSTORE SWAP1 MLOAD DUP7 SWAP2 PUSH1 0x1 PUSH1 0x1 PUSH1 0xA0 SHL SUB DUP8 AND SWAP2 PUSH32 0xBB757047C2B5F3974FE26B7C10F732E7BCE710B0952A71082702781E62AE0595 SWAP2 DUP2 SWAP1 SUB PUSH1 0x20 ADD SWAP1 LOG3 POP POP POP POP POP JUMP JUMPDEST PUSH1 0x0 PUSH2 0x1250 DUP4 PUSH1 0x1 PUSH1 0x1 PUSH1 0xA0 SHL SUB DUP5 AND PUSH2 0x30DF JUMP JUMPDEST PUSH1 0x0 PUSH2 0x1250 DUP4 PUSH1 0x1 PUSH1 0x1 PUSH1 0xA0 SHL SUB DUP5 AND PUSH2 0x3129 JUMP JUMPDEST PUSH1 0x0 PUSH2 0x1250 DUP4 PUSH1 0x1 PUSH1 0x1 PUSH1 0xA0 SHL SUB DUP5 AND PUSH2 0x3141 JUMP JUMPDEST PUSH1 0x0 PUSH1 0x5 DUP5 DUP2 SLOAD DUP2 LT PUSH2 0x23AB JUMPI INVALID JUMPDEST PUSH1 0x0 SWAP2 DUP3 MSTORE PUSH1 0x20 DUP1 DUP4 KECCAK256 DUP8 DUP5 MSTORE PUSH1 0x6 DUP1 DUP4 MSTORE PUSH1 0x40 DUP1 DUP7 KECCAK256 PUSH1 0x1 PUSH1 0x1 PUSH1 0xA0 SHL SUB DUP10 AND DUP8 MSTORE SWAP1 SWAP4 MSTORE SWAP2 SWAP1 SWAP4 KECCAK256 SWAP2 MUL SWAP1 SWAP2 ADD SWAP2 POP PUSH2 0x23E5 DUP6 PUSH2 0xBA4 JUMP JUMPDEST DUP1 SLOAD ISZERO PUSH2 0x2619 JUMPI PUSH1 0x0 PUSH2 0x241A DUP3 PUSH1 0x1 ADD SLOAD PUSH2 0x6CF PUSH5 0xE8D4A51000 PUSH2 0x6DB DUP8 PUSH1 0x3 ADD SLOAD DUP8 PUSH1 0x0 ADD SLOAD PUSH2 0x1A26 SWAP1 SWAP2 SWAP1 PUSH4 0xFFFFFFFF AND JUMP JUMPDEST SWAP1 POP DUP1 ISZERO PUSH2 0x242C JUMPI PUSH2 0x242C DUP5 DUP3 PUSH2 0x2EFD JUMP JUMPDEST PUSH1 0xD SLOAD PUSH1 0x40 DUP1 MLOAD PUSH4 0x70A08231 PUSH1 0xE0 SHL DUP2 MSTORE ADDRESS PUSH1 0x4 DUP3 ADD MSTORE SWAP1 MLOAD PUSH1 0x0 SWAP3 PUSH1 0x1 PUSH1 0x1 PUSH1 0xA0 SHL SUB AND SWAP2 PUSH4 0x70A08231 SWAP2 PUSH1 0x24 DUP1 DUP4 ADD SWAP3 PUSH1 0x20 SWAP3 SWAP2 SWAP1 DUP3 SWAP1 SUB ADD DUP2 DUP7 DUP1 EXTCODESIZE ISZERO DUP1 ISZERO PUSH2 0x2477 JUMPI PUSH1 0x0 DUP1 REVERT JUMPDEST POP GAS STATICCALL ISZERO DUP1 ISZERO PUSH2 0x248B JUMPI RETURNDATASIZE PUSH1 0x0 DUP1 RETURNDATACOPY RETURNDATASIZE PUSH1 0x0 REVERT JUMPDEST POP POP POP POP PUSH1 0x40 MLOAD RETURNDATASIZE PUSH1 0x20 DUP2 LT ISZERO PUSH2 0x24A1 JUMPI PUSH1 0x0 DUP1 REVERT JUMPDEST POP MLOAD PUSH1 0xC SLOAD PUSH1 0x0 DUP10 DUP2 MSTORE PUSH1 0x7 PUSH1 0x20 MSTORE PUSH1 0x40 DUP1 DUP3 KECCAK256 SLOAD DUP2 MLOAD PUSH4 0x1C57762B PUSH1 0xE3 SHL DUP2 MSTORE PUSH1 0x4 DUP2 ADD SWAP2 SWAP1 SWAP2 MSTORE PUSH1 0x24 DUP2 ADD DUP4 SWAP1 MSTORE SWAP1 MLOAD SWAP4 SWAP5 POP PUSH1 0x1 PUSH1 0x1 PUSH1 0xA0 SHL SUB SWAP1 SWAP3 AND SWAP3 PUSH4 0xE2BBB158 SWAP3 PUSH1 0x44 DUP1 DUP3 ADD SWAP4 SWAP3 SWAP2 DUP3 SWAP1 SUB ADD DUP2 DUP4 DUP8 DUP1 EXTCODESIZE ISZERO DUP1 ISZERO PUSH2 0x2505 JUMPI PUSH1 0x0 DUP1 REVERT JUMPDEST POP GAS CALL ISZERO DUP1 ISZERO PUSH2 0x2519 JUMPI RETURNDATASIZE PUSH1 0x0 DUP1 RETURNDATACOPY RETURNDATASIZE PUSH1 0x0 REVERT JUMPDEST POP POP PUSH1 0xD SLOAD PUSH1 0x40 DUP1 MLOAD PUSH4 0x70A08231 PUSH1 0xE0 SHL DUP2 MSTORE ADDRESS PUSH1 0x4 DUP3 ADD MSTORE SWAP1 MLOAD PUSH1 0x0 SWAP5 POP PUSH1 0x1 PUSH1 0x1 PUSH1 0xA0 SHL SUB SWAP1 SWAP3 AND SWAP3 POP PUSH4 0x70A08231 SWAP2 PUSH1 0x24 DUP1 DUP4 ADD SWAP3 PUSH1 0x20 SWAP3 SWAP2 SWAP1 DUP3 SWAP1 SUB ADD DUP2 DUP7 DUP1 EXTCODESIZE ISZERO DUP1 ISZERO PUSH2 0x256A JUMPI PUSH1 0x0 DUP1 REVERT JUMPDEST POP GAS STATICCALL ISZERO DUP1 ISZERO PUSH2 0x257E JUMPI RETURNDATASIZE PUSH1 0x0 DUP1 RETURNDATACOPY RETURNDATASIZE PUSH1 0x0 REVERT JUMPDEST POP POP POP POP PUSH1 0x40 MLOAD RETURNDATASIZE PUSH1 0x20 DUP2 LT ISZERO PUSH2 0x2594 JUMPI PUSH1 0x0 DUP1 REVERT JUMPDEST POP MLOAD PUSH1 0x5 DUP7 ADD SLOAD SWAP1 SWAP2 POP PUSH2 0x25BF SWAP1 PUSH2 0x1D63 SWAP1 PUSH2 0x6DB PUSH5 0xE8D4A51000 PUSH2 0x7C0 DUP7 DUP9 PUSH4 0xFFFFFFFF PUSH2 0x1962 AND JUMP JUMPDEST PUSH1 0x4 DUP7 ADD DUP2 SWAP1 SSTORE PUSH1 0x2 DUP6 ADD SLOAD DUP6 SLOAD PUSH1 0x0 SWAP3 PUSH2 0x25EF SWAP3 SWAP2 PUSH2 0x6CF SWAP2 PUSH5 0xE8D4A51000 SWAP2 PUSH2 0x6DB SWAP2 PUSH4 0xFFFFFFFF PUSH2 0x1A26 AND JUMP JUMPDEST SWAP1 POP DUP1 ISZERO PUSH2 0x2614 JUMPI PUSH1 0xD SLOAD PUSH2 0x2614 SWAP1 PUSH1 0x1 PUSH1 0x1 PUSH1 0xA0 SHL SUB AND DUP9 DUP4 PUSH4 0xFFFFFFFF PUSH2 0x308D AND JUMP JUMPDEST POP POP POP POP JUMPDEST DUP4 ISZERO PUSH2 0x28CB JUMPI DUP2 SLOAD PUSH2 0x263C SWAP1 PUSH1 0x1 PUSH1 0x1 PUSH1 0xA0 SHL SUB AND DUP5 ADDRESS DUP8 PUSH4 0xFFFFFFFF PUSH2 0x3207 AND JUMP JUMPDEST PUSH1 0x5 DUP3 ADD SLOAD PUSH2 0x26F1 JUMPI PUSH1 0xC SLOAD PUSH1 0x0 DUP7 DUP2 MSTORE PUSH1 0x7 PUSH1 0x20 MSTORE PUSH1 0x40 DUP1 DUP3 KECCAK256 SLOAD DUP2 MLOAD PUSH4 0x1C57762B PUSH1 0xE3 SHL DUP2 MSTORE PUSH1 0x4 DUP2 ADD SWAP2 SWAP1 SWAP2 MSTORE PUSH1 0x24 DUP2 ADD DUP9 SWAP1 MSTORE SWAP1 MLOAD PUSH1 0x1 PUSH1 0x1 PUSH1 0xA0 SHL SUB SWAP1 SWAP4 AND SWAP3 PUSH4 0xE2BBB158 SWAP3 PUSH1 0x44 DUP1 DUP5 ADD SWAP4 SWAP2 SWAP3 SWAP2 DUP3 SWAP1 SUB ADD DUP2 DUP4 DUP8 DUP1 EXTCODESIZE ISZERO DUP1 ISZERO PUSH2 0x26A5 JUMPI PUSH1 0x0 DUP1 REVERT JUMPDEST POP GAS CALL ISZERO DUP1 ISZERO PUSH2 0x26B9 JUMPI RETURNDATASIZE PUSH1 0x0 DUP1 RETURNDATACOPY RETURNDATASIZE PUSH1 0x0 REVERT JUMPDEST POP POP DUP3 SLOAD PUSH2 0x26D0 SWAP3 POP SWAP1 POP DUP6 PUSH4 0xFFFFFFFF PUSH2 0x1A7F AND JUMP JUMPDEST DUP2 SSTORE PUSH1 0x5 DUP3 ADD SLOAD PUSH2 0x26E7 SWAP1 DUP6 PUSH4 0xFFFFFFFF PUSH2 0x1A7F AND JUMP JUMPDEST PUSH1 0x5 DUP4 ADD SSTORE PUSH2 0x28CB JUMP JUMPDEST PUSH1 0xD SLOAD PUSH1 0x40 DUP1 MLOAD PUSH4 0x70A08231 PUSH1 0xE0 SHL DUP2 MSTORE ADDRESS PUSH1 0x4 DUP3 ADD MSTORE SWAP1 MLOAD PUSH1 0x0 SWAP3 PUSH1 0x1 PUSH1 0x1 PUSH1 0xA0 SHL SUB AND SWAP2 PUSH4 0x70A08231 SWAP2 PUSH1 0x24 DUP1 DUP4 ADD SWAP3 PUSH1 0x20 SWAP3 SWAP2 SWAP1 DUP3 SWAP1 SUB ADD DUP2 DUP7 DUP1 EXTCODESIZE ISZERO DUP1 ISZERO PUSH2 0x273C JUMPI PUSH1 0x0 DUP1 REVERT JUMPDEST POP GAS STATICCALL ISZERO DUP1 ISZERO PUSH2 0x2750 JUMPI RETURNDATASIZE PUSH1 0x0 DUP1 RETURNDATACOPY RETURNDATASIZE PUSH1 0x0 REVERT JUMPDEST POP POP POP POP PUSH1 0x40 MLOAD RETURNDATASIZE PUSH1 0x20 DUP2 LT ISZERO PUSH2 0x2766 JUMPI PUSH1 0x0 DUP1 REVERT JUMPDEST POP MLOAD PUSH1 0xC SLOAD PUSH1 0x0 DUP9 DUP2 MSTORE PUSH1 0x7 PUSH1 0x20 MSTORE PUSH1 0x40 DUP1 DUP3 KECCAK256 SLOAD DUP2 MLOAD PUSH4 0x1C57762B PUSH1 0xE3 SHL DUP2 MSTORE PUSH1 0x4 DUP2 ADD SWAP2 SWAP1 SWAP2 MSTORE PUSH1 0x24 DUP2 ADD DUP11 SWAP1 MSTORE SWAP1 MLOAD SWAP4 SWAP5 POP PUSH1 0x1 PUSH1 0x1 PUSH1 0xA0 SHL SUB SWAP1 SWAP3 AND SWAP3 PUSH4 0xE2BBB158 SWAP3 PUSH1 0x44 DUP1 DUP3 ADD SWAP4 SWAP3 SWAP2 DUP3 SWAP1 SUB ADD DUP2 DUP4 DUP8 DUP1 EXTCODESIZE ISZERO DUP1 ISZERO PUSH2 0x27CA JUMPI PUSH1 0x0 DUP1 REVERT JUMPDEST POP GAS CALL ISZERO DUP1 ISZERO PUSH2 0x27DE JUMPI RETURNDATASIZE PUSH1 0x0 DUP1 RETURNDATACOPY RETURNDATASIZE PUSH1 0x0 REVERT JUMPDEST POP POP PUSH1 0xD SLOAD PUSH1 0x40 DUP1 MLOAD PUSH4 0x70A08231 PUSH1 0xE0 SHL DUP2 MSTORE ADDRESS PUSH1 0x4 DUP3 ADD MSTORE SWAP1 MLOAD PUSH1 0x0 SWAP5 POP PUSH1 0x1 PUSH1 0x1 PUSH1 0xA0 SHL SUB SWAP1 SWAP3 AND SWAP3 POP PUSH4 0x70A08231 SWAP2 PUSH1 0x24 DUP1 DUP4 ADD SWAP3 PUSH1 0x20 SWAP3 SWAP2 SWAP1 DUP3 SWAP1 SUB ADD DUP2 DUP7 DUP1 EXTCODESIZE ISZERO DUP1 ISZERO PUSH2 0x282F JUMPI PUSH1 0x0 DUP1 REVERT JUMPDEST POP GAS STATICCALL ISZERO DUP1 ISZERO PUSH2 0x2843 JUMPI RETURNDATASIZE PUSH1 0x0 DUP1 RETURNDATACOPY RETURNDATASIZE PUSH1 0x0 REVERT JUMPDEST POP POP POP POP PUSH1 0x40 MLOAD RETURNDATASIZE PUSH1 0x20 DUP2 LT ISZERO PUSH2 0x2859 JUMPI PUSH1 0x0 DUP1 REVERT JUMPDEST POP MLOAD PUSH1 0x5 DUP6 ADD SLOAD SWAP1 SWAP2 POP PUSH2 0x2895 SWAP1 PUSH2 0x2884 SWAP1 PUSH2 0x6DB PUSH5 0xE8D4A51000 PUSH2 0x7C0 DUP7 DUP9 PUSH4 0xFFFFFFFF PUSH2 0x1962 AND JUMP JUMPDEST PUSH1 0x4 DUP7 ADD SLOAD SWAP1 PUSH4 0xFFFFFFFF PUSH2 0x1A7F AND JUMP JUMPDEST PUSH1 0x4 DUP6 ADD SSTORE DUP3 SLOAD PUSH2 0x28AC SWAP1 DUP8 PUSH4 0xFFFFFFFF PUSH2 0x1A7F AND JUMP JUMPDEST DUP4 SSTORE PUSH1 0x5 DUP5 ADD SLOAD PUSH2 0x28C3 SWAP1 DUP8 PUSH4 0xFFFFFFFF PUSH2 0x1A7F AND JUMP JUMPDEST PUSH1 0x5 DUP6 ADD SSTORE POP POP JUMPDEST PUSH1 0x3 DUP3 ADD SLOAD DUP2 SLOAD PUSH2 0x28EC SWAP2 PUSH5 0xE8D4A51000 SWAP2 PUSH2 0x6DB SWAP2 PUSH4 0xFFFFFFFF PUSH2 0x1A26 AND JUMP JUMPDEST PUSH1 0x1 DUP3 ADD SSTORE PUSH1 0x4 DUP3 ADD SLOAD DUP2 SLOAD PUSH2 0x2912 SWAP2 PUSH5 0xE8D4A51000 SWAP2 PUSH2 0x6DB SWAP2 PUSH4 0xFFFFFFFF PUSH2 0x1A26 AND JUMP JUMPDEST PUSH1 0x2 DUP3 ADD SSTORE PUSH1 0x40 DUP1 MLOAD DUP6 DUP2 MSTORE SWAP1 MLOAD DUP7 SWAP2 PUSH1 0x1 PUSH1 0x1 PUSH1 0xA0 SHL SUB DUP7 AND SWAP2 PUSH32 0x90890809C654F11D6E72A28FA60149770A0D11EC6C92319D6CEB2BB0A4EA1A15 SWAP2 DUP2 SWAP1 SUB PUSH1 0x20 ADD SWAP1 LOG3 POP POP POP POP POP JUMP JUMPDEST PUSH1 0x0 PUSH1 0x5 DUP5 DUP2 SLOAD DUP2 LT PUSH2 0x296D JUMPI INVALID JUMPDEST PUSH1 0x0 SWAP2 DUP3 MSTORE PUSH1 0x20 DUP1 DUP4 KECCAK256 DUP8 DUP5 MSTORE PUSH1 0x6 DUP1 DUP4 MSTORE PUSH1 0x40 DUP1 DUP7 KECCAK256 PUSH1 0x1 PUSH1 0x1 PUSH1 0xA0 SHL SUB DUP10 AND DUP8 MSTORE SWAP1 SWAP4 MSTORE SWAP2 SWAP1 SWAP4 KECCAK256 SWAP2 MUL SWAP1 SWAP2 ADD SWAP2 POP PUSH2 0x29A7 DUP6 PUSH2 0xBA4 JUMP JUMPDEST DUP1 SLOAD ISZERO PUSH2 0x29F0 JUMPI PUSH1 0x0 PUSH2 0x29DC DUP3 PUSH1 0x1 ADD SLOAD PUSH2 0x6CF PUSH5 0xE8D4A51000 PUSH2 0x6DB DUP8 PUSH1 0x3 ADD SLOAD DUP8 PUSH1 0x0 ADD SLOAD PUSH2 0x1A26 SWAP1 SWAP2 SWAP1 PUSH4 0xFFFFFFFF AND JUMP JUMPDEST SWAP1 POP DUP1 ISZERO PUSH2 0x29EE JUMPI PUSH2 0x29EE DUP5 DUP3 PUSH2 0x2EFD JUMP JUMPDEST POP JUMPDEST DUP4 ISZERO PUSH2 0x2A42 JUMPI DUP2 SLOAD PUSH2 0x2A13 SWAP1 PUSH1 0x1 PUSH1 0x1 PUSH1 0xA0 SHL SUB AND DUP5 ADDRESS DUP8 PUSH4 0xFFFFFFFF PUSH2 0x3207 AND JUMP JUMPDEST DUP1 SLOAD PUSH2 0x2A25 SWAP1 DUP6 PUSH4 0xFFFFFFFF PUSH2 0x1A7F AND JUMP JUMPDEST DUP2 SSTORE PUSH1 0x5 DUP3 ADD SLOAD PUSH2 0x2A3C SWAP1 DUP6 PUSH4 0xFFFFFFFF PUSH2 0x1A7F AND JUMP JUMPDEST PUSH1 0x5 DUP4 ADD SSTORE JUMPDEST PUSH1 0x3 DUP3 ADD SLOAD DUP2 SLOAD PUSH2 0x2A63 SWAP2 PUSH5 0xE8D4A51000 SWAP2 PUSH2 0x6DB SWAP2 PUSH4 0xFFFFFFFF PUSH2 0x1A26 AND JUMP JUMPDEST PUSH1 0x1 DUP3 ADD SSTORE PUSH1 0x40 DUP1 MLOAD DUP6 DUP2 MSTORE SWAP1 MLOAD DUP7 SWAP2 PUSH1 0x1 PUSH1 0x1 PUSH1 0xA0 SHL SUB DUP7 AND SWAP2 PUSH32 0x90890809C654F11D6E72A28FA60149770A0D11EC6C92319D6CEB2BB0A4EA1A15 SWAP2 DUP2 SWAP1 SUB PUSH1 0x20 ADD SWAP1 LOG3 POP POP POP POP POP JUMP JUMPDEST PUSH1 0x0 DUP1 PUSH1 0x0 PUSH1 0x5 DUP6 DUP2 SLOAD DUP2 LT PUSH2 0x2AC1 JUMPI INVALID JUMPDEST PUSH1 0x0 SWAP2 DUP3 MSTORE PUSH1 0x20 DUP1 DUP4 KECCAK256 DUP9 DUP5 MSTORE PUSH1 0x6 DUP1 DUP4 MSTORE PUSH1 0x40 DUP1 DUP7 KECCAK256 PUSH1 0x1 PUSH1 0x1 PUSH1 0xA0 SHL SUB DUP12 AND DUP8 MSTORE SWAP1 SWAP4 MSTORE SWAP2 SWAP1 SWAP4 KECCAK256 SWAP2 MUL SWAP1 SWAP2 ADD PUSH1 0x3 DUP2 ADD SLOAD PUSH1 0x4 DUP3 ADD SLOAD DUP4 SLOAD SWAP3 SWAP5 POP SWAP1 SWAP2 ISZERO PUSH2 0x2CE2 JUMPI PUSH1 0xC SLOAD PUSH1 0x0 DUP10 DUP2 MSTORE PUSH1 0x7 PUSH1 0x20 SWAP1 DUP2 MSTORE PUSH1 0x40 DUP1 DUP4 KECCAK256 SLOAD DUP2 MLOAD PUSH4 0xE4C75C27 PUSH1 0xE0 SHL DUP2 MSTORE PUSH1 0x4 DUP2 ADD SWAP2 SWAP1 SWAP2 MSTORE ADDRESS PUSH1 0x24 DUP3 ADD MSTORE SWAP1 MLOAD SWAP3 SWAP4 PUSH1 0x1 PUSH1 0x1 PUSH1 0xA0 SHL SUB AND SWAP3 PUSH4 0xE4C75C27 SWAP3 PUSH1 0x44 DUP1 DUP5 ADD SWAP4 SWAP2 SWAP3 SWAP2 DUP3 SWAP1 SUB ADD DUP2 DUP7 DUP1 EXTCODESIZE ISZERO DUP1 ISZERO PUSH2 0x2B66 JUMPI PUSH1 0x0 DUP1 REVERT JUMPDEST POP GAS STATICCALL ISZERO DUP1 ISZERO PUSH2 0x2B7A JUMPI RETURNDATASIZE PUSH1 0x0 DUP1 RETURNDATACOPY RETURNDATASIZE PUSH1 0x0 REVERT JUMPDEST POP POP POP POP PUSH1 0x40 MLOAD RETURNDATASIZE PUSH1 0x20 DUP2 LT ISZERO PUSH2 0x2B90 JUMPI PUSH1 0x0 DUP1 REVERT JUMPDEST POP MLOAD PUSH1 0x5 DUP7 ADD SLOAD SWAP1 SWAP2 POP PUSH2 0x2BC4 SWAP1 PUSH2 0x2BB7 SWAP1 PUSH2 0x6DB DUP5 PUSH5 0xE8D4A51000 PUSH4 0xFFFFFFFF PUSH2 0x1A26 AND JUMP JUMPDEST DUP4 SWAP1 PUSH4 0xFFFFFFFF PUSH2 0x1A7F AND JUMP JUMPDEST SWAP2 POP PUSH1 0x0 PUSH2 0x2BF0 DUP6 PUSH1 0x2 ADD SLOAD PUSH2 0x6CF PUSH5 0xE8D4A51000 PUSH2 0x6DB DUP8 DUP11 PUSH1 0x0 ADD SLOAD PUSH2 0x1A26 SWAP1 SWAP2 SWAP1 PUSH4 0xFFFFFFFF AND JUMP JUMPDEST SWAP1 POP DUP6 PUSH1 0x2 ADD SLOAD NUMBER GT ISZERO PUSH2 0x2C9C JUMPI PUSH1 0x0 PUSH2 0x2C0D DUP8 PUSH1 0x2 ADD SLOAD PUSH2 0x74A JUMP JUMPDEST SWAP1 POP PUSH1 0x0 PUSH2 0x2C2E PUSH1 0xA SLOAD PUSH2 0x6DB DUP11 PUSH1 0x1 ADD SLOAD DUP6 PUSH2 0x1A26 SWAP1 SWAP2 SWAP1 PUSH4 0xFFFFFFFF AND JUMP JUMPDEST SWAP1 POP PUSH2 0x2C60 PUSH2 0x2C53 DUP10 PUSH1 0x5 ADD SLOAD PUSH2 0x6DB PUSH5 0xE8D4A51000 DUP6 PUSH2 0x1A26 SWAP1 SWAP2 SWAP1 PUSH4 0xFFFFFFFF AND JUMP JUMPDEST DUP8 SWAP1 PUSH4 0xFFFFFFFF PUSH2 0x1A7F AND JUMP JUMPDEST SWAP6 POP PUSH2 0x2C8A DUP8 PUSH1 0x1 ADD SLOAD PUSH2 0x6CF PUSH5 0xE8D4A51000 PUSH2 0x6DB DUP11 DUP13 PUSH1 0x0 ADD SLOAD PUSH2 0x1A26 SWAP1 SWAP2 SWAP1 PUSH4 0xFFFFFFFF AND JUMP JUMPDEST DUP4 SWAP10 POP SWAP10 POP POP POP POP POP POP POP POP POP PUSH2 0x1751 JUMP JUMPDEST DUP6 PUSH1 0x2 ADD SLOAD NUMBER EQ ISZERO PUSH2 0x2CDF JUMPI PUSH2 0x2CD0 DUP6 PUSH1 0x1 ADD SLOAD PUSH2 0x6CF PUSH5 0xE8D4A51000 PUSH2 0x6DB DUP9 DUP11 PUSH1 0x0 ADD SLOAD PUSH2 0x1A26 SWAP1 SWAP2 SWAP1 PUSH4 0xFFFFFFFF AND JUMP JUMPDEST SWAP8 POP SWAP6 POP PUSH2 0x1751 SWAP5 POP POP POP POP POP JUMP JUMPDEST POP POP JUMPDEST POP PUSH1 0x0 SWAP8 DUP9 SWAP8 POP SWAP6 POP POP POP POP POP POP JUMP JUMPDEST PUSH1 0x0 DUP1 PUSH1 0x5 DUP5 DUP2 SLOAD DUP2 LT PUSH2 0x2D02 JUMPI INVALID JUMPDEST PUSH1 0x0 SWAP2 DUP3 MSTORE PUSH1 0x20 DUP1 DUP4 KECCAK256 DUP8 DUP5 MSTORE PUSH1 0x6 DUP1 DUP4 MSTORE PUSH1 0x40 DUP1 DUP7 KECCAK256 PUSH1 0x1 PUSH1 0x1 PUSH1 0xA0 SHL SUB DUP1 DUP12 AND DUP9 MSTORE SWAP1 DUP6 MSTORE DUP2 DUP8 KECCAK256 PUSH1 0x3 SWAP4 SWAP1 SWAP7 MUL SWAP1 SWAP4 ADD SWAP2 DUP3 ADD SLOAD DUP3 SLOAD DUP3 MLOAD PUSH4 0x70A08231 PUSH1 0xE0 SHL DUP2 MSTORE ADDRESS PUSH1 0x4 DUP3 ADD MSTORE SWAP3 MLOAD SWAP4 SWAP9 POP SWAP6 SWAP7 SWAP1 SWAP6 SWAP1 SWAP5 SWAP4 AND SWAP3 PUSH4 0x70A08231 SWAP3 PUSH1 0x24 DUP1 DUP5 ADD SWAP4 DUP3 SWAP1 SUB ADD DUP2 DUP7 DUP1 EXTCODESIZE ISZERO DUP1 ISZERO PUSH2 0x2D7B JUMPI PUSH1 0x0 DUP1 REVERT JUMPDEST POP GAS STATICCALL ISZERO DUP1 ISZERO PUSH2 0x2D8F JUMPI RETURNDATASIZE PUSH1 0x0 DUP1 RETURNDATACOPY RETURNDATASIZE PUSH1 0x0 REVERT JUMPDEST POP POP POP POP PUSH1 0x40 MLOAD RETURNDATASIZE PUSH1 0x20 DUP2 LT ISZERO PUSH2 0x2DA5 JUMPI PUSH1 0x0 DUP1 REVERT JUMPDEST POP MLOAD DUP4 SLOAD SWAP1 SWAP2 POP ISZERO PUSH2 0x2E81 JUMPI DUP4 PUSH1 0x2 ADD SLOAD NUMBER GT ISZERO PUSH2 0x2E42 JUMPI PUSH1 0x0 PUSH2 0x2DCC DUP6 PUSH1 0x2 ADD SLOAD PUSH2 0x74A JUMP JUMPDEST SWAP1 POP PUSH1 0x0 PUSH2 0x2DED PUSH1 0xA SLOAD PUSH2 0x6DB DUP9 PUSH1 0x1 ADD SLOAD DUP6 PUSH2 0x1A26 SWAP1 SWAP2 SWAP1 PUSH4 0xFFFFFFFF AND JUMP JUMPDEST SWAP1 POP PUSH2 0x2E0B PUSH2 0x7CC DUP5 PUSH2 0x6DB DUP5 PUSH5 0xE8D4A51000 PUSH4 0xFFFFFFFF PUSH2 0x1A26 AND JUMP JUMPDEST SWAP4 POP PUSH2 0x2E35 DUP6 PUSH1 0x1 ADD SLOAD PUSH2 0x6CF PUSH5 0xE8D4A51000 PUSH2 0x6DB DUP9 DUP11 PUSH1 0x0 ADD SLOAD PUSH2 0x1A26 SWAP1 SWAP2 SWAP1 PUSH4 0xFFFFFFFF AND JUMP JUMPDEST SWAP7 POP POP POP POP POP POP POP PUSH2 0xAE9 JUMP JUMPDEST DUP4 PUSH1 0x2 ADD SLOAD NUMBER EQ ISZERO PUSH2 0x2E81 JUMPI PUSH2 0x2E76 DUP4 PUSH1 0x1 ADD SLOAD PUSH2 0x6CF PUSH5 0xE8D4A51000 PUSH2 0x6DB DUP7 DUP9 PUSH1 0x0 ADD SLOAD PUSH2 0x1A26 SWAP1 SWAP2 SWAP1 PUSH4 0xFFFFFFFF AND JUMP JUMPDEST SWAP5 POP POP POP POP POP PUSH2 0xAE9 JUMP JUMPDEST POP PUSH1 0x0 SWAP7 SWAP6 POP POP POP POP POP POP JUMP JUMPDEST PUSH1 0x0 PUSH2 0xAE9 DUP3 PUSH2 0x3267 JUMP JUMPDEST DUP2 SLOAD PUSH1 0x0 SWAP1 DUP3 LT PUSH2 0x2EDB JUMPI PUSH1 0x40 MLOAD PUSH3 0x461BCD PUSH1 0xE5 SHL DUP2 MSTORE PUSH1 0x4 ADD DUP1 DUP1 PUSH1 0x20 ADD DUP3 DUP2 SUB DUP3 MSTORE PUSH1 0x22 DUP2 MSTORE PUSH1 0x20 ADD DUP1 PUSH2 0x353A PUSH1 0x22 SWAP2 CODECOPY PUSH1 0x40 ADD SWAP2 POP POP PUSH1 0x40 MLOAD DUP1 SWAP2 SUB SWAP1 REVERT JUMPDEST DUP3 PUSH1 0x0 ADD DUP3 DUP2 SLOAD DUP2 LT PUSH2 0x2EEA JUMPI INVALID JUMPDEST SWAP1 PUSH1 0x0 MSTORE PUSH1 0x20 PUSH1 0x0 KECCAK256 ADD SLOAD SWAP1 POP SWAP3 SWAP2 POP POP JUMP JUMPDEST PUSH1 0x3 SLOAD PUSH1 0x40 DUP1 MLOAD PUSH4 0x70A08231 PUSH1 0xE0 SHL DUP2 MSTORE ADDRESS PUSH1 0x4 DUP3 ADD MSTORE SWAP1 MLOAD PUSH1 0x0 SWAP3 PUSH1 0x1 PUSH1 0x1 PUSH1 0xA0 SHL SUB AND SWAP2 PUSH4 0x70A08231 SWAP2 PUSH1 0x24 DUP1 DUP4 ADD SWAP3 PUSH1 0x20 SWAP3 SWAP2 SWAP1 DUP3 SWAP1 SUB ADD DUP2 DUP7 DUP1 EXTCODESIZE ISZERO DUP1 ISZERO PUSH2 0x2F48 JUMPI PUSH1 0x0 DUP1 REVERT JUMPDEST POP GAS STATICCALL ISZERO DUP1 ISZERO PUSH2 0x2F5C JUMPI RETURNDATASIZE PUSH1 0x0 DUP1 RETURNDATACOPY RETURNDATASIZE PUSH1 0x0 REVERT JUMPDEST POP POP POP POP PUSH1 0x40 MLOAD RETURNDATASIZE PUSH1 0x20 DUP2 LT ISZERO PUSH2 0x2F72 JUMPI PUSH1 0x0 DUP1 REVERT JUMPDEST POP MLOAD SWAP1 POP DUP1 DUP3 GT ISZERO PUSH2 0x3006 JUMPI PUSH1 0x3 SLOAD PUSH1 0x40 DUP1 MLOAD PUSH4 0xA9059CBB PUSH1 0xE0 SHL DUP2 MSTORE PUSH1 0x1 PUSH1 0x1 PUSH1 0xA0 SHL SUB DUP7 DUP2 AND PUSH1 0x4 DUP4 ADD MSTORE PUSH1 0x24 DUP3 ADD DUP6 SWAP1 MSTORE SWAP2 MLOAD SWAP2 SWAP1 SWAP3 AND SWAP2 PUSH4 0xA9059CBB SWAP2 PUSH1 0x44 DUP1 DUP4 ADD SWAP3 PUSH1 0x20 SWAP3 SWAP2 SWAP1 DUP3 SWAP1 SUB ADD DUP2 PUSH1 0x0 DUP8 DUP1 EXTCODESIZE ISZERO DUP1 ISZERO PUSH2 0x2FD4 JUMPI PUSH1 0x0 DUP1 REVERT JUMPDEST POP GAS CALL ISZERO DUP1 ISZERO PUSH2 0x2FE8 JUMPI RETURNDATASIZE PUSH1 0x0 DUP1 RETURNDATACOPY RETURNDATASIZE PUSH1 0x0 REVERT JUMPDEST POP POP POP POP PUSH1 0x40 MLOAD RETURNDATASIZE PUSH1 0x20 DUP2 LT ISZERO PUSH2 0x2FFE JUMPI PUSH1 0x0 DUP1 REVERT JUMPDEST POP PUSH2 0xB99 SWAP1 POP JUMP JUMPDEST PUSH1 0x3 SLOAD PUSH1 0x40 DUP1 MLOAD PUSH4 0xA9059CBB PUSH1 0xE0 SHL DUP2 MSTORE PUSH1 0x1 PUSH1 0x1 PUSH1 0xA0 SHL SUB DUP7 DUP2 AND PUSH1 0x4 DUP4 ADD MSTORE PUSH1 0x24 DUP3 ADD DUP7 SWAP1 MSTORE SWAP2 MLOAD SWAP2 SWAP1 SWAP3 AND SWAP2 PUSH4 0xA9059CBB SWAP2 PUSH1 0x44 DUP1 DUP4 ADD SWAP3 PUSH1 0x20 SWAP3 SWAP2 SWAP1 DUP3 SWAP1 SUB ADD DUP2 PUSH1 0x0 DUP8 DUP1 EXTCODESIZE ISZERO DUP1 ISZERO PUSH2 0x305C JUMPI PUSH1 0x0 DUP1 REVERT JUMPDEST POP GAS CALL ISZERO DUP1 ISZERO PUSH2 0x3070 JUMPI RETURNDATASIZE PUSH1 0x0 DUP1 RETURNDATACOPY RETURNDATASIZE PUSH1 0x0 REVERT JUMPDEST POP POP POP POP PUSH1 0x40 MLOAD RETURNDATASIZE PUSH1 0x20 DUP2 LT ISZERO PUSH2 0x3086 JUMPI PUSH1 0x0 DUP1 REVERT JUMPDEST POP POP POP POP POP JUMP JUMPDEST PUSH1 0x40 DUP1 MLOAD PUSH1 0x1 PUSH1 0x1 PUSH1 0xA0 SHL SUB DUP5 AND PUSH1 0x24 DUP3 ADD MSTORE PUSH1 0x44 DUP1 DUP3 ADD DUP5 SWAP1 MSTORE DUP3 MLOAD DUP1 DUP4 SUB SWAP1 SWAP2 ADD DUP2 MSTORE PUSH1 0x64 SWAP1 SWAP2 ADD SWAP1 SWAP2 MSTORE PUSH1 0x20 DUP2 ADD DUP1 MLOAD PUSH1 0x1 PUSH1 0x1 PUSH1 0xE0 SHL SUB AND PUSH4 0xA9059CBB PUSH1 0xE0 SHL OR SWAP1 MSTORE PUSH2 0xB99 SWAP1 DUP5 SWAP1 PUSH2 0x326B JUMP JUMPDEST PUSH1 0x0 PUSH2 0x30EB DUP4 DUP4 PUSH2 0x3129 JUMP JUMPDEST PUSH2 0x3121 JUMPI POP DUP2 SLOAD PUSH1 0x1 DUP2 DUP2 ADD DUP5 SSTORE PUSH1 0x0 DUP5 DUP2 MSTORE PUSH1 0x20 DUP1 DUP3 KECCAK256 SWAP1 SWAP4 ADD DUP5 SWAP1 SSTORE DUP5 SLOAD DUP5 DUP3 MSTORE DUP3 DUP7 ADD SWAP1 SWAP4 MSTORE PUSH1 0x40 SWAP1 KECCAK256 SWAP2 SWAP1 SWAP2 SSTORE PUSH2 0xAE9 JUMP JUMPDEST POP PUSH1 0x0 PUSH2 0xAE9 JUMP JUMPDEST PUSH1 0x0 SWAP1 DUP2 MSTORE PUSH1 0x1 SWAP2 SWAP1 SWAP2 ADD PUSH1 0x20 MSTORE PUSH1 0x40 SWAP1 KECCAK256 SLOAD ISZERO ISZERO SWAP1 JUMP JUMPDEST PUSH1 0x0 DUP2 DUP2 MSTORE PUSH1 0x1 DUP4 ADD PUSH1 0x20 MSTORE PUSH1 0x40 DUP2 KECCAK256 SLOAD DUP1 ISZERO PUSH2 0x31FD JUMPI DUP4 SLOAD PUSH1 0x0 NOT DUP1 DUP4 ADD SWAP2 SWAP1 DUP2 ADD SWAP1 PUSH1 0x0 SWAP1 DUP8 SWAP1 DUP4 SWAP1 DUP2 LT PUSH2 0x3174 JUMPI INVALID JUMPDEST SWAP1 PUSH1 0x0 MSTORE PUSH1 0x20 PUSH1 0x0 KECCAK256 ADD SLOAD SWAP1 POP DUP1 DUP8 PUSH1 0x0 ADD DUP5 DUP2 SLOAD DUP2 LT PUSH2 0x3191 JUMPI INVALID JUMPDEST PUSH1 0x0 SWAP2 DUP3 MSTORE PUSH1 0x20 DUP1 DUP4 KECCAK256 SWAP1 SWAP2 ADD SWAP3 SWAP1 SWAP3 SSTORE DUP3 DUP2 MSTORE PUSH1 0x1 DUP10 DUP2 ADD SWAP1 SWAP3 MSTORE PUSH1 0x40 SWAP1 KECCAK256 SWAP1 DUP5 ADD SWAP1 SSTORE DUP7 SLOAD DUP8 SWAP1 DUP1 PUSH2 0x31C1 JUMPI INVALID JUMPDEST PUSH1 0x1 SWAP1 SUB DUP2 DUP2 SWAP1 PUSH1 0x0 MSTORE PUSH1 0x20 PUSH1 0x0 KECCAK256 ADD PUSH1 0x0 SWAP1 SSTORE SWAP1 SSTORE DUP7 PUSH1 0x1 ADD PUSH1 0x0 DUP8 DUP2 MSTORE PUSH1 0x20 ADD SWAP1 DUP2 MSTORE PUSH1 0x20 ADD PUSH1 0x0 KECCAK256 PUSH1 0x0 SWAP1 SSTORE PUSH1 0x1 SWAP5 POP POP POP POP POP PUSH2 0xAE9 JUMP JUMPDEST PUSH1 0x0 SWAP2 POP POP PUSH2 0xAE9 JUMP JUMPDEST PUSH1 0x40 DUP1 MLOAD PUSH1 0x1 PUSH1 0x1 PUSH1 0xA0 SHL SUB DUP1 DUP7 AND PUSH1 0x24 DUP4 ADD MSTORE DUP5 AND PUSH1 0x44 DUP3 ADD MSTORE PUSH1 0x64 DUP1 DUP3 ADD DUP5 SWAP1 MSTORE DUP3 MLOAD DUP1 DUP4 SUB SWAP1 SWAP2 ADD DUP2 MSTORE PUSH1 0x84 SWAP1 SWAP2 ADD SWAP1 SWAP2 MSTORE PUSH1 0x20 DUP2 ADD DUP1 MLOAD PUSH1 0x1 PUSH1 0x1 PUSH1 0xE0 SHL SUB AND PUSH4 0x23B872DD PUSH1 0xE0 SHL OR SWAP1 MSTORE PUSH2 0x3261 SWAP1 DUP6 SWAP1 PUSH2 0x326B JUMP JUMPDEST POP POP POP POP JUMP JUMPDEST SLOAD SWAP1 JUMP JUMPDEST PUSH1 0x60 PUSH2 0x32C0 DUP3 PUSH1 0x40 MLOAD DUP1 PUSH1 0x40 ADD PUSH1 0x40 MSTORE DUP1 PUSH1 0x20 DUP2 MSTORE PUSH1 0x20 ADD PUSH32 0x5361666545524332303A206C6F772D6C6576656C2063616C6C206661696C6564 DUP2 MSTORE POP DUP6 PUSH1 0x1 PUSH1 0x1 PUSH1 0xA0 SHL SUB AND PUSH2 0x331C SWAP1 SWAP3 SWAP2 SWAP1 PUSH4 0xFFFFFFFF AND JUMP JUMPDEST DUP1 MLOAD SWAP1 SWAP2 POP ISZERO PUSH2 0xB99 JUMPI DUP1 DUP1 PUSH1 0x20 ADD SWAP1 MLOAD PUSH1 0x20 DUP2 LT ISZERO PUSH2 0x32DF JUMPI PUSH1 0x0 DUP1 REVERT JUMPDEST POP MLOAD PUSH2 0xB99 JUMPI PUSH1 0x40 MLOAD PUSH3 0x461BCD PUSH1 0xE5 SHL DUP2 MSTORE PUSH1 0x4 ADD DUP1 DUP1 PUSH1 0x20 ADD DUP3 DUP2 SUB DUP3 MSTORE PUSH1 0x2A DUP2 MSTORE PUSH1 0x20 ADD DUP1 PUSH2 0x35E9 PUSH1 0x2A SWAP2 CODECOPY PUSH1 0x40 ADD SWAP2 POP POP PUSH1 0x40 MLOAD DUP1 SWAP2 SUB SWAP1 REVERT JUMPDEST PUSH1 0x60 PUSH2 0x332B DUP5 DUP5 PUSH1 0x0 DUP6 PUSH2 0x3333 JUMP JUMPDEST SWAP5 SWAP4 POP POP POP POP JUMP JUMPDEST PUSH1 0x60 DUP3 SELFBALANCE LT ISZERO PUSH2 0x3374 JUMPI PUSH1 0x40 MLOAD PUSH3 0x461BCD PUSH1 0xE5 SHL DUP2 MSTORE PUSH1 0x4 ADD DUP1 DUP1 PUSH1 0x20 ADD DUP3 DUP2 SUB DUP3 MSTORE PUSH1 0x26 DUP2 MSTORE PUSH1 0x20 ADD DUP1 PUSH2 0x3582 PUSH1 0x26 SWAP2 CODECOPY PUSH1 0x40 ADD SWAP2 POP POP PUSH1 0x40 MLOAD DUP1 SWAP2 SUB SWAP1 REVERT JUMPDEST PUSH2 0x337D DUP6 PUSH2 0x348F JUMP JUMPDEST PUSH2 0x33CE JUMPI PUSH1 0x40 DUP1 MLOAD PUSH3 0x461BCD PUSH1 0xE5 SHL DUP2 MSTORE PUSH1 0x20 PUSH1 0x4 DUP3 ADD MSTORE PUSH1 0x1D PUSH1 0x24 DUP3 ADD MSTORE PUSH32 0x416464726573733A2063616C6C20746F206E6F6E2D636F6E7472616374000000 PUSH1 0x44 DUP3 ADD MSTORE SWAP1 MLOAD SWAP1 DUP2 SWAP1 SUB PUSH1 0x64 ADD SWAP1 REVERT JUMPDEST PUSH1 0x0 PUSH1 0x60 DUP7 PUSH1 0x1 PUSH1 0x1 PUSH1 0xA0 SHL SUB AND DUP6 DUP8 PUSH1 0x40 MLOAD DUP1 DUP3 DUP1 MLOAD SWAP1 PUSH1 0x20 ADD SWAP1 DUP1 DUP4 DUP4 JUMPDEST PUSH1 0x20 DUP4 LT PUSH2 0x340D JUMPI DUP1 MLOAD DUP3 MSTORE PUSH1 0x1F NOT SWAP1 SWAP3 ADD SWAP2 PUSH1 0x20 SWAP2 DUP3 ADD SWAP2 ADD PUSH2 0x33EE JUMP JUMPDEST PUSH1 0x1 DUP4 PUSH1 0x20 SUB PUSH2 0x100 EXP SUB DUP1 NOT DUP3 MLOAD AND DUP2 DUP5 MLOAD AND DUP1 DUP3 OR DUP6 MSTORE POP POP POP POP POP POP SWAP1 POP ADD SWAP2 POP POP PUSH1 0x0 PUSH1 0x40 MLOAD DUP1 DUP4 SUB DUP2 DUP6 DUP8 GAS CALL SWAP3 POP POP POP RETURNDATASIZE DUP1 PUSH1 0x0 DUP2 EQ PUSH2 0x346F JUMPI PUSH1 0x40 MLOAD SWAP2 POP PUSH1 0x1F NOT PUSH1 0x3F RETURNDATASIZE ADD AND DUP3 ADD PUSH1 0x40 MSTORE RETURNDATASIZE DUP3 MSTORE RETURNDATASIZE PUSH1 0x0 PUSH1 0x20 DUP5 ADD RETURNDATACOPY PUSH2 0x3474 JUMP JUMPDEST PUSH1 0x60 SWAP2 POP JUMPDEST POP SWAP2 POP SWAP2 POP PUSH2 0x3484 DUP3 DUP3 DUP7 PUSH2 0x3495 JUMP JUMPDEST SWAP8 SWAP7 POP POP POP POP POP POP POP JUMP JUMPDEST EXTCODESIZE ISZERO ISZERO SWAP1 JUMP JUMPDEST PUSH1 0x60 DUP4 ISZERO PUSH2 0x34A4 JUMPI POP DUP2 PUSH2 0x1250 JUMP JUMPDEST DUP3 MLOAD ISZERO PUSH2 0x34B4 JUMPI DUP3 MLOAD DUP1 DUP5 PUSH1 0x20 ADD REVERT JUMPDEST DUP2 PUSH1 0x40 MLOAD PUSH3 0x461BCD PUSH1 0xE5 SHL DUP2 MSTORE PUSH1 0x4 ADD DUP1 DUP1 PUSH1 0x20 ADD DUP3 DUP2 SUB DUP3 MSTORE DUP4 DUP2 DUP2 MLOAD DUP2 MSTORE PUSH1 0x20 ADD SWAP2 POP DUP1 MLOAD SWAP1 PUSH1 0x20 ADD SWAP1 DUP1 DUP4 DUP4 PUSH1 0x0 JUMPDEST DUP4 DUP2 LT ISZERO PUSH2 0x34FE JUMPI DUP2 DUP2 ADD MLOAD DUP4 DUP3 ADD MSTORE PUSH1 0x20 ADD PUSH2 0x34E6 JUMP JUMPDEST POP POP POP POP SWAP1 POP SWAP1 DUP2 ADD SWAP1 PUSH1 0x1F AND DUP1 ISZERO PUSH2 0x352B JUMPI DUP1 DUP3 SUB DUP1 MLOAD PUSH1 0x1 DUP4 PUSH1 0x20 SUB PUSH2 0x100 EXP SUB NOT AND DUP2 MSTORE PUSH1 0x20 ADD SWAP2 POP JUMPDEST POP SWAP3 POP POP POP PUSH1 0x40 MLOAD DUP1 SWAP2 SUB SWAP1 REVERT INVALID GASLIMIT PUSH15 0x756D657261626C655365743A20696E PUSH5 0x6578206F75 PUSH21 0x206F6620626F756E64734F776E61626C653A206E65 PUSH24 0x206F776E657220697320746865207A65726F206164647265 PUSH20 0x73416464726573733A20696E7375666669636965 PUSH15 0x742062616C616E636520666F722063 PUSH2 0x6C6C MSTORE8 PUSH2 0x6665 0x4D PUSH2 0x7468 GASPRICE KECCAK256 PUSH14 0x756C7469706C69636174696F6E20 PUSH16 0x766572666C6F774F776E61626C653A20 PUSH4 0x616C6C65 PUSH19 0x206973206E6F7420746865206F776E65725361 PUSH7 0x6545524332303A KECCAK256 GASLIMIT MSTORE NUMBER ORIGIN ADDRESS KECCAK256 PUSH16 0x7065726174696F6E20646964206E6F74 KECCAK256 PUSH20 0x756363656564A26469706673582212208CA37B2E 0xBE 0xF6 DUP1 ORIGIN CALLVALUE 0x4F SMOD 0xD9 0xEE DUP3 0x4B PUSH15 0xE396DCA48088E85A16DFBE6ACAE74 0xB7 PUSH5 0x736F6C6343 STOP MOD MOD STOP CALLER "
		},
		"gasEstimates": {
			"creation": {
				"codeDepositCost": "2779200",
				"executionCost": "infinite",
				"totalCost": "infinite"
			},
			"external": {
				"LpOfPid(address)": "1257",
				"add(uint256,address,bool)": "infinite",
				"addMultLP(address)": "infinite",
				"deposit(uint256,uint256)": "infinite",
				"emergencyWithdraw(uint256)": "infinite",
				"getMdxBlockReward(uint256)": "infinite",
				"getMultLPAddress(uint256)": "infinite",
				"getMultLPLength()": "1161",
				"halvingPeriod()": "1043",
				"isMultLP(address)": "1344",
				"massUpdatePools()": "infinite",
				"mdx()": "1127",
				"mdxPerBlock()": "1043",
				"multLpChef()": "1170",
				"multLpToken()": "1170",
				"owner()": "1149",
				"paused()": "1077",
				"pending(uint256,address)": "infinite",
				"phase(uint256)": "infinite",
				"poolCorrespond(uint256)": "1195",
				"poolInfo(uint256)": "6246",
				"poolLength()": "1045",
				"renounceOwnership()": "infinite",
				"replaceMultLP(address,address)": "infinite",
				"reward(uint256)": "infinite",
				"set(uint256,uint256,bool)": "infinite",
				"setHalvingPeriod(uint256)": "infinite",
				"setMdxPerBlock(uint256)": "infinite",
				"setMultLP(address,address)": "infinite",
				"setPause()": "infinite",
				"setPoolCorr(uint256,uint256)": "infinite",
				"startBlock()": "1132",
				"totalAllocPoint()": "1111",
				"transferOwnership(address)": "infinite",
				"updatePool(uint256)": "infinite",
				"userInfo(uint256,address)": "2950",
				"withdraw(uint256,uint256)": "infinite"
			},
			"internal": {
				"depositMdx(uint256,uint256,address)": "infinite",
				"depositMdxAndToken(uint256,uint256,address)": "infinite",
				"emergencyWithdrawMdx(uint256,address)": "infinite",
				"emergencyWithdrawMdxAndToken(uint256,address)": "infinite",
				"pendingMdx(uint256,address)": "infinite",
				"pendingMdxAndToken(uint256,address)": "infinite",
				"safeMdxTransfer(address,uint256)": "infinite",
				"withdrawMdx(uint256,uint256,address)": "infinite",
				"withdrawMdxAndToken(uint256,uint256,address)": "infinite"
			}
		},
		"methodIdentifiers": {
			"LpOfPid(address)": "b0c7044b",
			"add(uint256,address,bool)": "1eaaa045",
			"addMultLP(address)": "56c5867d",
			"deposit(uint256,uint256)": "e2bbb158",
			"emergencyWithdraw(uint256)": "5312ea8e",
			"getMdxBlockReward(uint256)": "1b15b579",
			"getMultLPAddress(uint256)": "43154907",
			"getMultLPLength()": "e6ab8d48",
			"halvingPeriod()": "5a3e251f",
			"isMultLP(address)": "7fe6f5ac",
			"massUpdatePools()": "630b5ba1",
			"mdx()": "5672ab55",
			"mdxPerBlock()": "8fa39a88",
			"multLpChef()": "dfc7b95b",
			"multLpToken()": "705bbc01",
			"owner()": "8da5cb5b",
			"paused()": "5c975abb",
			"pending(uint256,address)": "e4c75c27",
			"phase(uint256)": "135f8aa7",
			"poolCorrespond(uint256)": "cb4502c4",
			"poolInfo(uint256)": "1526fe27",
			"poolLength()": "081e3eda",
			"renounceOwnership()": "715018a6",
			"replaceMultLP(address,address)": "aaae43cc",
			"reward(uint256)": "a9fb763c",
			"set(uint256,uint256,bool)": "64482f79",
			"setHalvingPeriod(uint256)": "b5ec5c99",
			"setMdxPerBlock(uint256)": "791ba374",
			"setMultLP(address,address)": "e715e234",
			"setPause()": "d431b1ac",
			"setPoolCorr(uint256,uint256)": "b337d32c",
			"startBlock()": "48cd4cb1",
			"totalAllocPoint()": "17caf6f1",
			"transferOwnership(address)": "f2fde38b",
			"updatePool(uint256)": "51eb05a6",
			"userInfo(uint256,address)": "93f1a40b",
			"withdraw(uint256,uint256)": "441a3e70"
		}
	},
	"abi": [
		{
			"inputs": [
				{
					"internalType": "contract IMdx",
					"name": "_mdx",
					"type": "address"
				},
				{
					"internalType": "uint256",
					"name": "_mdxPerBlock",
					"type": "uint256"
				},
				{
					"internalType": "uint256",
					"name": "_startBlock",
					"type": "uint256"
				}
			],
			"stateMutability": "nonpayable",
			"type": "constructor"
		},
		{
			"anonymous": false,
			"inputs": [
				{
					"indexed": true,
					"internalType": "address",
					"name": "user",
					"type": "address"
				},
				{
					"indexed": true,
					"internalType": "uint256",
					"name": "pid",
					"type": "uint256"
				},
				{
					"indexed": false,
					"internalType": "uint256",
					"name": "amount",
					"type": "uint256"
				}
			],
			"name": "Deposit",
			"type": "event"
		},
		{
			"anonymous": false,
			"inputs": [
				{
					"indexed": true,
					"internalType": "address",
					"name": "user",
					"type": "address"
				},
				{
					"indexed": true,
					"internalType": "uint256",
					"name": "pid",
					"type": "uint256"
				},
				{
					"indexed": false,
					"internalType": "uint256",
					"name": "amount",
					"type": "uint256"
				}
			],
			"name": "EmergencyWithdraw",
			"type": "event"
		},
		{
			"anonymous": false,
			"inputs": [
				{
					"indexed": true,
					"internalType": "address",
					"name": "previousOwner",
					"type": "address"
				},
				{
					"indexed": true,
					"internalType": "address",
					"name": "newOwner",
					"type": "address"
				}
			],
			"name": "OwnershipTransferred",
			"type": "event"
		},
		{
			"anonymous": false,
			"inputs": [
				{
					"indexed": true,
					"internalType": "address",
					"name": "user",
					"type": "address"
				},
				{
					"indexed": true,
					"internalType": "uint256",
					"name": "pid",
					"type": "uint256"
				},
				{
					"indexed": false,
					"internalType": "uint256",
					"name": "amount",
					"type": "uint256"
				}
			],
			"name": "Withdraw",
			"type": "event"
		},
		{
			"inputs": [
				{
					"internalType": "address",
					"name": "",
					"type": "address"
				}
			],
			"name": "LpOfPid",
			"outputs": [
				{
					"internalType": "uint256",
					"name": "",
					"type": "uint256"
				}
			],
			"stateMutability": "view",
			"type": "function"
		},
		{
			"inputs": [
				{
					"internalType": "uint256",
					"name": "_allocPoint",
					"type": "uint256"
				},
				{
					"internalType": "contract IERC20",
					"name": "_lpToken",
					"type": "address"
				},
				{
					"internalType": "bool",
					"name": "_withUpdate",
					"type": "bool"
				}
			],
			"name": "add",
			"outputs": [],
			"stateMutability": "nonpayable",
			"type": "function"
		},
		{
			"inputs": [
				{
					"internalType": "address",
					"name": "_addLP",
					"type": "address"
				}
			],
			"name": "addMultLP",
			"outputs": [
				{
					"internalType": "bool",
					"name": "",
					"type": "bool"
				}
			],
			"stateMutability": "nonpayable",
			"type": "function"
		},
		{
			"inputs": [
				{
					"internalType": "uint256",
					"name": "_pid",
					"type": "uint256"
				},
				{
					"internalType": "uint256",
					"name": "_amount",
					"type": "uint256"
				}
			],
			"name": "deposit",
			"outputs": [],
			"stateMutability": "nonpayable",
			"type": "function"
		},
		{
			"inputs": [
				{
					"internalType": "uint256",
					"name": "_pid",
					"type": "uint256"
				}
			],
			"name": "emergencyWithdraw",
			"outputs": [],
			"stateMutability": "nonpayable",
			"type": "function"
		},
		{
			"inputs": [
				{
					"internalType": "uint256",
					"name": "_lastRewardBlock",
					"type": "uint256"
				}
			],
			"name": "getMdxBlockReward",
			"outputs": [
				{
					"internalType": "uint256",
					"name": "",
					"type": "uint256"
				}
			],
			"stateMutability": "view",
			"type": "function"
		},
		{
			"inputs": [
				{
					"internalType": "uint256",
					"name": "_pid",
					"type": "uint256"
				}
			],
			"name": "getMultLPAddress",
			"outputs": [
				{
					"internalType": "address",
					"name": "",
					"type": "address"
				}
			],
			"stateMutability": "view",
			"type": "function"
		},
		{
			"inputs": [],
			"name": "getMultLPLength",
			"outputs": [
				{
					"internalType": "uint256",
					"name": "",
					"type": "uint256"
				}
			],
			"stateMutability": "view",
			"type": "function"
		},
		{
			"inputs": [],
			"name": "halvingPeriod",
			"outputs": [
				{
					"internalType": "uint256",
					"name": "",
					"type": "uint256"
				}
			],
			"stateMutability": "view",
			"type": "function"
		},
		{
			"inputs": [
				{
					"internalType": "address",
					"name": "_LP",
					"type": "address"
				}
			],
			"name": "isMultLP",
			"outputs": [
				{
					"internalType": "bool",
					"name": "",
					"type": "bool"
				}
			],
			"stateMutability": "view",
			"type": "function"
		},
		{
			"inputs": [],
			"name": "massUpdatePools",
			"outputs": [],
			"stateMutability": "nonpayable",
			"type": "function"
		},
		{
			"inputs": [],
			"name": "mdx",
			"outputs": [
				{
					"internalType": "contract IMdx",
					"name": "",
					"type": "address"
				}
			],
			"stateMutability": "view",
			"type": "function"
		},
		{
			"inputs": [],
			"name": "mdxPerBlock",
			"outputs": [
				{
					"internalType": "uint256",
					"name": "",
					"type": "uint256"
				}
			],
			"stateMutability": "view",
			"type": "function"
		},
		{
			"inputs": [],
			"name": "multLpChef",
			"outputs": [
				{
					"internalType": "address",
					"name": "",
					"type": "address"
				}
			],
			"stateMutability": "view",
			"type": "function"
		},
		{
			"inputs": [],
			"name": "multLpToken",
			"outputs": [
				{
					"internalType": "address",
					"name": "",
					"type": "address"
				}
			],
			"stateMutability": "view",
			"type": "function"
		},
		{
			"inputs": [],
			"name": "owner",
			"outputs": [
				{
					"internalType": "address",
					"name": "",
					"type": "address"
				}
			],
			"stateMutability": "view",
			"type": "function"
		},
		{
			"inputs": [],
			"name": "paused",
			"outputs": [
				{
					"internalType": "bool",
					"name": "",
					"type": "bool"
				}
			],
			"stateMutability": "view",
			"type": "function"
		},
		{
			"inputs": [
				{
					"internalType": "uint256",
					"name": "_pid",
					"type": "uint256"
				},
				{
					"internalType": "address",
					"name": "_user",
					"type": "address"
				}
			],
			"name": "pending",
			"outputs": [
				{
					"internalType": "uint256",
					"name": "",
					"type": "uint256"
				},
				{
					"internalType": "uint256",
					"name": "",
					"type": "uint256"
				}
			],
			"stateMutability": "view",
			"type": "function"
		},
		{
			"inputs": [
				{
					"internalType": "uint256",
					"name": "blockNumber",
					"type": "uint256"
				}
			],
			"name": "phase",
			"outputs": [
				{
					"internalType": "uint256",
					"name": "",
					"type": "uint256"
				}
			],
			"stateMutability": "view",
			"type": "function"
		},
		{
			"inputs": [
				{
					"internalType": "uint256",
					"name": "",
					"type": "uint256"
				}
			],
			"name": "poolCorrespond",
			"outputs": [
				{
					"internalType": "uint256",
					"name": "",
					"type": "uint256"
				}
			],
			"stateMutability": "view",
			"type": "function"
		},
		{
			"inputs": [
				{
					"internalType": "uint256",
					"name": "",
					"type": "uint256"
				}
			],
			"name": "poolInfo",
			"outputs": [
				{
					"internalType": "contract IERC20",
					"name": "lpToken",
					"type": "address"
				},
				{
					"internalType": "uint256",
					"name": "allocPoint",
					"type": "uint256"
				},
				{
					"internalType": "uint256",
					"name": "lastRewardBlock",
					"type": "uint256"
				},
				{
					"internalType": "uint256",
					"name": "accMdxPerShare",
					"type": "uint256"
				},
				{
					"internalType": "uint256",
					"name": "accMultLpPerShare",
					"type": "uint256"
				},
				{
					"internalType": "uint256",
					"name": "totalAmount",
					"type": "uint256"
				}
			],
			"stateMutability": "view",
			"type": "function"
		},
		{
			"inputs": [],
			"name": "poolLength",
			"outputs": [
				{
					"internalType": "uint256",
					"name": "",
					"type": "uint256"
				}
			],
			"stateMutability": "view",
			"type": "function"
		},
		{
			"inputs": [],
			"name": "renounceOwnership",
			"outputs": [],
			"stateMutability": "nonpayable",
			"type": "function"
		},
		{
			"inputs": [
				{
					"internalType": "address",
					"name": "_multLpToken",
					"type": "address"
				},
				{
					"internalType": "address",
					"name": "_multLpChef",
					"type": "address"
				}
			],
			"name": "replaceMultLP",
			"outputs": [],
			"stateMutability": "nonpayable",
			"type": "function"
		},
		{
			"inputs": [
				{
					"internalType": "uint256",
					"name": "blockNumber",
					"type": "uint256"
				}
			],
			"name": "reward",
			"outputs": [
				{
					"internalType": "uint256",
					"name": "",
					"type": "uint256"
				}
			],
			"stateMutability": "view",
			"type": "function"
		},
		{
			"inputs": [
				{
					"internalType": "uint256",
					"name": "_pid",
					"type": "uint256"
				},
				{
					"internalType": "uint256",
					"name": "_allocPoint",
					"type": "uint256"
				},
				{
					"internalType": "bool",
					"name": "_withUpdate",
					"type": "bool"
				}
			],
			"name": "set",
			"outputs": [],
			"stateMutability": "nonpayable",
			"type": "function"
		},
		{
			"inputs": [
				{
					"internalType": "uint256",
					"name": "_block",
					"type": "uint256"
				}
			],
			"name": "setHalvingPeriod",
			"outputs": [],
			"stateMutability": "nonpayable",
			"type": "function"
		},
		{
			"inputs": [
				{
					"internalType": "uint256",
					"name": "_newPerBlock",
					"type": "uint256"
				}
			],
			"name": "setMdxPerBlock",
			"outputs": [],
			"stateMutability": "nonpayable",
			"type": "function"
		},
		{
			"inputs": [
				{
					"internalType": "address",
					"name": "_multLpToken",
					"type": "address"
				},
				{
					"internalType": "address",
					"name": "_multLpChef",
					"type": "address"
				}
			],
			"name": "setMultLP",
			"outputs": [],
			"stateMutability": "nonpayable",
			"type": "function"
		},
		{
			"inputs": [],
			"name": "setPause",
			"outputs": [],
			"stateMutability": "nonpayable",
			"type": "function"
		},
		{
			"inputs": [
				{
					"internalType": "uint256",
					"name": "_pid",
					"type": "uint256"
				},
				{
					"internalType": "uint256",
					"name": "_sid",
					"type": "uint256"
				}
			],
			"name": "setPoolCorr",
			"outputs": [],
			"stateMutability": "nonpayable",
			"type": "function"
		},
		{
			"inputs": [],
			"name": "startBlock",
			"outputs": [
				{
					"internalType": "uint256",
					"name": "",
					"type": "uint256"
				}
			],
			"stateMutability": "view",
			"type": "function"
		},
		{
			"inputs": [],
			"name": "totalAllocPoint",
			"outputs": [
				{
					"internalType": "uint256",
					"name": "",
					"type": "uint256"
				}
			],
			"stateMutability": "view",
			"type": "function"
		},
		{
			"inputs": [
				{
					"internalType": "address",
					"name": "newOwner",
					"type": "address"
				}
			],
			"name": "transferOwnership",
			"outputs": [],
			"stateMutability": "nonpayable",
			"type": "function"
		},
		{
			"inputs": [
				{
					"internalType": "uint256",
					"name": "_pid",
					"type": "uint256"
				}
			],
			"name": "updatePool",
			"outputs": [],
			"stateMutability": "nonpayable",
			"type": "function"
		},
		{
			"inputs": [
				{
					"internalType": "uint256",
					"name": "",
					"type": "uint256"
				},
				{
					"internalType": "address",
					"name": "",
					"type": "address"
				}
			],
			"name": "userInfo",
			"outputs": [
				{
					"internalType": "uint256",
					"name": "amount",
					"type": "uint256"
				},
				{
					"internalType": "uint256",
					"name": "rewardDebt",
					"type": "uint256"
				},
				{
					"internalType": "uint256",
					"name": "multLpRewardDebt",
					"type": "uint256"
				}
			],
			"stateMutability": "view",
			"type": "function"
		},
		{
			"inputs": [
				{
					"internalType": "uint256",
					"name": "_pid",
					"type": "uint256"
				},
				{
					"internalType": "uint256",
					"name": "_amount",
					"type": "uint256"
				}
			],
			"name": "withdraw",
			"outputs": [],
			"stateMutability": "nonpayable",
			"type": "function"
		}
	]
}