{
	"data": {
		"bytecode": {
			"linkReferences": {},
			"object": "608060405262503340600555600060065534801561001c57600080fd5b506040516200281538038062002815833981810160405260e081101561004157600080fd5b508051602082015160408301516060840151608085015160a086015160c090960151949593949293919290919060006100816001600160e01b0361013816565b600080546001600160a01b0319166001600160a01b0383169081178255604051929350917f8be0079c531659141344cd1fd0a4f28419497f9722a3daafe3b4186f6b6457e0908290a350600a80546001600160a01b03199081166001600160a01b03998a1617909155600980548216978916979097179096556007805487169588169590951790945560088054861693871693909317909255600b805490941694169390931790915560039190915560045561013c565b3390565b6126c9806200014c6000396000f3fe608060405234801561001057600080fd5b506004361061023d5760003560e01c806396db752a1161013b578063b5ec5c99116100b8578063e377fe351161007c578063e377fe3514610627578063f2fde38b14610644578063f80f5dd51461066a578063f887ea4014610690578063f9d181f9146106985761023d565b8063b5ec5c99146105ae578063b872dd0e146105cb578063c0d78655146105d3578063c45a0155146105f9578063c683630d146106015761023d565b8063a13202e9116100ff578063a13202e91461050f578063a7ef67f614610517578063a9678a181461054d578063a9fb763c14610589578063b1c9fe6e146105a65761023d565b806396db752a1461047657806397ecfaab146104935780639f4ece2e146104cd5780639fb08cb7146104d5578063a0712d68146104f25761023d565b806348cd4cb1116101c95780637adbf9731161018d5780637adbf973146103f35780637dc0d1d0146104195780638da5cb5b146104215780638fa39a881461042957806393f1a40b146104315761023d565b806348cd4cb1146103b65780635672ab55146103be5780635a3e251f146103c6578063715018a6146103ce578063791ba374146103d65761023d565b806317caf6f11161021057806317caf6f1146102f9578063190cf6c914610301578063228cb7331461032e5780632f380b3514610336578063327107f7146103925761023d565b80630495de5014610242578063081e3eda1461027a578063135f8aa7146102825780631526fe271461029f575b600080fd5b6102686004803603602081101561025857600080fd5b50356001600160a01b03166106cc565b60408051918252519081900360200190f35b6102686106de565b6102686004803603602081101561029857600080fd5b50356106e4565b6102bc600480360360208110156102b557600080fd5b503561074b565b604080516001600160a01b0390971687526020870195909552858501939093526060850191909152608084015260a0830152519081900360c00190f35b610268610798565b61032c6004803603606081101561031757600080fd5b5080359060208101359060400135151561079e565b005b61026861087f565b6103536004803603602081101561034c57600080fd5b503561088f565b604080516001600160a01b039788168152959096166020860152848601939093526060840191909152608083015260a082015290519081900360c00190f35b61039a610ab1565b604080516001600160a01b039092168252519081900360200190f35b610268610ac0565b61039a610ac6565b610268610ad5565b61032c610adb565b61032c600480360360208110156103ec57600080fd5b5035610b87565b61032c6004803603602081101561040957600080fd5b50356001600160a01b0316610bf6565b61039a610cbf565b61039a610cce565b610268610cdd565b61045d6004803603604081101561044757600080fd5b50803590602001356001600160a01b0316610ce3565b6040805192835260208301919091528051918290030190f35b61039a6004803603602081101561048c57600080fd5b5035610d07565b6104b9600480360360208110156104a957600080fd5b50356001600160a01b0316610d79565b604080519115158252519081900360200190f35b61032c610e2d565b61045d600480360360208110156104eb57600080fd5b5035610e51565b6104b96004803603602081101561050857600080fd5b5035610ff1565b610268611117565b6102686004803603606081101561052d57600080fd5b506001600160a01b03813581169160208101359160409091013516611123565b6104b96004803603608081101561056357600080fd5b506001600160a01b038135811691602081013582169160408201351690606001356114e6565b6102686004803603602081101561059f57600080fd5b503561180f565b61026861183c565b61032c600480360360208110156105c457600080fd5b5035611847565b61032c6118ae565b61032c600480360360208110156105e957600080fd5b50356001600160a01b0316611a21565b61039a611aea565b6104b96004803603602081101561061757600080fd5b50356001600160a01b0316611af9565b6102686004803603602081101561063d57600080fd5b5035611b06565b61032c6004803603602081101561065a57600080fd5b50356001600160a01b0316611bfc565b6104b96004803603602081101561068057600080fd5b50356001600160a01b0316611cfe565b61039a611db2565b61032c600480360360608110156106ae57600080fd5b508035906001600160a01b0360208201351690604001351515611dc1565b600c6020526000908152604090205481565b600d5490565b6000600554600014156106f957506000610746565b6004548211156107425761073b60055461072f60016107236004548761202f90919063ffffffff16565b9063ffffffff61202f16565b9063ffffffff61207116565b9050610746565b5060005b919050565b600d818154811061075857fe5b60009182526020909120600690910201805460018201546002830154600384015460048501546005909501546001600160a01b0390941695509193909286565b60065481565b6107a66120b3565b6001600160a01b03166107b7610cce565b6001600160a01b031614610800576040805162461bcd60e51b81526020600482018190526024820152600080516020612612833981519152604482015290519081900360640190fd5b801561080e5761080e610e2d565b61085182610845600d868154811061082257fe5b90600052602060002090600602016003015460065461202f90919063ffffffff16565b9063ffffffff6120b716565b60068190555081600d848154811061086557fe5b906000526020600020906006020160030181905550505050565b600061088a4361180f565b905090565b6000806000806000806001600d80549050038711156108f5576040805162461bcd60e51b815260206004820152601e60248201527f537761704d696e696e673a204e6f742066696e64207468697320706f6f6c0000604482015290519081900360640190fd5b6108fd61244c565b600d888154811061090a57fe5b600091825260208083206040805160c081018252600690940290910180546001600160a01b031680855260018201548585015260028201548584015260038201546060860152600480830154608087015260059092015460a08601528251630dfe168160e01b8152925194965093630dfe16819383830193909290829003018186803b15801561099957600080fd5b505afa1580156109ad573d6000803e3d6000fd5b505050506040513d60208110156109c357600080fd5b505182516040805163d21220a760e01b815290519293506000926001600160a01b039092169163d21220a791600480820192602092909190829003018186803b158015610a0f57600080fd5b505afa158015610a23573d6000803e3d6000fd5b505050506040513d6020811015610a3957600080fd5b5051608084015160a085015191925090600090610a5590611b06565b90506000610a7660065461072f88606001518561211190919063ffffffff16565b9050610a88838263ffffffff6120b716565b60408701516020880151606090980151969f959e50909c509a5094985092965090945050505050565b600b546001600160a01b031681565b60045481565b600a546001600160a01b031681565b60055481565b610ae36120b3565b6001600160a01b0316610af4610cce565b6001600160a01b031614610b3d576040805162461bcd60e51b81526020600482018190526024820152600080516020612612833981519152604482015290519081900360640190fd5b600080546040516001600160a01b03909116907f8be0079c531659141344cd1fd0a4f28419497f9722a3daafe3b4186f6b6457e0908390a3600080546001600160a01b0319169055565b610b8f6120b3565b6001600160a01b0316610ba0610cce565b6001600160a01b031614610be9576040805162461bcd60e51b81526020600482018190526024820152600080516020612612833981519152604482015290519081900360640190fd5b610bf1610e2d565b600355565b610bfe6120b3565b6001600160a01b0316610c0f610cce565b6001600160a01b031614610c58576040805162461bcd60e51b81526020600482018190526024820152600080516020612612833981519152604482015290519081900360640190fd5b6001600160a01b038116610c9d5760405162461bcd60e51b815260040180806020018281038252602a8152602001806125a3602a913960400191505060405180910390fd5b600780546001600160a01b0319166001600160a01b0392909216919091179055565b6007546001600160a01b031681565b6000546001600160a01b031690565b60035481565b600e6020908152600092835260408084209091529082529020805460019091015482565b60006001610d13611117565b03821115610d68576040805162461bcd60e51b815260206004820152601f60248201527f537761704d696e696e673a20696e646578206f7574206f6620626f756e647300604482015290519081900360640190fd5b610d7360018361216a565b92915050565b6000610d836120b3565b6001600160a01b0316610d94610cce565b6001600160a01b031614610ddd576040805162461bcd60e51b81526020600482018190526024820152600080516020612612833981519152604482015290519081900360640190fd5b6001600160a01b038216610e225760405162461bcd60e51b815260040180806020018281038252602581526020018061254d6025913960400191505060405180910390fd5b610d73600183612176565b600d5460005b81811015610e4d57610e4481610ff1565b50600101610e33565b5050565b600d54600090819060001901831115610eb1576040805162461bcd60e51b815260206004820152601e60248201527f537761704d696e696e673a204e6f742066696e64207468697320706f6f6c0000604482015290519081900360640190fd5b6000610ebb61244c565b600d8581548110610ec857fe5b60009182526020918290206040805160c081018252600690930290910180546001600160a01b03168352600181015493830193909352600283015490820152600382015460608201526004820154608082015260059091015460a08201529050610f3061248b565b506000858152600e60209081526040808320338452825291829020825180840190935280548084526001909101549183019190915215610fe4576000610f798360a00151611b06565b90506000610f9a60065461072f86606001518561211190919063ffffffff16565b9050610fdf610fd2856020015161072f8660000151610fc6868a608001516120b790919063ffffffff16565b9063ffffffff61211116565b869063ffffffff6120b716565b945050505b5191935090915050915091565b600080600d838154811061100157fe5b9060005260206000209060060201905080600501544311611026576000915050610746565b60006110358260050154611b06565b90506000811161104a57600092505050610746565b600061106960065461072f85600301548561211190919063ffffffff16565b600a54604080516340c10f1960e01b81523060048201526024810184905290519293506001600160a01b03909116916340c10f19916044808201926020929091908290030181600087803b1580156110c057600080fd5b505af11580156110d4573d6000803e3d6000fd5b505050506040513d60208110156110ea57600080fd5b50506004830154611101908263ffffffff6120b716565b6004840155505043600590910155506001919050565b600061088a600161218b565b6000806001600160a01b0385811690841614156111415750826114de565b6009546040805163e6a4390560e01b81526001600160a01b038881166004830152868116602483015291516000939092169163e6a4390591604480820192602092909190829003018186803b15801561119957600080fd5b505afa1580156111ad573d6000803e3d6000fd5b505050506040513d60208110156111c357600080fd5b50516001600160a01b0316146112625760075460408051632321bc7960e21b81526001600160a01b03888116600483015260248201889052868116604483015291519190921691638c86f1e4916064808301926020929190829003018186803b15801561122f57600080fd5b505afa158015611243573d6000803e3d6000fd5b505050506040513d602081101561125957600080fd5b505190506114de565b600061126c611117565b905060005b818110156114db57600061128482610d07565b6009546040805163e6a4390560e01b81526001600160a01b038c8116600483015284811660248301529151939450600093919092169163e6a43905916044808301926020929190829003018186803b1580156112df57600080fd5b505afa1580156112f3573d6000803e3d6000fd5b505050506040513d602081101561130957600080fd5b50516001600160a01b0316148015906113ad57506009546040805163e6a4390560e01b81526001600160a01b038481166004830152898116602483015291516000939092169163e6a4390591604480820192602092909190829003018186803b15801561137557600080fd5b505afa158015611389573d6000803e3d6000fd5b505050506040513d602081101561139f57600080fd5b50516001600160a01b031614155b156114d25760075460408051632321bc7960e21b81526001600160a01b038b81166004830152602482018b9052848116604483015291516000939290921691638c86f1e491606480820192602092909190829003018186803b15801561141257600080fd5b505afa158015611426573d6000803e3d6000fd5b505050506040513d602081101561143c57600080fd5b505160075460408051632321bc7960e21b81526001600160a01b038681166004830152602482018590528b811660448301529151939450911691638c86f1e491606480820192602092909190829003018186803b15801561149c57600080fd5b505afa1580156114b0573d6000803e3d6000fd5b505050506040513d60208110156114c657600080fd5b505194506114db915050565b50600101611271565b50505b949350505050565b6008546000906001600160a01b031633146115325760405162461bcd60e51b81526004018080602001828103825260248152602001806125cd6024913960400191505060405180910390fd5b6001600160a01b0385166115775760405162461bcd60e51b81526004018080602001828103825260328152602001806126326032913960400191505060405180910390fd5b6001600160a01b0384166115bc5760405162461bcd60e51b81526004018080602001828103825260308152602001806126646030913960400191505060405180910390fd5b6001600160a01b0383166116015760405162461bcd60e51b81526004018080602001828103825260318152602001806125726031913960400191505060405180910390fd5b600061160b6106de565b11611618575060006114de565b61162184611af9565b1580611633575061163183611af9565b155b15611640575060006114de565b600954604080516396ed28f960e01b81526001600160a01b0387811660048301528681166024830152915160009392909216916396ed28f991604480820192602092909190829003018186803b15801561169957600080fd5b505afa1580156116ad573d6000803e3d6000fd5b505050506040513d60208110156116c357600080fd5b50516001600160a01b0381166000908152600c6020526040812054600d8054939450919281106116ef57fe5b6000918252602090912060069091020180549091506001600160a01b03838116911614158061172057506003810154155b15611730576000925050506114de565b600b5460009061174c90879087906001600160a01b0316611123565b90506000811161176257600093505050506114de565b6001600160a01b0383166000908152600c602052604090205461178490610ff1565b50600182015461179a908263ffffffff6120b716565b600183015560028201546117b4908263ffffffff6120b716565b60028301556001600160a01b038084166000908152600c60209081526040808320548352600e8252808320938c1683529290522080546117fa908363ffffffff6120b716565b81554360019182015598975050505050505050565b60008061181b836106e4565b90506118358160020a60035461207190919063ffffffff16565b9392505050565b600061088a436106e4565b61184f6120b3565b6001600160a01b0316611860610cce565b6001600160a01b0316146118a9576040805162461bcd60e51b81526020600482018190526024820152600080516020612612833981519152604482015290519081900360640190fd5b600555565b600d54600090815b8181101561198c576000600d82815481106118cd57fe5b60009182526020808320858452600e825260408085203386529092529220805460069092029092019250156119825761190583610ff1565b50600061192b836001015461072f8460000154866004015461211190919063ffffffff16565b82546001850154919250611945919063ffffffff61202f16565b6001840155600483015461195f908263ffffffff61202f16565b60048401556000825543600183015561197e868263ffffffff6120b716565b9550505b50506001016118b6565b506000821161199c575050611a1f565b600a546040805163a9059cbb60e01b81523360048201526024810185905290516001600160a01b039092169163a9059cbb916044808201926020929091908290030181600087803b1580156119f057600080fd5b505af1158015611a04573d6000803e3d6000fd5b505050506040513d6020811015611a1a57600080fd5b505050505b565b611a296120b3565b6001600160a01b0316611a3a610cce565b6001600160a01b031614611a83576040805162461bcd60e51b81526020600482018190526024820152600080516020612612833981519152604482015290519081900360640190fd5b6001600160a01b038116611ac85760405162461bcd60e51b815260040180806020018281038252602a8152602001806124c8602a913960400191505060405180910390fd5b600880546001600160a01b0319166001600160a01b0392909216919091179055565b6009546001600160a01b031681565b6000610d73600183612196565b600043821115611b475760405162461bcd60e51b81526004018080602001828103825260358152602001806125186035913960400191505060405180910390fd5b600080611b53846106e4565b90506000611b60436106e4565b90505b80821015611bc757600454600554600190930192600091611b8f9161084590869063ffffffff61211116565b9050611bbd611bb0611ba08361180f565b610fc6848a63ffffffff61202f16565b859063ffffffff6120b716565b9095509250611b63565b611bf3611be6611bd64361180f565b610fc6438963ffffffff61202f16565b849063ffffffff6120b716565b95945050505050565b611c046120b3565b6001600160a01b0316611c15610cce565b6001600160a01b031614611c5e576040805162461bcd60e51b81526020600482018190526024820152600080516020612612833981519152604482015290519081900360640190fd5b6001600160a01b038116611ca35760405162461bcd60e51b81526004018080602001828103825260268152602001806124f26026913960400191505060405180910390fd5b600080546040516001600160a01b03808516939216917f8be0079c531659141344cd1fd0a4f28419497f9722a3daafe3b4186f6b6457e091a3600080546001600160a01b0319166001600160a01b0392909216919091179055565b6000611d086120b3565b6001600160a01b0316611d19610cce565b6001600160a01b031614611d62576040805162461bcd60e51b81526020600482018190526024820152600080516020612612833981519152604482015290519081900360640190fd5b6001600160a01b038216611da75760405162461bcd60e51b815260040180806020018281038252602581526020018061254d6025913960400191505060405180910390fd5b610d736001836121ab565b6008546001600160a01b031681565b611dc96120b3565b6001600160a01b0316611dda610cce565b6001600160a01b031614611e23576040805162461bcd60e51b81526020600482018190526024820152600080516020612612833981519152604482015290519081900360640190fd5b6001600160a01b038216611e7e576040805162461bcd60e51b815260206004820152601960248201527f5f7061697220697320746865207a65726f206164647265737300000000000000604482015290519081900360640190fd5b8015611e8c57611e8c610e2d565b60006004544311611e9f57600454611ea1565b435b600654909150611eb7908563ffffffff6120b716565b60069081556040805160c0810182526001600160a01b038681168252600060208301818152938301818152606084018a81526080850183815260a08601898152600d8054600180820183559190965296517fd7b6990105719101dabeb77144f2a3385c8033acd3af97e9423a695e81ad1eb59590990294850180546001600160a01b031916999096169890981790945594517fd7b6990105719101dabeb77144f2a3385c8033acd3af97e9423a695e81ad1eb6830155517fd7b6990105719101dabeb77144f2a3385c8033acd3af97e9423a695e81ad1eb782015592517fd7b6990105719101dabeb77144f2a3385c8033acd3af97e9423a695e81ad1eb8840155517fd7b6990105719101dabeb77144f2a3385c8033acd3af97e9423a695e81ad1eb983015591517fd7b6990105719101dabeb77144f2a3385c8033acd3af97e9423a695e81ad1eba9091015561200c6106de565b6001600160a01b039094166000908152600c602052604090209303909255505050565b600061183583836040518060400160405280601e81526020017f536166654d6174683a207375627472616374696f6e206f766572666c6f7700008152506121c0565b600061183583836040518060400160405280601a81526020017f536166654d6174683a206469766973696f6e206279207a65726f000000000000815250612257565b3390565b600082820183811015611835576040805162461bcd60e51b815260206004820152601b60248201527f536166654d6174683a206164646974696f6e206f766572666c6f770000000000604482015290519081900360640190fd5b60008261212057506000610d73565b8282028284828161212d57fe5b04146118355760405162461bcd60e51b81526004018080602001828103825260218152602001806125f16021913960400191505060405180910390fd5b600061183583836122bc565b6000611835836001600160a01b038416612320565b6000610d73826123e6565b6000611835836001600160a01b0384166123ea565b6000611835836001600160a01b038416612402565b6000818484111561224f5760405162461bcd60e51b81526004018080602001828103825283818151815260200191508051906020019080838360005b838110156122145781810151838201526020016121fc565b50505050905090810190601f1680156122415780820380516001836020036101000a031916815260200191505b509250505060405180910390fd5b505050900390565b600081836122a65760405162461bcd60e51b81526020600482018181528351602484015283519092839260449091019190850190808383600083156122145781810151838201526020016121fc565b5060008385816122b257fe5b0495945050505050565b815460009082106122fe5760405162461bcd60e51b81526004018080602001828103825260228152602001806124a66022913960400191505060405180910390fd5b82600001828154811061230d57fe5b9060005260206000200154905092915050565b600081815260018301602052604081205480156123dc578354600019808301919081019060009087908390811061235357fe5b906000526020600020015490508087600001848154811061237057fe5b6000918252602080832090910192909255828152600189810190925260409020908401905586548790806123a057fe5b60019003818190600052602060002001600090559055866001016000878152602001908152602001600020600090556001945050505050610d73565b6000915050610d73565b5490565b60009081526001919091016020526040902054151590565b600061240e83836123ea565b61244457508154600181810184556000848152602080822090930184905584548482528286019093526040902091909155610d73565b506000610d73565b6040518060c0016040528060006001600160a01b0316815260200160008152602001600081526020016000815260200160008152602001600081525090565b60405180604001604052806000815260200160008152509056fe456e756d657261626c655365743a20696e646578206f7574206f6620626f756e6473537761704d696e696e673a206e657720726f7574657220697320746865207a65726f20616464726573734f776e61626c653a206e6577206f776e657220697320746865207a65726f2061646472657373537761704d696e696e673a206d757374206c6974746c65207468616e207468652063757272656e7420626c6f636b206e756d626572537761704d696e696e673a20746f6b656e20697320746865207a65726f2061646472657373537761704d696e696e673a2074616b65722073776170206f757470757420697320746865207a65726f2061646472657373537761704d696e696e673a206e6577206f7261636c6520697320746865207a65726f2061646472657373537761704d696e696e673a2063616c6c6572206973206e6f742074686520726f75746572536166654d6174683a206d756c7469706c69636174696f6e206f766572666c6f774f776e61626c653a2063616c6c6572206973206e6f7420746865206f776e6572537761704d696e696e673a2074616b65722073776170206163636f756e7420697320746865207a65726f2061646472657373537761704d696e696e673a2074616b6572207377617020696e70757420697320746865207a65726f2061646472657373a2646970667358221220139db9fe9174dfb23e46a6fcedb8f0de812f915154ade717ffcdac3e4538f3b364736f6c63430006060033",
			"opcodes": "PUSH1 0x80 PUSH1 0x40 MSTORE PUSH3 0x503340 PUSH1 0x5 SSTORE PUSH1 0x0 PUSH1 0x6 SSTORE CALLVALUE DUP1 ISZERO PUSH2 0x1C JUMPI PUSH1 0x0 DUP1 REVERT JUMPDEST POP PUSH1 0x40 MLOAD PUSH3 0x2815 CODESIZE SUB DUP1 PUSH3 0x2815 DUP4 CODECOPY DUP2 DUP2 ADD PUSH1 0x40 MSTORE PUSH1 0xE0 DUP2 LT ISZERO PUSH2 0x41 JUMPI PUSH1 0x0 DUP1 REVERT JUMPDEST POP DUP1 MLOAD PUSH1 0x20 DUP3 ADD MLOAD PUSH1 0x40 DUP4 ADD MLOAD PUSH1 0x60 DUP5 ADD MLOAD PUSH1 0x80 DUP6 ADD MLOAD PUSH1 0xA0 DUP7 ADD MLOAD PUSH1 0xC0 SWAP1 SWAP7 ADD MLOAD SWAP5 SWAP6 SWAP4 SWAP5 SWAP3 SWAP4 SWAP2 SWAP3 SWAP1 SWAP2 SWAP1 PUSH1 0x0 PUSH2 0x81 PUSH1 0x1 PUSH1 0x1 PUSH1 0xE0 SHL SUB PUSH2 0x138 AND JUMP JUMPDEST PUSH1 0x0 DUP1 SLOAD PUSH1 0x1 PUSH1 0x1 PUSH1 0xA0 SHL SUB NOT AND PUSH1 0x1 PUSH1 0x1 PUSH1 0xA0 SHL SUB DUP4 AND SWAP1 DUP2 OR DUP3 SSTORE PUSH1 0x40 MLOAD SWAP3 SWAP4 POP SWAP2 PUSH32 0x8BE0079C531659141344CD1FD0A4F28419497F9722A3DAAFE3B4186F6B6457E0 SWAP1 DUP3 SWAP1 LOG3 POP PUSH1 0xA DUP1 SLOAD PUSH1 0x1 PUSH1 0x1 PUSH1 0xA0 SHL SUB NOT SWAP1 DUP2 AND PUSH1 0x1 PUSH1 0x1 PUSH1 0xA0 SHL SUB SWAP10 DUP11 AND OR SWAP1 SWAP2 SSTORE PUSH1 0x9 DUP1 SLOAD DUP3 AND SWAP8 DUP10 AND SWAP8 SWAP1 SWAP8 OR SWAP1 SWAP7 SSTORE PUSH1 0x7 DUP1 SLOAD DUP8 AND SWAP6 DUP9 AND SWAP6 SWAP1 SWAP6 OR SWAP1 SWAP5 SSTORE PUSH1 0x8 DUP1 SLOAD DUP7 AND SWAP4 DUP8 AND SWAP4 SWAP1 SWAP4 OR SWAP1 SWAP3 SSTORE PUSH1 0xB DUP1 SLOAD SWAP1 SWAP5 AND SWAP5 AND SWAP4 SWAP1 SWAP4 OR SWAP1 SWAP2 SSTORE PUSH1 0x3 SWAP2 SWAP1 SWAP2 SSTORE PUSH1 0x4 SSTORE PUSH2 0x13C JUMP JUMPDEST CALLER SWAP1 JUMP JUMPDEST PUSH2 0x26C9 DUP1 PUSH3 0x14C PUSH1 0x0 CODECOPY PUSH1 0x0 RETURN INVALID PUSH1 0x80 PUSH1 0x40 MSTORE CALLVALUE DUP1 ISZERO PUSH2 0x10 JUMPI PUSH1 0x0 DUP1 REVERT JUMPDEST POP PUSH1 0x4 CALLDATASIZE LT PUSH2 0x23D JUMPI PUSH1 0x0 CALLDATALOAD PUSH1 0xE0 SHR DUP1 PUSH4 0x96DB752A GT PUSH2 0x13B JUMPI DUP1 PUSH4 0xB5EC5C99 GT PUSH2 0xB8 JUMPI DUP1 PUSH4 0xE377FE35 GT PUSH2 0x7C JUMPI DUP1 PUSH4 0xE377FE35 EQ PUSH2 0x627 JUMPI DUP1 PUSH4 0xF2FDE38B EQ PUSH2 0x644 JUMPI DUP1 PUSH4 0xF80F5DD5 EQ PUSH2 0x66A JUMPI DUP1 PUSH4 0xF887EA40 EQ PUSH2 0x690 JUMPI DUP1 PUSH4 0xF9D181F9 EQ PUSH2 0x698 JUMPI PUSH2 0x23D JUMP JUMPDEST DUP1 PUSH4 0xB5EC5C99 EQ PUSH2 0x5AE JUMPI DUP1 PUSH4 0xB872DD0E EQ PUSH2 0x5CB JUMPI DUP1 PUSH4 0xC0D78655 EQ PUSH2 0x5D3 JUMPI DUP1 PUSH4 0xC45A0155 EQ PUSH2 0x5F9 JUMPI DUP1 PUSH4 0xC683630D EQ PUSH2 0x601 JUMPI PUSH2 0x23D JUMP JUMPDEST DUP1 PUSH4 0xA13202E9 GT PUSH2 0xFF JUMPI DUP1 PUSH4 0xA13202E9 EQ PUSH2 0x50F JUMPI DUP1 PUSH4 0xA7EF67F6 EQ PUSH2 0x517 JUMPI DUP1 PUSH4 0xA9678A18 EQ PUSH2 0x54D JUMPI DUP1 PUSH4 0xA9FB763C EQ PUSH2 0x589 JUMPI DUP1 PUSH4 0xB1C9FE6E EQ PUSH2 0x5A6 JUMPI PUSH2 0x23D JUMP JUMPDEST DUP1 PUSH4 0x96DB752A EQ PUSH2 0x476 JUMPI DUP1 PUSH4 0x97ECFAAB EQ PUSH2 0x493 JUMPI DUP1 PUSH4 0x9F4ECE2E EQ PUSH2 0x4CD JUMPI DUP1 PUSH4 0x9FB08CB7 EQ PUSH2 0x4D5 JUMPI DUP1 PUSH4 0xA0712D68 EQ PUSH2 0x4F2 JUMPI PUSH2 0x23D JUMP JUMPDEST DUP1 PUSH4 0x48CD4CB1 GT PUSH2 0x1C9 JUMPI DUP1 PUSH4 0x7ADBF973 GT PUSH2 0x18D JUMPI DUP1 PUSH4 0x7ADBF973 EQ PUSH2 0x3F3 JUMPI DUP1 PUSH4 0x7DC0D1D0 EQ PUSH2 0x419 JUMPI DUP1 PUSH4 0x8DA5CB5B EQ PUSH2 0x421 JUMPI DUP1 PUSH4 0x8FA39A88 EQ PUSH2 0x429 JUMPI DUP1 PUSH4 0x93F1A40B EQ PUSH2 0x431 JUMPI PUSH2 0x23D JUMP JUMPDEST DUP1 PUSH4 0x48CD4CB1 EQ PUSH2 0x3B6 JUMPI DUP1 PUSH4 0x5672AB55 EQ PUSH2 0x3BE JUMPI DUP1 PUSH4 0x5A3E251F EQ PUSH2 0x3C6 JUMPI DUP1 PUSH4 0x715018A6 EQ PUSH2 0x3CE JUMPI DUP1 PUSH4 0x791BA374 EQ PUSH2 0x3D6 JUMPI PUSH2 0x23D JUMP JUMPDEST DUP1 PUSH4 0x17CAF6F1 GT PUSH2 0x210 JUMPI DUP1 PUSH4 0x17CAF6F1 EQ PUSH2 0x2F9 JUMPI DUP1 PUSH4 0x190CF6C9 EQ PUSH2 0x301 JUMPI DUP1 PUSH4 0x228CB733 EQ PUSH2 0x32E JUMPI DUP1 PUSH4 0x2F380B35 EQ PUSH2 0x336 JUMPI DUP1 PUSH4 0x327107F7 EQ PUSH2 0x392 JUMPI PUSH2 0x23D JUMP JUMPDEST DUP1 PUSH4 0x495DE50 EQ PUSH2 0x242 JUMPI DUP1 PUSH4 0x81E3EDA EQ PUSH2 0x27A JUMPI DUP1 PUSH4 0x135F8AA7 EQ PUSH2 0x282 JUMPI DUP1 PUSH4 0x1526FE27 EQ PUSH2 0x29F JUMPI JUMPDEST PUSH1 0x0 DUP1 REVERT JUMPDEST PUSH2 0x268 PUSH1 0x4 DUP1 CALLDATASIZE SUB PUSH1 0x20 DUP2 LT ISZERO PUSH2 0x258 JUMPI PUSH1 0x0 DUP1 REVERT JUMPDEST POP CALLDATALOAD PUSH1 0x1 PUSH1 0x1 PUSH1 0xA0 SHL SUB AND PUSH2 0x6CC JUMP JUMPDEST PUSH1 0x40 DUP1 MLOAD SWAP2 DUP3 MSTORE MLOAD SWAP1 DUP2 SWAP1 SUB PUSH1 0x20 ADD SWAP1 RETURN JUMPDEST PUSH2 0x268 PUSH2 0x6DE JUMP JUMPDEST PUSH2 0x268 PUSH1 0x4 DUP1 CALLDATASIZE SUB PUSH1 0x20 DUP2 LT ISZERO PUSH2 0x298 JUMPI PUSH1 0x0 DUP1 REVERT JUMPDEST POP CALLDATALOAD PUSH2 0x6E4 JUMP JUMPDEST PUSH2 0x2BC PUSH1 0x4 DUP1 CALLDATASIZE SUB PUSH1 0x20 DUP2 LT ISZERO PUSH2 0x2B5 JUMPI PUSH1 0x0 DUP1 REVERT JUMPDEST POP CALLDATALOAD PUSH2 0x74B JUMP JUMPDEST PUSH1 0x40 DUP1 MLOAD PUSH1 0x1 PUSH1 0x1 PUSH1 0xA0 SHL SUB SWAP1 SWAP8 AND DUP8 MSTORE PUSH1 0x20 DUP8 ADD SWAP6 SWAP1 SWAP6 MSTORE DUP6 DUP6 ADD SWAP4 SWAP1 SWAP4 MSTORE PUSH1 0x60 DUP6 ADD SWAP2 SWAP1 SWAP2 MSTORE PUSH1 0x80 DUP5 ADD MSTORE PUSH1 0xA0 DUP4 ADD MSTORE MLOAD SWAP1 DUP2 SWAP1 SUB PUSH1 0xC0 ADD SWAP1 RETURN JUMPDEST PUSH2 0x268 PUSH2 0x798 JUMP JUMPDEST PUSH2 0x32C PUSH1 0x4 DUP1 CALLDATASIZE SUB PUSH1 0x60 DUP2 LT ISZERO PUSH2 0x317 JUMPI PUSH1 0x0 DUP1 REVERT JUMPDEST POP DUP1 CALLDATALOAD SWAP1 PUSH1 0x20 DUP2 ADD CALLDATALOAD SWAP1 PUSH1 0x40 ADD CALLDATALOAD ISZERO ISZERO PUSH2 0x79E JUMP JUMPDEST STOP JUMPDEST PUSH2 0x268 PUSH2 0x87F JUMP JUMPDEST PUSH2 0x353 PUSH1 0x4 DUP1 CALLDATASIZE SUB PUSH1 0x20 DUP2 LT ISZERO PUSH2 0x34C JUMPI PUSH1 0x0 DUP1 REVERT JUMPDEST POP CALLDATALOAD PUSH2 0x88F JUMP JUMPDEST PUSH1 0x40 DUP1 MLOAD PUSH1 0x1 PUSH1 0x1 PUSH1 0xA0 SHL SUB SWAP8 DUP9 AND DUP2 MSTORE SWAP6 SWAP1 SWAP7 AND PUSH1 0x20 DUP7 ADD MSTORE DUP5 DUP7 ADD SWAP4 SWAP1 SWAP4 MSTORE PUSH1 0x60 DUP5 ADD SWAP2 SWAP1 SWAP2 MSTORE PUSH1 0x80 DUP4 ADD MSTORE PUSH1 0xA0 DUP3 ADD MSTORE SWAP1 MLOAD SWAP1 DUP2 SWAP1 SUB PUSH1 0xC0 ADD SWAP1 RETURN JUMPDEST PUSH2 0x39A PUSH2 0xAB1 JUMP JUMPDEST PUSH1 0x40 DUP1 MLOAD PUSH1 0x1 PUSH1 0x1 PUSH1 0xA0 SHL SUB SWAP1 SWAP3 AND DUP3 MSTORE MLOAD SWAP1 DUP2 SWAP1 SUB PUSH1 0x20 ADD SWAP1 RETURN JUMPDEST PUSH2 0x268 PUSH2 0xAC0 JUMP JUMPDEST PUSH2 0x39A PUSH2 0xAC6 JUMP JUMPDEST PUSH2 0x268 PUSH2 0xAD5 JUMP JUMPDEST PUSH2 0x32C PUSH2 0xADB JUMP JUMPDEST PUSH2 0x32C PUSH1 0x4 DUP1 CALLDATASIZE SUB PUSH1 0x20 DUP2 LT ISZERO PUSH2 0x3EC JUMPI PUSH1 0x0 DUP1 REVERT JUMPDEST POP CALLDATALOAD PUSH2 0xB87 JUMP JUMPDEST PUSH2 0x32C PUSH1 0x4 DUP1 CALLDATASIZE SUB PUSH1 0x20 DUP2 LT ISZERO PUSH2 0x409 JUMPI PUSH1 0x0 DUP1 REVERT JUMPDEST POP CALLDATALOAD PUSH1 0x1 PUSH1 0x1 PUSH1 0xA0 SHL SUB AND PUSH2 0xBF6 JUMP JUMPDEST PUSH2 0x39A PUSH2 0xCBF JUMP JUMPDEST PUSH2 0x39A PUSH2 0xCCE JUMP JUMPDEST PUSH2 0x268 PUSH2 0xCDD JUMP JUMPDEST PUSH2 0x45D PUSH1 0x4 DUP1 CALLDATASIZE SUB PUSH1 0x40 DUP2 LT ISZERO PUSH2 0x447 JUMPI PUSH1 0x0 DUP1 REVERT JUMPDEST POP DUP1 CALLDATALOAD SWAP1 PUSH1 0x20 ADD CALLDATALOAD PUSH1 0x1 PUSH1 0x1 PUSH1 0xA0 SHL SUB AND PUSH2 0xCE3 JUMP JUMPDEST PUSH1 0x40 DUP1 MLOAD SWAP3 DUP4 MSTORE PUSH1 0x20 DUP4 ADD SWAP2 SWAP1 SWAP2 MSTORE DUP1 MLOAD SWAP2 DUP3 SWAP1 SUB ADD SWAP1 RETURN JUMPDEST PUSH2 0x39A PUSH1 0x4 DUP1 CALLDATASIZE SUB PUSH1 0x20 DUP2 LT ISZERO PUSH2 0x48C JUMPI PUSH1 0x0 DUP1 REVERT JUMPDEST POP CALLDATALOAD PUSH2 0xD07 JUMP JUMPDEST PUSH2 0x4B9 PUSH1 0x4 DUP1 CALLDATASIZE SUB PUSH1 0x20 DUP2 LT ISZERO PUSH2 0x4A9 JUMPI PUSH1 0x0 DUP1 REVERT JUMPDEST POP CALLDATALOAD PUSH1 0x1 PUSH1 0x1 PUSH1 0xA0 SHL SUB AND PUSH2 0xD79 JUMP JUMPDEST PUSH1 0x40 DUP1 MLOAD SWAP2 ISZERO ISZERO DUP3 MSTORE MLOAD SWAP1 DUP2 SWAP1 SUB PUSH1 0x20 ADD SWAP1 RETURN JUMPDEST PUSH2 0x32C PUSH2 0xE2D JUMP JUMPDEST PUSH2 0x45D PUSH1 0x4 DUP1 CALLDATASIZE SUB PUSH1 0x20 DUP2 LT ISZERO PUSH2 0x4EB JUMPI PUSH1 0x0 DUP1 REVERT JUMPDEST POP CALLDATALOAD PUSH2 0xE51 JUMP JUMPDEST PUSH2 0x4B9 PUSH1 0x4 DUP1 CALLDATASIZE SUB PUSH1 0x20 DUP2 LT ISZERO PUSH2 0x508 JUMPI PUSH1 0x0 DUP1 REVERT JUMPDEST POP CALLDATALOAD PUSH2 0xFF1 JUMP JUMPDEST PUSH2 0x268 PUSH2 0x1117 JUMP JUMPDEST PUSH2 0x268 PUSH1 0x4 DUP1 CALLDATASIZE SUB PUSH1 0x60 DUP2 LT ISZERO PUSH2 0x52D JUMPI PUSH1 0x0 DUP1 REVERT JUMPDEST POP PUSH1 0x1 PUSH1 0x1 PUSH1 0xA0 SHL SUB DUP2 CALLDATALOAD DUP2 AND SWAP2 PUSH1 0x20 DUP2 ADD CALLDATALOAD SWAP2 PUSH1 0x40 SWAP1 SWAP2 ADD CALLDATALOAD AND PUSH2 0x1123 JUMP JUMPDEST PUSH2 0x4B9 PUSH1 0x4 DUP1 CALLDATASIZE SUB PUSH1 0x80 DUP2 LT ISZERO PUSH2 0x563 JUMPI PUSH1 0x0 DUP1 REVERT JUMPDEST POP PUSH1 0x1 PUSH1 0x1 PUSH1 0xA0 SHL SUB DUP2 CALLDATALOAD DUP2 AND SWAP2 PUSH1 0x20 DUP2 ADD CALLDATALOAD DUP3 AND SWAP2 PUSH1 0x40 DUP3 ADD CALLDATALOAD AND SWAP1 PUSH1 0x60 ADD CALLDATALOAD PUSH2 0x14E6 JUMP JUMPDEST PUSH2 0x268 PUSH1 0x4 DUP1 CALLDATASIZE SUB PUSH1 0x20 DUP2 LT ISZERO PUSH2 0x59F JUMPI PUSH1 0x0 DUP1 REVERT JUMPDEST POP CALLDATALOAD PUSH2 0x180F JUMP JUMPDEST PUSH2 0x268 PUSH2 0x183C JUMP JUMPDEST PUSH2 0x32C PUSH1 0x4 DUP1 CALLDATASIZE SUB PUSH1 0x20 DUP2 LT ISZERO PUSH2 0x5C4 JUMPI PUSH1 0x0 DUP1 REVERT JUMPDEST POP CALLDATALOAD PUSH2 0x1847 JUMP JUMPDEST PUSH2 0x32C PUSH2 0x18AE JUMP JUMPDEST PUSH2 0x32C PUSH1 0x4 DUP1 CALLDATASIZE SUB PUSH1 0x20 DUP2 LT ISZERO PUSH2 0x5E9 JUMPI PUSH1 0x0 DUP1 REVERT JUMPDEST POP CALLDATALOAD PUSH1 0x1 PUSH1 0x1 PUSH1 0xA0 SHL SUB AND PUSH2 0x1A21 JUMP JUMPDEST PUSH2 0x39A PUSH2 0x1AEA JUMP JUMPDEST PUSH2 0x4B9 PUSH1 0x4 DUP1 CALLDATASIZE SUB PUSH1 0x20 DUP2 LT ISZERO PUSH2 0x617 JUMPI PUSH1 0x0 DUP1 REVERT JUMPDEST POP CALLDATALOAD PUSH1 0x1 PUSH1 0x1 PUSH1 0xA0 SHL SUB AND PUSH2 0x1AF9 JUMP JUMPDEST PUSH2 0x268 PUSH1 0x4 DUP1 CALLDATASIZE SUB PUSH1 0x20 DUP2 LT ISZERO PUSH2 0x63D JUMPI PUSH1 0x0 DUP1 REVERT JUMPDEST POP CALLDATALOAD PUSH2 0x1B06 JUMP JUMPDEST PUSH2 0x32C PUSH1 0x4 DUP1 CALLDATASIZE SUB PUSH1 0x20 DUP2 LT ISZERO PUSH2 0x65A JUMPI PUSH1 0x0 DUP1 REVERT JUMPDEST POP CALLDATALOAD PUSH1 0x1 PUSH1 0x1 PUSH1 0xA0 SHL SUB AND PUSH2 0x1BFC JUMP JUMPDEST PUSH2 0x4B9 PUSH1 0x4 DUP1 CALLDATASIZE SUB PUSH1 0x20 DUP2 LT ISZERO PUSH2 0x680 JUMPI PUSH1 0x0 DUP1 REVERT JUMPDEST POP CALLDATALOAD PUSH1 0x1 PUSH1 0x1 PUSH1 0xA0 SHL SUB AND PUSH2 0x1CFE JUMP JUMPDEST PUSH2 0x39A PUSH2 0x1DB2 JUMP JUMPDEST PUSH2 0x32C PUSH1 0x4 DUP1 CALLDATASIZE SUB PUSH1 0x60 DUP2 LT ISZERO PUSH2 0x6AE JUMPI PUSH1 0x0 DUP1 REVERT JUMPDEST POP DUP1 CALLDATALOAD SWAP1 PUSH1 0x1 PUSH1 0x1 PUSH1 0xA0 SHL SUB PUSH1 0x20 DUP3 ADD CALLDATALOAD AND SWAP1 PUSH1 0x40 ADD CALLDATALOAD ISZERO ISZERO PUSH2 0x1DC1 JUMP JUMPDEST PUSH1 0xC PUSH1 0x20 MSTORE PUSH1 0x0 SWAP1 DUP2 MSTORE PUSH1 0x40 SWAP1 KECCAK256 SLOAD DUP2 JUMP JUMPDEST PUSH1 0xD SLOAD SWAP1 JUMP JUMPDEST PUSH1 0x0 PUSH1 0x5 SLOAD PUSH1 0x0 EQ ISZERO PUSH2 0x6F9 JUMPI POP PUSH1 0x0 PUSH2 0x746 JUMP JUMPDEST PUSH1 0x4 SLOAD DUP3 GT ISZERO PUSH2 0x742 JUMPI PUSH2 0x73B PUSH1 0x5 SLOAD PUSH2 0x72F PUSH1 0x1 PUSH2 0x723 PUSH1 0x4 SLOAD DUP8 PUSH2 0x202F SWAP1 SWAP2 SWAP1 PUSH4 0xFFFFFFFF AND JUMP JUMPDEST SWAP1 PUSH4 0xFFFFFFFF PUSH2 0x202F AND JUMP JUMPDEST SWAP1 PUSH4 0xFFFFFFFF PUSH2 0x2071 AND JUMP JUMPDEST SWAP1 POP PUSH2 0x746 JUMP JUMPDEST POP PUSH1 0x0 JUMPDEST SWAP2 SWAP1 POP JUMP JUMPDEST PUSH1 0xD DUP2 DUP2 SLOAD DUP2 LT PUSH2 0x758 JUMPI INVALID JUMPDEST PUSH1 0x0 SWAP2 DUP3 MSTORE PUSH1 0x20 SWAP1 SWAP2 KECCAK256 PUSH1 0x6 SWAP1 SWAP2 MUL ADD DUP1 SLOAD PUSH1 0x1 DUP3 ADD SLOAD PUSH1 0x2 DUP4 ADD SLOAD PUSH1 0x3 DUP5 ADD SLOAD PUSH1 0x4 DUP6 ADD SLOAD PUSH1 0x5 SWAP1 SWAP6 ADD SLOAD PUSH1 0x1 PUSH1 0x1 PUSH1 0xA0 SHL SUB SWAP1 SWAP5 AND SWAP6 POP SWAP2 SWAP4 SWAP1 SWAP3 DUP7 JUMP JUMPDEST PUSH1 0x6 SLOAD DUP2 JUMP JUMPDEST PUSH2 0x7A6 PUSH2 0x20B3 JUMP JUMPDEST PUSH1 0x1 PUSH1 0x1 PUSH1 0xA0 SHL SUB AND PUSH2 0x7B7 PUSH2 0xCCE JUMP JUMPDEST PUSH1 0x1 PUSH1 0x1 PUSH1 0xA0 SHL SUB AND EQ PUSH2 0x800 JUMPI PUSH1 0x40 DUP1 MLOAD PUSH3 0x461BCD PUSH1 0xE5 SHL DUP2 MSTORE PUSH1 0x20 PUSH1 0x4 DUP3 ADD DUP2 SWAP1 MSTORE PUSH1 0x24 DUP3 ADD MSTORE PUSH1 0x0 DUP1 MLOAD PUSH1 0x20 PUSH2 0x2612 DUP4 CODECOPY DUP2 MLOAD SWAP2 MSTORE PUSH1 0x44 DUP3 ADD MSTORE SWAP1 MLOAD SWAP1 DUP2 SWAP1 SUB PUSH1 0x64 ADD SWAP1 REVERT JUMPDEST DUP1 ISZERO PUSH2 0x80E JUMPI PUSH2 0x80E PUSH2 0xE2D JUMP JUMPDEST PUSH2 0x851 DUP3 PUSH2 0x845 PUSH1 0xD DUP7 DUP2 SLOAD DUP2 LT PUSH2 0x822 JUMPI INVALID JUMPDEST SWAP1 PUSH1 0x0 MSTORE PUSH1 0x20 PUSH1 0x0 KECCAK256 SWAP1 PUSH1 0x6 MUL ADD PUSH1 0x3 ADD SLOAD PUSH1 0x6 SLOAD PUSH2 0x202F SWAP1 SWAP2 SWAP1 PUSH4 0xFFFFFFFF AND JUMP JUMPDEST SWAP1 PUSH4 0xFFFFFFFF PUSH2 0x20B7 AND JUMP JUMPDEST PUSH1 0x6 DUP2 SWAP1 SSTORE POP DUP2 PUSH1 0xD DUP5 DUP2 SLOAD DUP2 LT PUSH2 0x865 JUMPI INVALID JUMPDEST SWAP1 PUSH1 0x0 MSTORE PUSH1 0x20 PUSH1 0x0 KECCAK256 SWAP1 PUSH1 0x6 MUL ADD PUSH1 0x3 ADD DUP2 SWAP1 SSTORE POP POP POP POP JUMP JUMPDEST PUSH1 0x0 PUSH2 0x88A NUMBER PUSH2 0x180F JUMP JUMPDEST SWAP1 POP SWAP1 JUMP JUMPDEST PUSH1 0x0 DUP1 PUSH1 0x0 DUP1 PUSH1 0x0 DUP1 PUSH1 0x1 PUSH1 0xD DUP1 SLOAD SWAP1 POP SUB DUP8 GT ISZERO PUSH2 0x8F5 JUMPI PUSH1 0x40 DUP1 MLOAD PUSH3 0x461BCD PUSH1 0xE5 SHL DUP2 MSTORE PUSH1 0x20 PUSH1 0x4 DUP3 ADD MSTORE PUSH1 0x1E PUSH1 0x24 DUP3 ADD MSTORE PUSH32 0x537761704D696E696E673A204E6F742066696E64207468697320706F6F6C0000 PUSH1 0x44 DUP3 ADD MSTORE SWAP1 MLOAD SWAP1 DUP2 SWAP1 SUB PUSH1 0x64 ADD SWAP1 REVERT JUMPDEST PUSH2 0x8FD PUSH2 0x244C JUMP JUMPDEST PUSH1 0xD DUP9 DUP2 SLOAD DUP2 LT PUSH2 0x90A JUMPI INVALID JUMPDEST PUSH1 0x0 SWAP2 DUP3 MSTORE PUSH1 0x20 DUP1 DUP4 KECCAK256 PUSH1 0x40 DUP1 MLOAD PUSH1 0xC0 DUP2 ADD DUP3 MSTORE PUSH1 0x6 SWAP1 SWAP5 MUL SWAP1 SWAP2 ADD DUP1 SLOAD PUSH1 0x1 PUSH1 0x1 PUSH1 0xA0 SHL SUB AND DUP1 DUP6 MSTORE PUSH1 0x1 DUP3 ADD SLOAD DUP6 DUP6 ADD MSTORE PUSH1 0x2 DUP3 ADD SLOAD DUP6 DUP5 ADD MSTORE PUSH1 0x3 DUP3 ADD SLOAD PUSH1 0x60 DUP7 ADD MSTORE PUSH1 0x4 DUP1 DUP4 ADD SLOAD PUSH1 0x80 DUP8 ADD MSTORE PUSH1 0x5 SWAP1 SWAP3 ADD SLOAD PUSH1 0xA0 DUP7 ADD MSTORE DUP3 MLOAD PUSH4 0xDFE1681 PUSH1 0xE0 SHL DUP2 MSTORE SWAP3 MLOAD SWAP5 SWAP7 POP SWAP4 PUSH4 0xDFE1681 SWAP4 DUP4 DUP4 ADD SWAP4 SWAP1 SWAP3 SWAP1 DUP3 SWAP1 SUB ADD DUP2 DUP7 DUP1 EXTCODESIZE ISZERO DUP1 ISZERO PUSH2 0x999 JUMPI PUSH1 0x0 DUP1 REVERT JUMPDEST POP GAS STATICCALL ISZERO DUP1 ISZERO PUSH2 0x9AD JUMPI RETURNDATASIZE PUSH1 0x0 DUP1 RETURNDATACOPY RETURNDATASIZE PUSH1 0x0 REVERT JUMPDEST POP POP POP POP PUSH1 0x40 MLOAD RETURNDATASIZE PUSH1 0x20 DUP2 LT ISZERO PUSH2 0x9C3 JUMPI PUSH1 0x0 DUP1 REVERT JUMPDEST POP MLOAD DUP3 MLOAD PUSH1 0x40 DUP1 MLOAD PUSH4 0xD21220A7 PUSH1 0xE0 SHL DUP2 MSTORE SWAP1 MLOAD SWAP3 SWAP4 POP PUSH1 0x0 SWAP3 PUSH1 0x1 PUSH1 0x1 PUSH1 0xA0 SHL SUB SWAP1 SWAP3 AND SWAP2 PUSH4 0xD21220A7 SWAP2 PUSH1 0x4 DUP1 DUP3 ADD SWAP3 PUSH1 0x20 SWAP3 SWAP1 SWAP2 SWAP1 DUP3 SWAP1 SUB ADD DUP2 DUP7 DUP1 EXTCODESIZE ISZERO DUP1 ISZERO PUSH2 0xA0F JUMPI PUSH1 0x0 DUP1 REVERT JUMPDEST POP GAS STATICCALL ISZERO DUP1 ISZERO PUSH2 0xA23 JUMPI RETURNDATASIZE PUSH1 0x0 DUP1 RETURNDATACOPY RETURNDATASIZE PUSH1 0x0 REVERT JUMPDEST POP POP POP POP PUSH1 0x40 MLOAD RETURNDATASIZE PUSH1 0x20 DUP2 LT ISZERO PUSH2 0xA39 JUMPI PUSH1 0x0 DUP1 REVERT JUMPDEST POP MLOAD PUSH1 0x80 DUP5 ADD MLOAD PUSH1 0xA0 DUP6 ADD MLOAD SWAP2 SWAP3 POP SWAP1 PUSH1 0x0 SWAP1 PUSH2 0xA55 SWAP1 PUSH2 0x1B06 JUMP JUMPDEST SWAP1 POP PUSH1 0x0 PUSH2 0xA76 PUSH1 0x6 SLOAD PUSH2 0x72F DUP9 PUSH1 0x60 ADD MLOAD DUP6 PUSH2 0x2111 SWAP1 SWAP2 SWAP1 PUSH4 0xFFFFFFFF AND JUMP JUMPDEST SWAP1 POP PUSH2 0xA88 DUP4 DUP3 PUSH4 0xFFFFFFFF PUSH2 0x20B7 AND JUMP JUMPDEST PUSH1 0x40 DUP8 ADD MLOAD PUSH1 0x20 DUP9 ADD MLOAD PUSH1 0x60 SWAP1 SWAP9 ADD MLOAD SWAP7 SWAP16 SWAP6 SWAP15 POP SWAP1 SWAP13 POP SWAP11 POP SWAP5 SWAP9 POP SWAP3 SWAP7 POP SWAP1 SWAP5 POP POP POP POP POP JUMP JUMPDEST PUSH1 0xB SLOAD PUSH1 0x1 PUSH1 0x1 PUSH1 0xA0 SHL SUB AND DUP2 JUMP JUMPDEST PUSH1 0x4 SLOAD DUP2 JUMP JUMPDEST PUSH1 0xA SLOAD PUSH1 0x1 PUSH1 0x1 PUSH1 0xA0 SHL SUB AND DUP2 JUMP JUMPDEST PUSH1 0x5 SLOAD DUP2 JUMP JUMPDEST PUSH2 0xAE3 PUSH2 0x20B3 JUMP JUMPDEST PUSH1 0x1 PUSH1 0x1 PUSH1 0xA0 SHL SUB AND PUSH2 0xAF4 PUSH2 0xCCE JUMP JUMPDEST PUSH1 0x1 PUSH1 0x1 PUSH1 0xA0 SHL SUB AND EQ PUSH2 0xB3D JUMPI PUSH1 0x40 DUP1 MLOAD PUSH3 0x461BCD PUSH1 0xE5 SHL DUP2 MSTORE PUSH1 0x20 PUSH1 0x4 DUP3 ADD DUP2 SWAP1 MSTORE PUSH1 0x24 DUP3 ADD MSTORE PUSH1 0x0 DUP1 MLOAD PUSH1 0x20 PUSH2 0x2612 DUP4 CODECOPY DUP2 MLOAD SWAP2 MSTORE PUSH1 0x44 DUP3 ADD MSTORE SWAP1 MLOAD SWAP1 DUP2 SWAP1 SUB PUSH1 0x64 ADD SWAP1 REVERT JUMPDEST PUSH1 0x0 DUP1 SLOAD PUSH1 0x40 MLOAD PUSH1 0x1 PUSH1 0x1 PUSH1 0xA0 SHL SUB SWAP1 SWAP2 AND SWAP1 PUSH32 0x8BE0079C531659141344CD1FD0A4F28419497F9722A3DAAFE3B4186F6B6457E0 SWAP1 DUP4 SWAP1 LOG3 PUSH1 0x0 DUP1 SLOAD PUSH1 0x1 PUSH1 0x1 PUSH1 0xA0 SHL SUB NOT AND SWAP1 SSTORE JUMP JUMPDEST PUSH2 0xB8F PUSH2 0x20B3 JUMP JUMPDEST PUSH1 0x1 PUSH1 0x1 PUSH1 0xA0 SHL SUB AND PUSH2 0xBA0 PUSH2 0xCCE JUMP JUMPDEST PUSH1 0x1 PUSH1 0x1 PUSH1 0xA0 SHL SUB AND EQ PUSH2 0xBE9 JUMPI PUSH1 0x40 DUP1 MLOAD PUSH3 0x461BCD PUSH1 0xE5 SHL DUP2 MSTORE PUSH1 0x20 PUSH1 0x4 DUP3 ADD DUP2 SWAP1 MSTORE PUSH1 0x24 DUP3 ADD MSTORE PUSH1 0x0 DUP1 MLOAD PUSH1 0x20 PUSH2 0x2612 DUP4 CODECOPY DUP2 MLOAD SWAP2 MSTORE PUSH1 0x44 DUP3 ADD MSTORE SWAP1 MLOAD SWAP1 DUP2 SWAP1 SUB PUSH1 0x64 ADD SWAP1 REVERT JUMPDEST PUSH2 0xBF1 PUSH2 0xE2D JUMP JUMPDEST PUSH1 0x3 SSTORE JUMP JUMPDEST PUSH2 0xBFE PUSH2 0x20B3 JUMP JUMPDEST PUSH1 0x1 PUSH1 0x1 PUSH1 0xA0 SHL SUB AND PUSH2 0xC0F PUSH2 0xCCE JUMP JUMPDEST PUSH1 0x1 PUSH1 0x1 PUSH1 0xA0 SHL SUB AND EQ PUSH2 0xC58 JUMPI PUSH1 0x40 DUP1 MLOAD PUSH3 0x461BCD PUSH1 0xE5 SHL DUP2 MSTORE PUSH1 0x20 PUSH1 0x4 DUP3 ADD DUP2 SWAP1 MSTORE PUSH1 0x24 DUP3 ADD MSTORE PUSH1 0x0 DUP1 MLOAD PUSH1 0x20 PUSH2 0x2612 DUP4 CODECOPY DUP2 MLOAD SWAP2 MSTORE PUSH1 0x44 DUP3 ADD MSTORE SWAP1 MLOAD SWAP1 DUP2 SWAP1 SUB PUSH1 0x64 ADD SWAP1 REVERT JUMPDEST PUSH1 0x1 PUSH1 0x1 PUSH1 0xA0 SHL SUB DUP2 AND PUSH2 0xC9D JUMPI PUSH1 0x40 MLOAD PUSH3 0x461BCD PUSH1 0xE5 SHL DUP2 MSTORE PUSH1 0x4 ADD DUP1 DUP1 PUSH1 0x20 ADD DUP3 DUP2 SUB DUP3 MSTORE PUSH1 0x2A DUP2 MSTORE PUSH1 0x20 ADD DUP1 PUSH2 0x25A3 PUSH1 0x2A SWAP2 CODECOPY PUSH1 0x40 ADD SWAP2 POP POP PUSH1 0x40 MLOAD DUP1 SWAP2 SUB SWAP1 REVERT JUMPDEST PUSH1 0x7 DUP1 SLOAD PUSH1 0x1 PUSH1 0x1 PUSH1 0xA0 SHL SUB NOT AND PUSH1 0x1 PUSH1 0x1 PUSH1 0xA0 SHL SUB SWAP3 SWAP1 SWAP3 AND SWAP2 SWAP1 SWAP2 OR SWAP1 SSTORE JUMP JUMPDEST PUSH1 0x7 SLOAD PUSH1 0x1 PUSH1 0x1 PUSH1 0xA0 SHL SUB AND DUP2 JUMP JUMPDEST PUSH1 0x0 SLOAD PUSH1 0x1 PUSH1 0x1 PUSH1 0xA0 SHL SUB AND SWAP1 JUMP JUMPDEST PUSH1 0x3 SLOAD DUP2 JUMP JUMPDEST PUSH1 0xE PUSH1 0x20 SWAP1 DUP2 MSTORE PUSH1 0x0 SWAP3 DUP4 MSTORE PUSH1 0x40 DUP1 DUP5 KECCAK256 SWAP1 SWAP2 MSTORE SWAP1 DUP3 MSTORE SWAP1 KECCAK256 DUP1 SLOAD PUSH1 0x1 SWAP1 SWAP2 ADD SLOAD DUP3 JUMP JUMPDEST PUSH1 0x0 PUSH1 0x1 PUSH2 0xD13 PUSH2 0x1117 JUMP JUMPDEST SUB DUP3 GT ISZERO PUSH2 0xD68 JUMPI PUSH1 0x40 DUP1 MLOAD PUSH3 0x461BCD PUSH1 0xE5 SHL DUP2 MSTORE PUSH1 0x20 PUSH1 0x4 DUP3 ADD MSTORE PUSH1 0x1F PUSH1 0x24 DUP3 ADD MSTORE PUSH32 0x537761704D696E696E673A20696E646578206F7574206F6620626F756E647300 PUSH1 0x44 DUP3 ADD MSTORE SWAP1 MLOAD SWAP1 DUP2 SWAP1 SUB PUSH1 0x64 ADD SWAP1 REVERT JUMPDEST PUSH2 0xD73 PUSH1 0x1 DUP4 PUSH2 0x216A JUMP JUMPDEST SWAP3 SWAP2 POP POP JUMP JUMPDEST PUSH1 0x0 PUSH2 0xD83 PUSH2 0x20B3 JUMP JUMPDEST PUSH1 0x1 PUSH1 0x1 PUSH1 0xA0 SHL SUB AND PUSH2 0xD94 PUSH2 0xCCE JUMP JUMPDEST PUSH1 0x1 PUSH1 0x1 PUSH1 0xA0 SHL SUB AND EQ PUSH2 0xDDD JUMPI PUSH1 0x40 DUP1 MLOAD PUSH3 0x461BCD PUSH1 0xE5 SHL DUP2 MSTORE PUSH1 0x20 PUSH1 0x4 DUP3 ADD DUP2 SWAP1 MSTORE PUSH1 0x24 DUP3 ADD MSTORE PUSH1 0x0 DUP1 MLOAD PUSH1 0x20 PUSH2 0x2612 DUP4 CODECOPY DUP2 MLOAD SWAP2 MSTORE PUSH1 0x44 DUP3 ADD MSTORE SWAP1 MLOAD SWAP1 DUP2 SWAP1 SUB PUSH1 0x64 ADD SWAP1 REVERT JUMPDEST PUSH1 0x1 PUSH1 0x1 PUSH1 0xA0 SHL SUB DUP3 AND PUSH2 0xE22 JUMPI PUSH1 0x40 MLOAD PUSH3 0x461BCD PUSH1 0xE5 SHL DUP2 MSTORE PUSH1 0x4 ADD DUP1 DUP1 PUSH1 0x20 ADD DUP3 DUP2 SUB DUP3 MSTORE PUSH1 0x25 DUP2 MSTORE PUSH1 0x20 ADD DUP1 PUSH2 0x254D PUSH1 0x25 SWAP2 CODECOPY PUSH1 0x40 ADD SWAP2 POP POP PUSH1 0x40 MLOAD DUP1 SWAP2 SUB SWAP1 REVERT JUMPDEST PUSH2 0xD73 PUSH1 0x1 DUP4 PUSH2 0x2176 JUMP JUMPDEST PUSH1 0xD SLOAD PUSH1 0x0 JUMPDEST DUP2 DUP2 LT ISZERO PUSH2 0xE4D JUMPI PUSH2 0xE44 DUP2 PUSH2 0xFF1 JUMP JUMPDEST POP PUSH1 0x1 ADD PUSH2 0xE33 JUMP JUMPDEST POP POP JUMP JUMPDEST PUSH1 0xD SLOAD PUSH1 0x0 SWAP1 DUP2 SWAP1 PUSH1 0x0 NOT ADD DUP4 GT ISZERO PUSH2 0xEB1 JUMPI PUSH1 0x40 DUP1 MLOAD PUSH3 0x461BCD PUSH1 0xE5 SHL DUP2 MSTORE PUSH1 0x20 PUSH1 0x4 DUP3 ADD MSTORE PUSH1 0x1E PUSH1 0x24 DUP3 ADD MSTORE PUSH32 0x537761704D696E696E673A204E6F742066696E64207468697320706F6F6C0000 PUSH1 0x44 DUP3 ADD MSTORE SWAP1 MLOAD SWAP1 DUP2 SWAP1 SUB PUSH1 0x64 ADD SWAP1 REVERT JUMPDEST PUSH1 0x0 PUSH2 0xEBB PUSH2 0x244C JUMP JUMPDEST PUSH1 0xD DUP6 DUP2 SLOAD DUP2 LT PUSH2 0xEC8 JUMPI INVALID JUMPDEST PUSH1 0x0 SWAP2 DUP3 MSTORE PUSH1 0x20 SWAP2 DUP3 SWAP1 KECCAK256 PUSH1 0x40 DUP1 MLOAD PUSH1 0xC0 DUP2 ADD DUP3 MSTORE PUSH1 0x6 SWAP1 SWAP4 MUL SWAP1 SWAP2 ADD DUP1 SLOAD PUSH1 0x1 PUSH1 0x1 PUSH1 0xA0 SHL SUB AND DUP4 MSTORE PUSH1 0x1 DUP2 ADD SLOAD SWAP4 DUP4 ADD SWAP4 SWAP1 SWAP4 MSTORE PUSH1 0x2 DUP4 ADD SLOAD SWAP1 DUP3 ADD MSTORE PUSH1 0x3 DUP3 ADD SLOAD PUSH1 0x60 DUP3 ADD MSTORE PUSH1 0x4 DUP3 ADD SLOAD PUSH1 0x80 DUP3 ADD MSTORE PUSH1 0x5 SWAP1 SWAP2 ADD SLOAD PUSH1 0xA0 DUP3 ADD MSTORE SWAP1 POP PUSH2 0xF30 PUSH2 0x248B JUMP JUMPDEST POP PUSH1 0x0 DUP6 DUP2 MSTORE PUSH1 0xE PUSH1 0x20 SWAP1 DUP2 MSTORE PUSH1 0x40 DUP1 DUP4 KECCAK256 CALLER DUP5 MSTORE DUP3 MSTORE SWAP2 DUP3 SWAP1 KECCAK256 DUP3 MLOAD DUP1 DUP5 ADD SWAP1 SWAP4 MSTORE DUP1 SLOAD DUP1 DUP5 MSTORE PUSH1 0x1 SWAP1 SWAP2 ADD SLOAD SWAP2 DUP4 ADD SWAP2 SWAP1 SWAP2 MSTORE ISZERO PUSH2 0xFE4 JUMPI PUSH1 0x0 PUSH2 0xF79 DUP4 PUSH1 0xA0 ADD MLOAD PUSH2 0x1B06 JUMP JUMPDEST SWAP1 POP PUSH1 0x0 PUSH2 0xF9A PUSH1 0x6 SLOAD PUSH2 0x72F DUP7 PUSH1 0x60 ADD MLOAD DUP6 PUSH2 0x2111 SWAP1 SWAP2 SWAP1 PUSH4 0xFFFFFFFF AND JUMP JUMPDEST SWAP1 POP PUSH2 0xFDF PUSH2 0xFD2 DUP6 PUSH1 0x20 ADD MLOAD PUSH2 0x72F DUP7 PUSH1 0x0 ADD MLOAD PUSH2 0xFC6 DUP7 DUP11 PUSH1 0x80 ADD MLOAD PUSH2 0x20B7 SWAP1 SWAP2 SWAP1 PUSH4 0xFFFFFFFF AND JUMP JUMPDEST SWAP1 PUSH4 0xFFFFFFFF PUSH2 0x2111 AND JUMP JUMPDEST DUP7 SWAP1 PUSH4 0xFFFFFFFF PUSH2 0x20B7 AND JUMP JUMPDEST SWAP5 POP POP POP JUMPDEST MLOAD SWAP2 SWAP4 POP SWAP1 SWAP2 POP POP SWAP2 POP SWAP2 JUMP JUMPDEST PUSH1 0x0 DUP1 PUSH1 0xD DUP4 DUP2 SLOAD DUP2 LT PUSH2 0x1001 JUMPI INVALID JUMPDEST SWAP1 PUSH1 0x0 MSTORE PUSH1 0x20 PUSH1 0x0 KECCAK256 SWAP1 PUSH1 0x6 MUL ADD SWAP1 POP DUP1 PUSH1 0x5 ADD SLOAD NUMBER GT PUSH2 0x1026 JUMPI PUSH1 0x0 SWAP2 POP POP PUSH2 0x746 JUMP JUMPDEST PUSH1 0x0 PUSH2 0x1035 DUP3 PUSH1 0x5 ADD SLOAD PUSH2 0x1B06 JUMP JUMPDEST SWAP1 POP PUSH1 0x0 DUP2 GT PUSH2 0x104A JUMPI PUSH1 0x0 SWAP3 POP POP POP PUSH2 0x746 JUMP JUMPDEST PUSH1 0x0 PUSH2 0x1069 PUSH1 0x6 SLOAD PUSH2 0x72F DUP6 PUSH1 0x3 ADD SLOAD DUP6 PUSH2 0x2111 SWAP1 SWAP2 SWAP1 PUSH4 0xFFFFFFFF AND JUMP JUMPDEST PUSH1 0xA SLOAD PUSH1 0x40 DUP1 MLOAD PUSH4 0x40C10F19 PUSH1 0xE0 SHL DUP2 MSTORE ADDRESS PUSH1 0x4 DUP3 ADD MSTORE PUSH1 0x24 DUP2 ADD DUP5 SWAP1 MSTORE SWAP1 MLOAD SWAP3 SWAP4 POP PUSH1 0x1 PUSH1 0x1 PUSH1 0xA0 SHL SUB SWAP1 SWAP2 AND SWAP2 PUSH4 0x40C10F19 SWAP2 PUSH1 0x44 DUP1 DUP3 ADD SWAP3 PUSH1 0x20 SWAP3 SWAP1 SWAP2 SWAP1 DUP3 SWAP1 SUB ADD DUP2 PUSH1 0x0 DUP8 DUP1 EXTCODESIZE ISZERO DUP1 ISZERO PUSH2 0x10C0 JUMPI PUSH1 0x0 DUP1 REVERT JUMPDEST POP GAS CALL ISZERO DUP1 ISZERO PUSH2 0x10D4 JUMPI RETURNDATASIZE PUSH1 0x0 DUP1 RETURNDATACOPY RETURNDATASIZE PUSH1 0x0 REVERT JUMPDEST POP POP POP POP PUSH1 0x40 MLOAD RETURNDATASIZE PUSH1 0x20 DUP2 LT ISZERO PUSH2 0x10EA JUMPI PUSH1 0x0 DUP1 REVERT JUMPDEST POP POP PUSH1 0x4 DUP4 ADD SLOAD PUSH2 0x1101 SWAP1 DUP3 PUSH4 0xFFFFFFFF PUSH2 0x20B7 AND JUMP JUMPDEST PUSH1 0x4 DUP5 ADD SSTORE POP POP NUMBER PUSH1 0x5 SWAP1 SWAP2 ADD SSTORE POP PUSH1 0x1 SWAP2 SWAP1 POP JUMP JUMPDEST PUSH1 0x0 PUSH2 0x88A PUSH1 0x1 PUSH2 0x218B JUMP JUMPDEST PUSH1 0x0 DUP1 PUSH1 0x1 PUSH1 0x1 PUSH1 0xA0 SHL SUB DUP6 DUP2 AND SWAP1 DUP5 AND EQ ISZERO PUSH2 0x1141 JUMPI POP DUP3 PUSH2 0x14DE JUMP JUMPDEST PUSH1 0x9 SLOAD PUSH1 0x40 DUP1 MLOAD PUSH4 0xE6A43905 PUSH1 0xE0 SHL DUP2 MSTORE PUSH1 0x1 PUSH1 0x1 PUSH1 0xA0 SHL SUB DUP9 DUP2 AND PUSH1 0x4 DUP4 ADD MSTORE DUP7 DUP2 AND PUSH1 0x24 DUP4 ADD MSTORE SWAP2 MLOAD PUSH1 0x0 SWAP4 SWAP1 SWAP3 AND SWAP2 PUSH4 0xE6A43905 SWAP2 PUSH1 0x44 DUP1 DUP3 ADD SWAP3 PUSH1 0x20 SWAP3 SWAP1 SWAP2 SWAP1 DUP3 SWAP1 SUB ADD DUP2 DUP7 DUP1 EXTCODESIZE ISZERO DUP1 ISZERO PUSH2 0x1199 JUMPI PUSH1 0x0 DUP1 REVERT JUMPDEST POP GAS STATICCALL ISZERO DUP1 ISZERO PUSH2 0x11AD JUMPI RETURNDATASIZE PUSH1 0x0 DUP1 RETURNDATACOPY RETURNDATASIZE PUSH1 0x0 REVERT JUMPDEST POP POP POP POP PUSH1 0x40 MLOAD RETURNDATASIZE PUSH1 0x20 DUP2 LT ISZERO PUSH2 0x11C3 JUMPI PUSH1 0x0 DUP1 REVERT JUMPDEST POP MLOAD PUSH1 0x1 PUSH1 0x1 PUSH1 0xA0 SHL SUB AND EQ PUSH2 0x1262 JUMPI PUSH1 0x7 SLOAD PUSH1 0x40 DUP1 MLOAD PUSH4 0x2321BC79 PUSH1 0xE2 SHL DUP2 MSTORE PUSH1 0x1 PUSH1 0x1 PUSH1 0xA0 SHL SUB DUP9 DUP2 AND PUSH1 0x4 DUP4 ADD MSTORE PUSH1 0x24 DUP3 ADD DUP9 SWAP1 MSTORE DUP7 DUP2 AND PUSH1 0x44 DUP4 ADD MSTORE SWAP2 MLOAD SWAP2 SWAP1 SWAP3 AND SWAP2 PUSH4 0x8C86F1E4 SWAP2 PUSH1 0x64 DUP1 DUP4 ADD SWAP3 PUSH1 0x20 SWAP3 SWAP2 SWAP1 DUP3 SWAP1 SUB ADD DUP2 DUP7 DUP1 EXTCODESIZE ISZERO DUP1 ISZERO PUSH2 0x122F JUMPI PUSH1 0x0 DUP1 REVERT JUMPDEST POP GAS STATICCALL ISZERO DUP1 ISZERO PUSH2 0x1243 JUMPI RETURNDATASIZE PUSH1 0x0 DUP1 RETURNDATACOPY RETURNDATASIZE PUSH1 0x0 REVERT JUMPDEST POP POP POP POP PUSH1 0x40 MLOAD RETURNDATASIZE PUSH1 0x20 DUP2 LT ISZERO PUSH2 0x1259 JUMPI PUSH1 0x0 DUP1 REVERT JUMPDEST POP MLOAD SWAP1 POP PUSH2 0x14DE JUMP JUMPDEST PUSH1 0x0 PUSH2 0x126C PUSH2 0x1117 JUMP JUMPDEST SWAP1 POP PUSH1 0x0 JUMPDEST DUP2 DUP2 LT ISZERO PUSH2 0x14DB JUMPI PUSH1 0x0 PUSH2 0x1284 DUP3 PUSH2 0xD07 JUMP JUMPDEST PUSH1 0x9 SLOAD PUSH1 0x40 DUP1 MLOAD PUSH4 0xE6A43905 PUSH1 0xE0 SHL DUP2 MSTORE PUSH1 0x1 PUSH1 0x1 PUSH1 0xA0 SHL SUB DUP13 DUP2 AND PUSH1 0x4 DUP4 ADD MSTORE DUP5 DUP2 AND PUSH1 0x24 DUP4 ADD MSTORE SWAP2 MLOAD SWAP4 SWAP5 POP PUSH1 0x0 SWAP4 SWAP2 SWAP1 SWAP3 AND SWAP2 PUSH4 0xE6A43905 SWAP2 PUSH1 0x44 DUP1 DUP4 ADD SWAP3 PUSH1 0x20 SWAP3 SWAP2 SWAP1 DUP3 SWAP1 SUB ADD DUP2 DUP7 DUP1 EXTCODESIZE ISZERO DUP1 ISZERO PUSH2 0x12DF JUMPI PUSH1 0x0 DUP1 REVERT JUMPDEST POP GAS STATICCALL ISZERO DUP1 ISZERO PUSH2 0x12F3 JUMPI RETURNDATASIZE PUSH1 0x0 DUP1 RETURNDATACOPY RETURNDATASIZE PUSH1 0x0 REVERT JUMPDEST POP POP POP POP PUSH1 0x40 MLOAD RETURNDATASIZE PUSH1 0x20 DUP2 LT ISZERO PUSH2 0x1309 JUMPI PUSH1 0x0 DUP1 REVERT JUMPDEST POP MLOAD PUSH1 0x1 PUSH1 0x1 PUSH1 0xA0 SHL SUB AND EQ DUP1 ISZERO SWAP1 PUSH2 0x13AD JUMPI POP PUSH1 0x9 SLOAD PUSH1 0x40 DUP1 MLOAD PUSH4 0xE6A43905 PUSH1 0xE0 SHL DUP2 MSTORE PUSH1 0x1 PUSH1 0x1 PUSH1 0xA0 SHL SUB DUP5 DUP2 AND PUSH1 0x4 DUP4 ADD MSTORE DUP10 DUP2 AND PUSH1 0x24 DUP4 ADD MSTORE SWAP2 MLOAD PUSH1 0x0 SWAP4 SWAP1 SWAP3 AND SWAP2 PUSH4 0xE6A43905 SWAP2 PUSH1 0x44 DUP1 DUP3 ADD SWAP3 PUSH1 0x20 SWAP3 SWAP1 SWAP2 SWAP1 DUP3 SWAP1 SUB ADD DUP2 DUP7 DUP1 EXTCODESIZE ISZERO DUP1 ISZERO PUSH2 0x1375 JUMPI PUSH1 0x0 DUP1 REVERT JUMPDEST POP GAS STATICCALL ISZERO DUP1 ISZERO PUSH2 0x1389 JUMPI RETURNDATASIZE PUSH1 0x0 DUP1 RETURNDATACOPY RETURNDATASIZE PUSH1 0x0 REVERT JUMPDEST POP POP POP POP PUSH1 0x40 MLOAD RETURNDATASIZE PUSH1 0x20 DUP2 LT ISZERO PUSH2 0x139F JUMPI PUSH1 0x0 DUP1 REVERT JUMPDEST POP MLOAD PUSH1 0x1 PUSH1 0x1 PUSH1 0xA0 SHL SUB AND EQ ISZERO JUMPDEST ISZERO PUSH2 0x14D2 JUMPI PUSH1 0x7 SLOAD PUSH1 0x40 DUP1 MLOAD PUSH4 0x2321BC79 PUSH1 0xE2 SHL DUP2 MSTORE PUSH1 0x1 PUSH1 0x1 PUSH1 0xA0 SHL SUB DUP12 DUP2 AND PUSH1 0x4 DUP4 ADD MSTORE PUSH1 0x24 DUP3 ADD DUP12 SWAP1 MSTORE DUP5 DUP2 AND PUSH1 0x44 DUP4 ADD MSTORE SWAP2 MLOAD PUSH1 0x0 SWAP4 SWAP3 SWAP1 SWAP3 AND SWAP2 PUSH4 0x8C86F1E4 SWAP2 PUSH1 0x64 DUP1 DUP3 ADD SWAP3 PUSH1 0x20 SWAP3 SWAP1 SWAP2 SWAP1 DUP3 SWAP1 SUB ADD DUP2 DUP7 DUP1 EXTCODESIZE ISZERO DUP1 ISZERO PUSH2 0x1412 JUMPI PUSH1 0x0 DUP1 REVERT JUMPDEST POP GAS STATICCALL ISZERO DUP1 ISZERO PUSH2 0x1426 JUMPI RETURNDATASIZE PUSH1 0x0 DUP1 RETURNDATACOPY RETURNDATASIZE PUSH1 0x0 REVERT JUMPDEST POP POP POP POP PUSH1 0x40 MLOAD RETURNDATASIZE PUSH1 0x20 DUP2 LT ISZERO PUSH2 0x143C JUMPI PUSH1 0x0 DUP1 REVERT JUMPDEST POP MLOAD PUSH1 0x7 SLOAD PUSH1 0x40 DUP1 MLOAD PUSH4 0x2321BC79 PUSH1 0xE2 SHL DUP2 MSTORE PUSH1 0x1 PUSH1 0x1 PUSH1 0xA0 SHL SUB DUP7 DUP2 AND PUSH1 0x4 DUP4 ADD MSTORE PUSH1 0x24 DUP3 ADD DUP6 SWAP1 MSTORE DUP12 DUP2 AND PUSH1 0x44 DUP4 ADD MSTORE SWAP2 MLOAD SWAP4 SWAP5 POP SWAP2 AND SWAP2 PUSH4 0x8C86F1E4 SWAP2 PUSH1 0x64 DUP1 DUP3 ADD SWAP3 PUSH1 0x20 SWAP3 SWAP1 SWAP2 SWAP1 DUP3 SWAP1 SUB ADD DUP2 DUP7 DUP1 EXTCODESIZE ISZERO DUP1 ISZERO PUSH2 0x149C JUMPI PUSH1 0x0 DUP1 REVERT JUMPDEST POP GAS STATICCALL ISZERO DUP1 ISZERO PUSH2 0x14B0 JUMPI RETURNDATASIZE PUSH1 0x0 DUP1 RETURNDATACOPY RETURNDATASIZE PUSH1 0x0 REVERT JUMPDEST POP POP POP POP PUSH1 0x40 MLOAD RETURNDATASIZE PUSH1 0x20 DUP2 LT ISZERO PUSH2 0x14C6 JUMPI PUSH1 0x0 DUP1 REVERT JUMPDEST POP MLOAD SWAP5 POP PUSH2 0x14DB SWAP2 POP POP JUMP JUMPDEST POP PUSH1 0x1 ADD PUSH2 0x1271 JUMP JUMPDEST POP POP JUMPDEST SWAP5 SWAP4 POP POP POP POP JUMP JUMPDEST PUSH1 0x8 SLOAD PUSH1 0x0 SWAP1 PUSH1 0x1 PUSH1 0x1 PUSH1 0xA0 SHL SUB AND CALLER EQ PUSH2 0x1532 JUMPI PUSH1 0x40 MLOAD PUSH3 0x461BCD PUSH1 0xE5 SHL DUP2 MSTORE PUSH1 0x4 ADD DUP1 DUP1 PUSH1 0x20 ADD DUP3 DUP2 SUB DUP3 MSTORE PUSH1 0x24 DUP2 MSTORE PUSH1 0x20 ADD DUP1 PUSH2 0x25CD PUSH1 0x24 SWAP2 CODECOPY PUSH1 0x40 ADD SWAP2 POP POP PUSH1 0x40 MLOAD DUP1 SWAP2 SUB SWAP1 REVERT JUMPDEST PUSH1 0x1 PUSH1 0x1 PUSH1 0xA0 SHL SUB DUP6 AND PUSH2 0x1577 JUMPI PUSH1 0x40 MLOAD PUSH3 0x461BCD PUSH1 0xE5 SHL DUP2 MSTORE PUSH1 0x4 ADD DUP1 DUP1 PUSH1 0x20 ADD DUP3 DUP2 SUB DUP3 MSTORE PUSH1 0x32 DUP2 MSTORE PUSH1 0x20 ADD DUP1 PUSH2 0x2632 PUSH1 0x32 SWAP2 CODECOPY PUSH1 0x40 ADD SWAP2 POP POP PUSH1 0x40 MLOAD DUP1 SWAP2 SUB SWAP1 REVERT JUMPDEST PUSH1 0x1 PUSH1 0x1 PUSH1 0xA0 SHL SUB DUP5 AND PUSH2 0x15BC JUMPI PUSH1 0x40 MLOAD PUSH3 0x461BCD PUSH1 0xE5 SHL DUP2 MSTORE PUSH1 0x4 ADD DUP1 DUP1 PUSH1 0x20 ADD DUP3 DUP2 SUB DUP3 MSTORE PUSH1 0x30 DUP2 MSTORE PUSH1 0x20 ADD DUP1 PUSH2 0x2664 PUSH1 0x30 SWAP2 CODECOPY PUSH1 0x40 ADD SWAP2 POP POP PUSH1 0x40 MLOAD DUP1 SWAP2 SUB SWAP1 REVERT JUMPDEST PUSH1 0x1 PUSH1 0x1 PUSH1 0xA0 SHL SUB DUP4 AND PUSH2 0x1601 JUMPI PUSH1 0x40 MLOAD PUSH3 0x461BCD PUSH1 0xE5 SHL DUP2 MSTORE PUSH1 0x4 ADD DUP1 DUP1 PUSH1 0x20 ADD DUP3 DUP2 SUB DUP3 MSTORE PUSH1 0x31 DUP2 MSTORE PUSH1 0x20 ADD DUP1 PUSH2 0x2572 PUSH1 0x31 SWAP2 CODECOPY PUSH1 0x40 ADD SWAP2 POP POP PUSH1 0x40 MLOAD DUP1 SWAP2 SUB SWAP1 REVERT JUMPDEST PUSH1 0x0 PUSH2 0x160B PUSH2 0x6DE JUMP JUMPDEST GT PUSH2 0x1618 JUMPI POP PUSH1 0x0 PUSH2 0x14DE JUMP JUMPDEST PUSH2 0x1621 DUP5 PUSH2 0x1AF9 JUMP JUMPDEST ISZERO DUP1 PUSH2 0x1633 JUMPI POP PUSH2 0x1631 DUP4 PUSH2 0x1AF9 JUMP JUMPDEST ISZERO JUMPDEST ISZERO PUSH2 0x1640 JUMPI POP PUSH1 0x0 PUSH2 0x14DE JUMP JUMPDEST PUSH1 0x9 SLOAD PUSH1 0x40 DUP1 MLOAD PUSH4 0x96ED28F9 PUSH1 0xE0 SHL DUP2 MSTORE PUSH1 0x1 PUSH1 0x1 PUSH1 0xA0 SHL SUB DUP8 DUP2 AND PUSH1 0x4 DUP4 ADD MSTORE DUP7 DUP2 AND PUSH1 0x24 DUP4 ADD MSTORE SWAP2 MLOAD PUSH1 0x0 SWAP4 SWAP3 SWAP1 SWAP3 AND SWAP2 PUSH4 0x96ED28F9 SWAP2 PUSH1 0x44 DUP1 DUP3 ADD SWAP3 PUSH1 0x20 SWAP3 SWAP1 SWAP2 SWAP1 DUP3 SWAP1 SUB ADD DUP2 DUP7 DUP1 EXTCODESIZE ISZERO DUP1 ISZERO PUSH2 0x1699 JUMPI PUSH1 0x0 DUP1 REVERT JUMPDEST POP GAS STATICCALL ISZERO DUP1 ISZERO PUSH2 0x16AD JUMPI RETURNDATASIZE PUSH1 0x0 DUP1 RETURNDATACOPY RETURNDATASIZE PUSH1 0x0 REVERT JUMPDEST POP POP POP POP PUSH1 0x40 MLOAD RETURNDATASIZE PUSH1 0x20 DUP2 LT ISZERO PUSH2 0x16C3 JUMPI PUSH1 0x0 DUP1 REVERT JUMPDEST POP MLOAD PUSH1 0x1 PUSH1 0x1 PUSH1 0xA0 SHL SUB DUP2 AND PUSH1 0x0 SWAP1 DUP2 MSTORE PUSH1 0xC PUSH1 0x20 MSTORE PUSH1 0x40 DUP2 KECCAK256 SLOAD PUSH1 0xD DUP1 SLOAD SWAP4 SWAP5 POP SWAP2 SWAP3 DUP2 LT PUSH2 0x16EF JUMPI INVALID JUMPDEST PUSH1 0x0 SWAP2 DUP3 MSTORE PUSH1 0x20 SWAP1 SWAP2 KECCAK256 PUSH1 0x6 SWAP1 SWAP2 MUL ADD DUP1 SLOAD SWAP1 SWAP2 POP PUSH1 0x1 PUSH1 0x1 PUSH1 0xA0 SHL SUB DUP4 DUP2 AND SWAP2 AND EQ ISZERO DUP1 PUSH2 0x1720 JUMPI POP PUSH1 0x3 DUP2 ADD SLOAD ISZERO JUMPDEST ISZERO PUSH2 0x1730 JUMPI PUSH1 0x0 SWAP3 POP POP POP PUSH2 0x14DE JUMP JUMPDEST PUSH1 0xB SLOAD PUSH1 0x0 SWAP1 PUSH2 0x174C SWAP1 DUP8 SWAP1 DUP8 SWAP1 PUSH1 0x1 PUSH1 0x1 PUSH1 0xA0 SHL SUB AND PUSH2 0x1123 JUMP JUMPDEST SWAP1 POP PUSH1 0x0 DUP2 GT PUSH2 0x1762 JUMPI PUSH1 0x0 SWAP4 POP POP POP POP PUSH2 0x14DE JUMP JUMPDEST PUSH1 0x1 PUSH1 0x1 PUSH1 0xA0 SHL SUB DUP4 AND PUSH1 0x0 SWAP1 DUP2 MSTORE PUSH1 0xC PUSH1 0x20 MSTORE PUSH1 0x40 SWAP1 KECCAK256 SLOAD PUSH2 0x1784 SWAP1 PUSH2 0xFF1 JUMP JUMPDEST POP PUSH1 0x1 DUP3 ADD SLOAD PUSH2 0x179A SWAP1 DUP3 PUSH4 0xFFFFFFFF PUSH2 0x20B7 AND JUMP JUMPDEST PUSH1 0x1 DUP4 ADD SSTORE PUSH1 0x2 DUP3 ADD SLOAD PUSH2 0x17B4 SWAP1 DUP3 PUSH4 0xFFFFFFFF PUSH2 0x20B7 AND JUMP JUMPDEST PUSH1 0x2 DUP4 ADD SSTORE PUSH1 0x1 PUSH1 0x1 PUSH1 0xA0 SHL SUB DUP1 DUP5 AND PUSH1 0x0 SWAP1 DUP2 MSTORE PUSH1 0xC PUSH1 0x20 SWAP1 DUP2 MSTORE PUSH1 0x40 DUP1 DUP4 KECCAK256 SLOAD DUP4 MSTORE PUSH1 0xE DUP3 MSTORE DUP1 DUP4 KECCAK256 SWAP4 DUP13 AND DUP4 MSTORE SWAP3 SWAP1 MSTORE KECCAK256 DUP1 SLOAD PUSH2 0x17FA SWAP1 DUP4 PUSH4 0xFFFFFFFF PUSH2 0x20B7 AND JUMP JUMPDEST DUP2 SSTORE NUMBER PUSH1 0x1 SWAP2 DUP3 ADD SSTORE SWAP9 SWAP8 POP POP POP POP POP POP POP POP JUMP JUMPDEST PUSH1 0x0 DUP1 PUSH2 0x181B DUP4 PUSH2 0x6E4 JUMP JUMPDEST SWAP1 POP PUSH2 0x1835 DUP2 PUSH1 0x2 EXP PUSH1 0x3 SLOAD PUSH2 0x2071 SWAP1 SWAP2 SWAP1 PUSH4 0xFFFFFFFF AND JUMP JUMPDEST SWAP4 SWAP3 POP POP POP JUMP JUMPDEST PUSH1 0x0 PUSH2 0x88A NUMBER PUSH2 0x6E4 JUMP JUMPDEST PUSH2 0x184F PUSH2 0x20B3 JUMP JUMPDEST PUSH1 0x1 PUSH1 0x1 PUSH1 0xA0 SHL SUB AND PUSH2 0x1860 PUSH2 0xCCE JUMP JUMPDEST PUSH1 0x1 PUSH1 0x1 PUSH1 0xA0 SHL SUB AND EQ PUSH2 0x18A9 JUMPI PUSH1 0x40 DUP1 MLOAD PUSH3 0x461BCD PUSH1 0xE5 SHL DUP2 MSTORE PUSH1 0x20 PUSH1 0x4 DUP3 ADD DUP2 SWAP1 MSTORE PUSH1 0x24 DUP3 ADD MSTORE PUSH1 0x0 DUP1 MLOAD PUSH1 0x20 PUSH2 0x2612 DUP4 CODECOPY DUP2 MLOAD SWAP2 MSTORE PUSH1 0x44 DUP3 ADD MSTORE SWAP1 MLOAD SWAP1 DUP2 SWAP1 SUB PUSH1 0x64 ADD SWAP1 REVERT JUMPDEST PUSH1 0x5 SSTORE JUMP JUMPDEST PUSH1 0xD SLOAD PUSH1 0x0 SWAP1 DUP2 JUMPDEST DUP2 DUP2 LT ISZERO PUSH2 0x198C JUMPI PUSH1 0x0 PUSH1 0xD DUP3 DUP2 SLOAD DUP2 LT PUSH2 0x18CD JUMPI INVALID JUMPDEST PUSH1 0x0 SWAP2 DUP3 MSTORE PUSH1 0x20 DUP1 DUP4 KECCAK256 DUP6 DUP5 MSTORE PUSH1 0xE DUP3 MSTORE PUSH1 0x40 DUP1 DUP6 KECCAK256 CALLER DUP7 MSTORE SWAP1 SWAP3 MSTORE SWAP3 KECCAK256 DUP1 SLOAD PUSH1 0x6 SWAP1 SWAP3 MUL SWAP1 SWAP3 ADD SWAP3 POP ISZERO PUSH2 0x1982 JUMPI PUSH2 0x1905 DUP4 PUSH2 0xFF1 JUMP JUMPDEST POP PUSH1 0x0 PUSH2 0x192B DUP4 PUSH1 0x1 ADD SLOAD PUSH2 0x72F DUP5 PUSH1 0x0 ADD SLOAD DUP7 PUSH1 0x4 ADD SLOAD PUSH2 0x2111 SWAP1 SWAP2 SWAP1 PUSH4 0xFFFFFFFF AND JUMP JUMPDEST DUP3 SLOAD PUSH1 0x1 DUP6 ADD SLOAD SWAP2 SWAP3 POP PUSH2 0x1945 SWAP2 SWAP1 PUSH4 0xFFFFFFFF PUSH2 0x202F AND JUMP JUMPDEST PUSH1 0x1 DUP5 ADD SSTORE PUSH1 0x4 DUP4 ADD SLOAD PUSH2 0x195F SWAP1 DUP3 PUSH4 0xFFFFFFFF PUSH2 0x202F AND JUMP JUMPDEST PUSH1 0x4 DUP5 ADD SSTORE PUSH1 0x0 DUP3 SSTORE NUMBER PUSH1 0x1 DUP4 ADD SSTORE PUSH2 0x197E DUP7 DUP3 PUSH4 0xFFFFFFFF PUSH2 0x20B7 AND JUMP JUMPDEST SWAP6 POP POP JUMPDEST POP POP PUSH1 0x1 ADD PUSH2 0x18B6 JUMP JUMPDEST POP PUSH1 0x0 DUP3 GT PUSH2 0x199C JUMPI POP POP PUSH2 0x1A1F JUMP JUMPDEST PUSH1 0xA SLOAD PUSH1 0x40 DUP1 MLOAD PUSH4 0xA9059CBB PUSH1 0xE0 SHL DUP2 MSTORE CALLER PUSH1 0x4 DUP3 ADD MSTORE PUSH1 0x24 DUP2 ADD DUP6 SWAP1 MSTORE SWAP1 MLOAD PUSH1 0x1 PUSH1 0x1 PUSH1 0xA0 SHL SUB SWAP1 SWAP3 AND SWAP2 PUSH4 0xA9059CBB SWAP2 PUSH1 0x44 DUP1 DUP3 ADD SWAP3 PUSH1 0x20 SWAP3 SWAP1 SWAP2 SWAP1 DUP3 SWAP1 SUB ADD DUP2 PUSH1 0x0 DUP8 DUP1 EXTCODESIZE ISZERO DUP1 ISZERO PUSH2 0x19F0 JUMPI PUSH1 0x0 DUP1 REVERT JUMPDEST POP GAS CALL ISZERO DUP1 ISZERO PUSH2 0x1A04 JUMPI RETURNDATASIZE PUSH1 0x0 DUP1 RETURNDATACOPY RETURNDATASIZE PUSH1 0x0 REVERT JUMPDEST POP POP POP POP PUSH1 0x40 MLOAD RETURNDATASIZE PUSH1 0x20 DUP2 LT ISZERO PUSH2 0x1A1A JUMPI PUSH1 0x0 DUP1 REVERT JUMPDEST POP POP POP POP JUMPDEST JUMP JUMPDEST PUSH2 0x1A29 PUSH2 0x20B3 JUMP JUMPDEST PUSH1 0x1 PUSH1 0x1 PUSH1 0xA0 SHL SUB AND PUSH2 0x1A3A PUSH2 0xCCE JUMP JUMPDEST PUSH1 0x1 PUSH1 0x1 PUSH1 0xA0 SHL SUB AND EQ PUSH2 0x1A83 JUMPI PUSH1 0x40 DUP1 MLOAD PUSH3 0x461BCD PUSH1 0xE5 SHL DUP2 MSTORE PUSH1 0x20 PUSH1 0x4 DUP3 ADD DUP2 SWAP1 MSTORE PUSH1 0x24 DUP3 ADD MSTORE PUSH1 0x0 DUP1 MLOAD PUSH1 0x20 PUSH2 0x2612 DUP4 CODECOPY DUP2 MLOAD SWAP2 MSTORE PUSH1 0x44 DUP3 ADD MSTORE SWAP1 MLOAD SWAP1 DUP2 SWAP1 SUB PUSH1 0x64 ADD SWAP1 REVERT JUMPDEST PUSH1 0x1 PUSH1 0x1 PUSH1 0xA0 SHL SUB DUP2 AND PUSH2 0x1AC8 JUMPI PUSH1 0x40 MLOAD PUSH3 0x461BCD PUSH1 0xE5 SHL DUP2 MSTORE PUSH1 0x4 ADD DUP1 DUP1 PUSH1 0x20 ADD DUP3 DUP2 SUB DUP3 MSTORE PUSH1 0x2A DUP2 MSTORE PUSH1 0x20 ADD DUP1 PUSH2 0x24C8 PUSH1 0x2A SWAP2 CODECOPY PUSH1 0x40 ADD SWAP2 POP POP PUSH1 0x40 MLOAD DUP1 SWAP2 SUB SWAP1 REVERT JUMPDEST PUSH1 0x8 DUP1 SLOAD PUSH1 0x1 PUSH1 0x1 PUSH1 0xA0 SHL SUB NOT AND PUSH1 0x1 PUSH1 0x1 PUSH1 0xA0 SHL SUB SWAP3 SWAP1 SWAP3 AND SWAP2 SWAP1 SWAP2 OR SWAP1 SSTORE JUMP JUMPDEST PUSH1 0x9 SLOAD PUSH1 0x1 PUSH1 0x1 PUSH1 0xA0 SHL SUB AND DUP2 JUMP JUMPDEST PUSH1 0x0 PUSH2 0xD73 PUSH1 0x1 DUP4 PUSH2 0x2196 JUMP JUMPDEST PUSH1 0x0 NUMBER DUP3 GT ISZERO PUSH2 0x1B47 JUMPI PUSH1 0x40 MLOAD PUSH3 0x461BCD PUSH1 0xE5 SHL DUP2 MSTORE PUSH1 0x4 ADD DUP1 DUP1 PUSH1 0x20 ADD DUP3 DUP2 SUB DUP3 MSTORE PUSH1 0x35 DUP2 MSTORE PUSH1 0x20 ADD DUP1 PUSH2 0x2518 PUSH1 0x35 SWAP2 CODECOPY PUSH1 0x40 ADD SWAP2 POP POP PUSH1 0x40 MLOAD DUP1 SWAP2 SUB SWAP1 REVERT JUMPDEST PUSH1 0x0 DUP1 PUSH2 0x1B53 DUP5 PUSH2 0x6E4 JUMP JUMPDEST SWAP1 POP PUSH1 0x0 PUSH2 0x1B60 NUMBER PUSH2 0x6E4 JUMP JUMPDEST SWAP1 POP JUMPDEST DUP1 DUP3 LT ISZERO PUSH2 0x1BC7 JUMPI PUSH1 0x4 SLOAD PUSH1 0x5 SLOAD PUSH1 0x1 SWAP1 SWAP4 ADD SWAP3 PUSH1 0x0 SWAP2 PUSH2 0x1B8F SWAP2 PUSH2 0x845 SWAP1 DUP7 SWAP1 PUSH4 0xFFFFFFFF PUSH2 0x2111 AND JUMP JUMPDEST SWAP1 POP PUSH2 0x1BBD PUSH2 0x1BB0 PUSH2 0x1BA0 DUP4 PUSH2 0x180F JUMP JUMPDEST PUSH2 0xFC6 DUP5 DUP11 PUSH4 0xFFFFFFFF PUSH2 0x202F AND JUMP JUMPDEST DUP6 SWAP1 PUSH4 0xFFFFFFFF PUSH2 0x20B7 AND JUMP JUMPDEST SWAP1 SWAP6 POP SWAP3 POP PUSH2 0x1B63 JUMP JUMPDEST PUSH2 0x1BF3 PUSH2 0x1BE6 PUSH2 0x1BD6 NUMBER PUSH2 0x180F JUMP JUMPDEST PUSH2 0xFC6 NUMBER DUP10 PUSH4 0xFFFFFFFF PUSH2 0x202F AND JUMP JUMPDEST DUP5 SWAP1 PUSH4 0xFFFFFFFF PUSH2 0x20B7 AND JUMP JUMPDEST SWAP6 SWAP5 POP POP POP POP POP JUMP JUMPDEST PUSH2 0x1C04 PUSH2 0x20B3 JUMP JUMPDEST PUSH1 0x1 PUSH1 0x1 PUSH1 0xA0 SHL SUB AND PUSH2 0x1C15 PUSH2 0xCCE JUMP JUMPDEST PUSH1 0x1 PUSH1 0x1 PUSH1 0xA0 SHL SUB AND EQ PUSH2 0x1C5E JUMPI PUSH1 0x40 DUP1 MLOAD PUSH3 0x461BCD PUSH1 0xE5 SHL DUP2 MSTORE PUSH1 0x20 PUSH1 0x4 DUP3 ADD DUP2 SWAP1 MSTORE PUSH1 0x24 DUP3 ADD MSTORE PUSH1 0x0 DUP1 MLOAD PUSH1 0x20 PUSH2 0x2612 DUP4 CODECOPY DUP2 MLOAD SWAP2 MSTORE PUSH1 0x44 DUP3 ADD MSTORE SWAP1 MLOAD SWAP1 DUP2 SWAP1 SUB PUSH1 0x64 ADD SWAP1 REVERT JUMPDEST PUSH1 0x1 PUSH1 0x1 PUSH1 0xA0 SHL SUB DUP2 AND PUSH2 0x1CA3 JUMPI PUSH1 0x40 MLOAD PUSH3 0x461BCD PUSH1 0xE5 SHL DUP2 MSTORE PUSH1 0x4 ADD DUP1 DUP1 PUSH1 0x20 ADD DUP3 DUP2 SUB DUP3 MSTORE PUSH1 0x26 DUP2 MSTORE PUSH1 0x20 ADD DUP1 PUSH2 0x24F2 PUSH1 0x26 SWAP2 CODECOPY PUSH1 0x40 ADD SWAP2 POP POP PUSH1 0x40 MLOAD DUP1 SWAP2 SUB SWAP1 REVERT JUMPDEST PUSH1 0x0 DUP1 SLOAD PUSH1 0x40 MLOAD PUSH1 0x1 PUSH1 0x1 PUSH1 0xA0 SHL SUB DUP1 DUP6 AND SWAP4 SWAP3 AND SWAP2 PUSH32 0x8BE0079C531659141344CD1FD0A4F28419497F9722A3DAAFE3B4186F6B6457E0 SWAP2 LOG3 PUSH1 0x0 DUP1 SLOAD PUSH1 0x1 PUSH1 0x1 PUSH1 0xA0 SHL SUB NOT AND PUSH1 0x1 PUSH1 0x1 PUSH1 0xA0 SHL SUB SWAP3 SWAP1 SWAP3 AND SWAP2 SWAP1 SWAP2 OR SWAP1 SSTORE JUMP JUMPDEST PUSH1 0x0 PUSH2 0x1D08 PUSH2 0x20B3 JUMP JUMPDEST PUSH1 0x1 PUSH1 0x1 PUSH1 0xA0 SHL SUB AND PUSH2 0x1D19 PUSH2 0xCCE JUMP JUMPDEST PUSH1 0x1 PUSH1 0x1 PUSH1 0xA0 SHL SUB AND EQ PUSH2 0x1D62 JUMPI PUSH1 0x40 DUP1 MLOAD PUSH3 0x461BCD PUSH1 0xE5 SHL DUP2 MSTORE PUSH1 0x20 PUSH1 0x4 DUP3 ADD DUP2 SWAP1 MSTORE PUSH1 0x24 DUP3 ADD MSTORE PUSH1 0x0 DUP1 MLOAD PUSH1 0x20 PUSH2 0x2612 DUP4 CODECOPY DUP2 MLOAD SWAP2 MSTORE PUSH1 0x44 DUP3 ADD MSTORE SWAP1 MLOAD SWAP1 DUP2 SWAP1 SUB PUSH1 0x64 ADD SWAP1 REVERT JUMPDEST PUSH1 0x1 PUSH1 0x1 PUSH1 0xA0 SHL SUB DUP3 AND PUSH2 0x1DA7 JUMPI PUSH1 0x40 MLOAD PUSH3 0x461BCD PUSH1 0xE5 SHL DUP2 MSTORE PUSH1 0x4 ADD DUP1 DUP1 PUSH1 0x20 ADD DUP3 DUP2 SUB DUP3 MSTORE PUSH1 0x25 DUP2 MSTORE PUSH1 0x20 ADD DUP1 PUSH2 0x254D PUSH1 0x25 SWAP2 CODECOPY PUSH1 0x40 ADD SWAP2 POP POP PUSH1 0x40 MLOAD DUP1 SWAP2 SUB SWAP1 REVERT JUMPDEST PUSH2 0xD73 PUSH1 0x1 DUP4 PUSH2 0x21AB JUMP JUMPDEST PUSH1 0x8 SLOAD PUSH1 0x1 PUSH1 0x1 PUSH1 0xA0 SHL SUB AND DUP2 JUMP JUMPDEST PUSH2 0x1DC9 PUSH2 0x20B3 JUMP JUMPDEST PUSH1 0x1 PUSH1 0x1 PUSH1 0xA0 SHL SUB AND PUSH2 0x1DDA PUSH2 0xCCE JUMP JUMPDEST PUSH1 0x1 PUSH1 0x1 PUSH1 0xA0 SHL SUB AND EQ PUSH2 0x1E23 JUMPI PUSH1 0x40 DUP1 MLOAD PUSH3 0x461BCD PUSH1 0xE5 SHL DUP2 MSTORE PUSH1 0x20 PUSH1 0x4 DUP3 ADD DUP2 SWAP1 MSTORE PUSH1 0x24 DUP3 ADD MSTORE PUSH1 0x0 DUP1 MLOAD PUSH1 0x20 PUSH2 0x2612 DUP4 CODECOPY DUP2 MLOAD SWAP2 MSTORE PUSH1 0x44 DUP3 ADD MSTORE SWAP1 MLOAD SWAP1 DUP2 SWAP1 SUB PUSH1 0x64 ADD SWAP1 REVERT JUMPDEST PUSH1 0x1 PUSH1 0x1 PUSH1 0xA0 SHL SUB DUP3 AND PUSH2 0x1E7E JUMPI PUSH1 0x40 DUP1 MLOAD PUSH3 0x461BCD PUSH1 0xE5 SHL DUP2 MSTORE PUSH1 0x20 PUSH1 0x4 DUP3 ADD MSTORE PUSH1 0x19 PUSH1 0x24 DUP3 ADD MSTORE PUSH32 0x5F7061697220697320746865207A65726F206164647265737300000000000000 PUSH1 0x44 DUP3 ADD MSTORE SWAP1 MLOAD SWAP1 DUP2 SWAP1 SUB PUSH1 0x64 ADD SWAP1 REVERT JUMPDEST DUP1 ISZERO PUSH2 0x1E8C JUMPI PUSH2 0x1E8C PUSH2 0xE2D JUMP JUMPDEST PUSH1 0x0 PUSH1 0x4 SLOAD NUMBER GT PUSH2 0x1E9F JUMPI PUSH1 0x4 SLOAD PUSH2 0x1EA1 JUMP JUMPDEST NUMBER JUMPDEST PUSH1 0x6 SLOAD SWAP1 SWAP2 POP PUSH2 0x1EB7 SWAP1 DUP6 PUSH4 0xFFFFFFFF PUSH2 0x20B7 AND JUMP JUMPDEST PUSH1 0x6 SWAP1 DUP2 SSTORE PUSH1 0x40 DUP1 MLOAD PUSH1 0xC0 DUP2 ADD DUP3 MSTORE PUSH1 0x1 PUSH1 0x1 PUSH1 0xA0 SHL SUB DUP7 DUP2 AND DUP3 MSTORE PUSH1 0x0 PUSH1 0x20 DUP4 ADD DUP2 DUP2 MSTORE SWAP4 DUP4 ADD DUP2 DUP2 MSTORE PUSH1 0x60 DUP5 ADD DUP11 DUP2 MSTORE PUSH1 0x80 DUP6 ADD DUP4 DUP2 MSTORE PUSH1 0xA0 DUP7 ADD DUP10 DUP2 MSTORE PUSH1 0xD DUP1 SLOAD PUSH1 0x1 DUP1 DUP3 ADD DUP4 SSTORE SWAP2 SWAP1 SWAP7 MSTORE SWAP7 MLOAD PUSH32 0xD7B6990105719101DABEB77144F2A3385C8033ACD3AF97E9423A695E81AD1EB5 SWAP6 SWAP1 SWAP10 MUL SWAP5 DUP6 ADD DUP1 SLOAD PUSH1 0x1 PUSH1 0x1 PUSH1 0xA0 SHL SUB NOT AND SWAP10 SWAP1 SWAP7 AND SWAP9 SWAP1 SWAP9 OR SWAP1 SWAP5 SSTORE SWAP5 MLOAD PUSH32 0xD7B6990105719101DABEB77144F2A3385C8033ACD3AF97E9423A695E81AD1EB6 DUP4 ADD SSTORE MLOAD PUSH32 0xD7B6990105719101DABEB77144F2A3385C8033ACD3AF97E9423A695E81AD1EB7 DUP3 ADD SSTORE SWAP3 MLOAD PUSH32 0xD7B6990105719101DABEB77144F2A3385C8033ACD3AF97E9423A695E81AD1EB8 DUP5 ADD SSTORE MLOAD PUSH32 0xD7B6990105719101DABEB77144F2A3385C8033ACD3AF97E9423A695E81AD1EB9 DUP4 ADD SSTORE SWAP2 MLOAD PUSH32 0xD7B6990105719101DABEB77144F2A3385C8033ACD3AF97E9423A695E81AD1EBA SWAP1 SWAP2 ADD SSTORE PUSH2 0x200C PUSH2 0x6DE JUMP JUMPDEST PUSH1 0x1 PUSH1 0x1 PUSH1 0xA0 SHL SUB SWAP1 SWAP5 AND PUSH1 0x0 SWAP1 DUP2 MSTORE PUSH1 0xC PUSH1 0x20 MSTORE PUSH1 0x40 SWAP1 KECCAK256 SWAP4 SUB SWAP1 SWAP3 SSTORE POP POP POP JUMP JUMPDEST PUSH1 0x0 PUSH2 0x1835 DUP4 DUP4 PUSH1 0x40 MLOAD DUP1 PUSH1 0x40 ADD PUSH1 0x40 MSTORE DUP1 PUSH1 0x1E DUP2 MSTORE PUSH1 0x20 ADD PUSH32 0x536166654D6174683A207375627472616374696F6E206F766572666C6F770000 DUP2 MSTORE POP PUSH2 0x21C0 JUMP JUMPDEST PUSH1 0x0 PUSH2 0x1835 DUP4 DUP4 PUSH1 0x40 MLOAD DUP1 PUSH1 0x40 ADD PUSH1 0x40 MSTORE DUP1 PUSH1 0x1A DUP2 MSTORE PUSH1 0x20 ADD PUSH32 0x536166654D6174683A206469766973696F6E206279207A65726F000000000000 DUP2 MSTORE POP PUSH2 0x2257 JUMP JUMPDEST CALLER SWAP1 JUMP JUMPDEST PUSH1 0x0 DUP3 DUP3 ADD DUP4 DUP2 LT ISZERO PUSH2 0x1835 JUMPI PUSH1 0x40 DUP1 MLOAD PUSH3 0x461BCD PUSH1 0xE5 SHL DUP2 MSTORE PUSH1 0x20 PUSH1 0x4 DUP3 ADD MSTORE PUSH1 0x1B PUSH1 0x24 DUP3 ADD MSTORE PUSH32 0x536166654D6174683A206164646974696F6E206F766572666C6F770000000000 PUSH1 0x44 DUP3 ADD MSTORE SWAP1 MLOAD SWAP1 DUP2 SWAP1 SUB PUSH1 0x64 ADD SWAP1 REVERT JUMPDEST PUSH1 0x0 DUP3 PUSH2 0x2120 JUMPI POP PUSH1 0x0 PUSH2 0xD73 JUMP JUMPDEST DUP3 DUP3 MUL DUP3 DUP5 DUP3 DUP2 PUSH2 0x212D JUMPI INVALID JUMPDEST DIV EQ PUSH2 0x1835 JUMPI PUSH1 0x40 MLOAD PUSH3 0x461BCD PUSH1 0xE5 SHL DUP2 MSTORE PUSH1 0x4 ADD DUP1 DUP1 PUSH1 0x20 ADD DUP3 DUP2 SUB DUP3 MSTORE PUSH1 0x21 DUP2 MSTORE PUSH1 0x20 ADD DUP1 PUSH2 0x25F1 PUSH1 0x21 SWAP2 CODECOPY PUSH1 0x40 ADD SWAP2 POP POP PUSH1 0x40 MLOAD DUP1 SWAP2 SUB SWAP1 REVERT JUMPDEST PUSH1 0x0 PUSH2 0x1835 DUP4 DUP4 PUSH2 0x22BC JUMP JUMPDEST PUSH1 0x0 PUSH2 0x1835 DUP4 PUSH1 0x1 PUSH1 0x1 PUSH1 0xA0 SHL SUB DUP5 AND PUSH2 0x2320 JUMP JUMPDEST PUSH1 0x0 PUSH2 0xD73 DUP3 PUSH2 0x23E6 JUMP JUMPDEST PUSH1 0x0 PUSH2 0x1835 DUP4 PUSH1 0x1 PUSH1 0x1 PUSH1 0xA0 SHL SUB DUP5 AND PUSH2 0x23EA JUMP JUMPDEST PUSH1 0x0 PUSH2 0x1835 DUP4 PUSH1 0x1 PUSH1 0x1 PUSH1 0xA0 SHL SUB DUP5 AND PUSH2 0x2402 JUMP JUMPDEST PUSH1 0x0 DUP2 DUP5 DUP5 GT ISZERO PUSH2 0x224F JUMPI PUSH1 0x40 MLOAD PUSH3 0x461BCD PUSH1 0xE5 SHL DUP2 MSTORE PUSH1 0x4 ADD DUP1 DUP1 PUSH1 0x20 ADD DUP3 DUP2 SUB DUP3 MSTORE DUP4 DUP2 DUP2 MLOAD DUP2 MSTORE PUSH1 0x20 ADD SWAP2 POP DUP1 MLOAD SWAP1 PUSH1 0x20 ADD SWAP1 DUP1 DUP4 DUP4 PUSH1 0x0 JUMPDEST DUP4 DUP2 LT ISZERO PUSH2 0x2214 JUMPI DUP2 DUP2 ADD MLOAD DUP4 DUP3 ADD MSTORE PUSH1 0x20 ADD PUSH2 0x21FC JUMP JUMPDEST POP POP POP POP SWAP1 POP SWAP1 DUP2 ADD SWAP1 PUSH1 0x1F AND DUP1 ISZERO PUSH2 0x2241 JUMPI DUP1 DUP3 SUB DUP1 MLOAD PUSH1 0x1 DUP4 PUSH1 0x20 SUB PUSH2 0x100 EXP SUB NOT AND DUP2 MSTORE PUSH1 0x20 ADD SWAP2 POP JUMPDEST POP SWAP3 POP POP POP PUSH1 0x40 MLOAD DUP1 SWAP2 SUB SWAP1 REVERT JUMPDEST POP POP POP SWAP1 SUB SWAP1 JUMP JUMPDEST PUSH1 0x0 DUP2 DUP4 PUSH2 0x22A6 JUMPI PUSH1 0x40 MLOAD PUSH3 0x461BCD PUSH1 0xE5 SHL DUP2 MSTORE PUSH1 0x20 PUSH1 0x4 DUP3 ADD DUP2 DUP2 MSTORE DUP4 MLOAD PUSH1 0x24 DUP5 ADD MSTORE DUP4 MLOAD SWAP1 SWAP3 DUP4 SWAP3 PUSH1 0x44 SWAP1 SWAP2 ADD SWAP2 SWAP1 DUP6 ADD SWAP1 DUP1 DUP4 DUP4 PUSH1 0x0 DUP4 ISZERO PUSH2 0x2214 JUMPI DUP2 DUP2 ADD MLOAD DUP4 DUP3 ADD MSTORE PUSH1 0x20 ADD PUSH2 0x21FC JUMP JUMPDEST POP PUSH1 0x0 DUP4 DUP6 DUP2 PUSH2 0x22B2 JUMPI INVALID JUMPDEST DIV SWAP6 SWAP5 POP POP POP POP POP JUMP JUMPDEST DUP2 SLOAD PUSH1 0x0 SWAP1 DUP3 LT PUSH2 0x22FE JUMPI PUSH1 0x40 MLOAD PUSH3 0x461BCD PUSH1 0xE5 SHL DUP2 MSTORE PUSH1 0x4 ADD DUP1 DUP1 PUSH1 0x20 ADD DUP3 DUP2 SUB DUP3 MSTORE PUSH1 0x22 DUP2 MSTORE PUSH1 0x20 ADD DUP1 PUSH2 0x24A6 PUSH1 0x22 SWAP2 CODECOPY PUSH1 0x40 ADD SWAP2 POP POP PUSH1 0x40 MLOAD DUP1 SWAP2 SUB SWAP1 REVERT JUMPDEST DUP3 PUSH1 0x0 ADD DUP3 DUP2 SLOAD DUP2 LT PUSH2 0x230D JUMPI INVALID JUMPDEST SWAP1 PUSH1 0x0 MSTORE PUSH1 0x20 PUSH1 0x0 KECCAK256 ADD SLOAD SWAP1 POP SWAP3 SWAP2 POP POP JUMP JUMPDEST PUSH1 0x0 DUP2 DUP2 MSTORE PUSH1 0x1 DUP4 ADD PUSH1 0x20 MSTORE PUSH1 0x40 DUP2 KECCAK256 SLOAD DUP1 ISZERO PUSH2 0x23DC JUMPI DUP4 SLOAD PUSH1 0x0 NOT DUP1 DUP4 ADD SWAP2 SWAP1 DUP2 ADD SWAP1 PUSH1 0x0 SWAP1 DUP8 SWAP1 DUP4 SWAP1 DUP2 LT PUSH2 0x2353 JUMPI INVALID JUMPDEST SWAP1 PUSH1 0x0 MSTORE PUSH1 0x20 PUSH1 0x0 KECCAK256 ADD SLOAD SWAP1 POP DUP1 DUP8 PUSH1 0x0 ADD DUP5 DUP2 SLOAD DUP2 LT PUSH2 0x2370 JUMPI INVALID JUMPDEST PUSH1 0x0 SWAP2 DUP3 MSTORE PUSH1 0x20 DUP1 DUP4 KECCAK256 SWAP1 SWAP2 ADD SWAP3 SWAP1 SWAP3 SSTORE DUP3 DUP2 MSTORE PUSH1 0x1 DUP10 DUP2 ADD SWAP1 SWAP3 MSTORE PUSH1 0x40 SWAP1 KECCAK256 SWAP1 DUP5 ADD SWAP1 SSTORE DUP7 SLOAD DUP8 SWAP1 DUP1 PUSH2 0x23A0 JUMPI INVALID JUMPDEST PUSH1 0x1 SWAP1 SUB DUP2 DUP2 SWAP1 PUSH1 0x0 MSTORE PUSH1 0x20 PUSH1 0x0 KECCAK256 ADD PUSH1 0x0 SWAP1 SSTORE SWAP1 SSTORE DUP7 PUSH1 0x1 ADD PUSH1 0x0 DUP8 DUP2 MSTORE PUSH1 0x20 ADD SWAP1 DUP2 MSTORE PUSH1 0x20 ADD PUSH1 0x0 KECCAK256 PUSH1 0x0 SWAP1 SSTORE PUSH1 0x1 SWAP5 POP POP POP POP POP PUSH2 0xD73 JUMP JUMPDEST PUSH1 0x0 SWAP2 POP POP PUSH2 0xD73 JUMP JUMPDEST SLOAD SWAP1 JUMP JUMPDEST PUSH1 0x0 SWAP1 DUP2 MSTORE PUSH1 0x1 SWAP2 SWAP1 SWAP2 ADD PUSH1 0x20 MSTORE PUSH1 0x40 SWAP1 KECCAK256 SLOAD ISZERO ISZERO SWAP1 JUMP JUMPDEST PUSH1 0x0 PUSH2 0x240E DUP4 DUP4 PUSH2 0x23EA JUMP JUMPDEST PUSH2 0x2444 JUMPI POP DUP2 SLOAD PUSH1 0x1 DUP2 DUP2 ADD DUP5 SSTORE PUSH1 0x0 DUP5 DUP2 MSTORE PUSH1 0x20 DUP1 DUP3 KECCAK256 SWAP1 SWAP4 ADD DUP5 SWAP1 SSTORE DUP5 SLOAD DUP5 DUP3 MSTORE DUP3 DUP7 ADD SWAP1 SWAP4 MSTORE PUSH1 0x40 SWAP1 KECCAK256 SWAP2 SWAP1 SWAP2 SSTORE PUSH2 0xD73 JUMP JUMPDEST POP PUSH1 0x0 PUSH2 0xD73 JUMP JUMPDEST PUSH1 0x40 MLOAD DUP1 PUSH1 0xC0 ADD PUSH1 0x40 MSTORE DUP1 PUSH1 0x0 PUSH1 0x1 PUSH1 0x1 PUSH1 0xA0 SHL SUB AND DUP2 MSTORE PUSH1 0x20 ADD PUSH1 0x0 DUP2 MSTORE PUSH1 0x20 ADD PUSH1 0x0 DUP2 MSTORE PUSH1 0x20 ADD PUSH1 0x0 DUP2 MSTORE PUSH1 0x20 ADD PUSH1 0x0 DUP2 MSTORE PUSH1 0x20 ADD PUSH1 0x0 DUP2 MSTORE POP SWAP1 JUMP JUMPDEST PUSH1 0x40 MLOAD DUP1 PUSH1 0x40 ADD PUSH1 0x40 MSTORE DUP1 PUSH1 0x0 DUP2 MSTORE PUSH1 0x20 ADD PUSH1 0x0 DUP2 MSTORE POP SWAP1 JUMP INVALID GASLIMIT PUSH15 0x756D657261626C655365743A20696E PUSH5 0x6578206F75 PUSH21 0x206F6620626F756E6473537761704D696E696E673A KECCAK256 PUSH15 0x657720726F75746572206973207468 PUSH6 0x207A65726F20 PUSH2 0x6464 PUSH19 0x6573734F776E61626C653A206E6577206F776E PUSH6 0x722069732074 PUSH9 0x65207A65726F206164 PUSH5 0x7265737353 PUSH24 0x61704D696E696E673A206D757374206C6974746C65207468 PUSH2 0x6E20 PUSH21 0x68652063757272656E7420626C6F636B206E756D62 PUSH6 0x72537761704D PUSH10 0x6E696E673A20746F6B65 PUSH15 0x20697320746865207A65726F206164 PUSH5 0x7265737353 PUSH24 0x61704D696E696E673A2074616B65722073776170206F7574 PUSH17 0x757420697320746865207A65726F206164 PUSH5 0x7265737353 PUSH24 0x61704D696E696E673A206E6577206F7261636C6520697320 PUSH21 0x6865207A65726F2061646472657373537761704D69 PUSH15 0x696E673A2063616C6C657220697320 PUSH15 0x6F742074686520726F757465725361 PUSH7 0x654D6174683A20 PUSH14 0x756C7469706C69636174696F6E20 PUSH16 0x766572666C6F774F776E61626C653A20 PUSH4 0x616C6C65 PUSH19 0x206973206E6F7420746865206F776E65725377 PUSH2 0x704D PUSH10 0x6E696E673A2074616B65 PUSH19 0x2073776170206163636F756E74206973207468 PUSH6 0x207A65726F20 PUSH2 0x6464 PUSH19 0x657373537761704D696E696E673A2074616B65 PUSH19 0x207377617020696E7075742069732074686520 PUSH27 0x65726F2061646472657373A2646970667358221220139DB9FE9174 0xDF 0xB2 RETURNDATACOPY CHAINID 0xA6 0xFC 0xED 0xB8 CREATE 0xDE DUP2 0x2F SWAP2 MLOAD SLOAD 0xAD 0xE7 OR SELFDESTRUCT 0xCD 0xAC RETURNDATACOPY GASLIMIT CODESIZE RETURN 0xB3 PUSH5 0x736F6C6343 STOP MOD MOD STOP CALLER "
		},
		"gasEstimates": {
			"creation": {
				"codeDepositCost": "1985800",
				"executionCost": "infinite",
				"totalCost": "infinite"
			},
			"external": {
				"addPair(uint256,address,bool)": "infinite",
				"addWhitelist(address)": "infinite",
				"delWhitelist(address)": "infinite",
				"factory()": "1148",
				"getMdxReward(uint256)": "infinite",
				"getPoolInfo(uint256)": "infinite",
				"getQuantity(address,uint256,address)": "infinite",
				"getUserReward(uint256)": "infinite",
				"getWhitelist(uint256)": "infinite",
				"getWhitelistLength()": "1118",
				"halvingPeriod()": "1088",
				"isWhitelist(address)": "1387",
				"massMintPools()": "infinite",
				"mdx()": "1105",
				"mdxPerBlock()": "1109",
				"mint(uint256)": "infinite",
				"oracle()": "1104",
				"owner()": "1126",
				"pairOfPid(address)": "1171",
				"phase()": "infinite",
				"phase(uint256)": "infinite",
				"poolInfo(uint256)": "6268",
				"poolLength()": "1067",
				"renounceOwnership()": "infinite",
				"reward()": "infinite",
				"reward(uint256)": "infinite",
				"router()": "1147",
				"setHalvingPeriod(uint256)": "infinite",
				"setMdxPerBlock(uint256)": "infinite",
				"setOracle(address)": "infinite",
				"setPair(uint256,uint256,bool)": "infinite",
				"setRouter(address)": "infinite",
				"startBlock()": "1044",
				"swap(address,address,address,uint256)": "infinite",
				"takerWithdraw()": "infinite",
				"targetToken()": "1171",
				"totalAllocPoint()": "1044",
				"transferOwnership(address)": "infinite",
				"userInfo(uint256,address)": "2183"
			}
		},
		"methodIdentifiers": {
			"addPair(uint256,address,bool)": "f9d181f9",
			"addWhitelist(address)": "f80f5dd5",
			"delWhitelist(address)": "97ecfaab",
			"factory()": "c45a0155",
			"getMdxReward(uint256)": "e377fe35",
			"getPoolInfo(uint256)": "2f380b35",
			"getQuantity(address,uint256,address)": "a7ef67f6",
			"getUserReward(uint256)": "9fb08cb7",
			"getWhitelist(uint256)": "96db752a",
			"getWhitelistLength()": "a13202e9",
			"halvingPeriod()": "5a3e251f",
			"isWhitelist(address)": "c683630d",
			"massMintPools()": "9f4ece2e",
			"mdx()": "5672ab55",
			"mdxPerBlock()": "8fa39a88",
			"mint(uint256)": "a0712d68",
			"oracle()": "7dc0d1d0",
			"owner()": "8da5cb5b",
			"pairOfPid(address)": "0495de50",
			"phase()": "b1c9fe6e",
			"phase(uint256)": "135f8aa7",
			"poolInfo(uint256)": "1526fe27",
			"poolLength()": "081e3eda",
			"renounceOwnership()": "715018a6",
			"reward()": "228cb733",
			"reward(uint256)": "a9fb763c",
			"router()": "f887ea40",
			"setHalvingPeriod(uint256)": "b5ec5c99",
			"setMdxPerBlock(uint256)": "791ba374",
			"setOracle(address)": "7adbf973",
			"setPair(uint256,uint256,bool)": "190cf6c9",
			"setRouter(address)": "c0d78655",
			"startBlock()": "48cd4cb1",
			"swap(address,address,address,uint256)": "a9678a18",
			"takerWithdraw()": "b872dd0e",
			"targetToken()": "327107f7",
			"totalAllocPoint()": "17caf6f1",
			"transferOwnership(address)": "f2fde38b",
			"userInfo(uint256,address)": "93f1a40b"
		}
	},
	"abi": [
		{
			"inputs": [
				{
					"internalType": "contract IMdx",
					"name": "_mdx",
					"type": "address"
				},
				{
					"internalType": "contract IMdexFactory",
					"name": "_factory",
					"type": "address"
				},
				{
					"internalType": "contract IOracle",
					"name": "_oracle",
					"type": "address"
				},
				{
					"internalType": "address",
					"name": "_router",
					"type": "address"
				},
				{
					"internalType": "address",
					"name": "_targetToken",
					"type": "address"
				},
				{
					"internalType": "uint256",
					"name": "_mdxPerBlock",
					"type": "uint256"
				},
				{
					"internalType": "uint256",
					"name": "_startBlock",
					"type": "uint256"
				}
			],
			"stateMutability": "nonpayable",
			"type": "constructor"
		},
		{
			"anonymous": false,
			"inputs": [
				{
					"indexed": true,
					"internalType": "address",
					"name": "previousOwner",
					"type": "address"
				},
				{
					"indexed": true,
					"internalType": "address",
					"name": "newOwner",
					"type": "address"
				}
			],
			"name": "OwnershipTransferred",
			"type": "event"
		},
		{
			"inputs": [
				{
					"internalType": "uint256",
					"name": "_allocPoint",
					"type": "uint256"
				},
				{
					"internalType": "address",
					"name": "_pair",
					"type": "address"
				},
				{
					"internalType": "bool",
					"name": "_withUpdate",
					"type": "bool"
				}
			],
			"name": "addPair",
			"outputs": [],
			"stateMutability": "nonpayable",
			"type": "function"
		},
		{
			"inputs": [
				{
					"internalType": "address",
					"name": "_addToken",
					"type": "address"
				}
			],
			"name": "addWhitelist",
			"outputs": [
				{
					"internalType": "bool",
					"name": "",
					"type": "bool"
				}
			],
			"stateMutability": "nonpayable",
			"type": "function"
		},
		{
			"inputs": [
				{
					"internalType": "address",
					"name": "_delToken",
					"type": "address"
				}
			],
			"name": "delWhitelist",
			"outputs": [
				{
					"internalType": "bool",
					"name": "",
					"type": "bool"
				}
			],
			"stateMutability": "nonpayable",
			"type": "function"
		},
		{
			"inputs": [],
			"name": "factory",
			"outputs": [
				{
					"internalType": "contract IMdexFactory",
					"name": "",
					"type": "address"
				}
			],
			"stateMutability": "view",
			"type": "function"
		},
		{
			"inputs": [
				{
					"internalType": "uint256",
					"name": "_lastRewardBlock",
					"type": "uint256"
				}
			],
			"name": "getMdxReward",
			"outputs": [
				{
					"internalType": "uint256",
					"name": "",
					"type": "uint256"
				}
			],
			"stateMutability": "view",
			"type": "function"
		},
		{
			"inputs": [
				{
					"internalType": "uint256",
					"name": "_pid",
					"type": "uint256"
				}
			],
			"name": "getPoolInfo",
			"outputs": [
				{
					"internalType": "address",
					"name": "",
					"type": "address"
				},
				{
					"internalType": "address",
					"name": "",
					"type": "address"
				},
				{
					"internalType": "uint256",
					"name": "",
					"type": "uint256"
				},
				{
					"internalType": "uint256",
					"name": "",
					"type": "uint256"
				},
				{
					"internalType": "uint256",
					"name": "",
					"type": "uint256"
				},
				{
					"internalType": "uint256",
					"name": "",
					"type": "uint256"
				}
			],
			"stateMutability": "view",
			"type": "function"
		},
		{
			"inputs": [
				{
					"internalType": "address",
					"name": "outputToken",
					"type": "address"
				},
				{
					"internalType": "uint256",
					"name": "outputAmount",
					"type": "uint256"
				},
				{
					"internalType": "address",
					"name": "anchorToken",
					"type": "address"
				}
			],
			"name": "getQuantity",
			"outputs": [
				{
					"internalType": "uint256",
					"name": "",
					"type": "uint256"
				}
			],
			"stateMutability": "view",
			"type": "function"
		},
		{
			"inputs": [
				{
					"internalType": "uint256",
					"name": "_pid",
					"type": "uint256"
				}
			],
			"name": "getUserReward",
			"outputs": [
				{
					"internalType": "uint256",
					"name": "",
					"type": "uint256"
				},
				{
					"internalType": "uint256",
					"name": "",
					"type": "uint256"
				}
			],
			"stateMutability": "view",
			"type": "function"
		},
		{
			"inputs": [
				{
					"internalType": "uint256",
					"name": "_index",
					"type": "uint256"
				}
			],
			"name": "getWhitelist",
			"outputs": [
				{
					"internalType": "address",
					"name": "",
					"type": "address"
				}
			],
			"stateMutability": "view",
			"type": "function"
		},
		{
			"inputs": [],
			"name": "getWhitelistLength",
			"outputs": [
				{
					"internalType": "uint256",
					"name": "",
					"type": "uint256"
				}
			],
			"stateMutability": "view",
			"type": "function"
		},
		{
			"inputs": [],
			"name": "halvingPeriod",
			"outputs": [
				{
					"internalType": "uint256",
					"name": "",
					"type": "uint256"
				}
			],
			"stateMutability": "view",
			"type": "function"
		},
		{
			"inputs": [
				{
					"internalType": "address",
					"name": "_token",
					"type": "address"
				}
			],
			"name": "isWhitelist",
			"outputs": [
				{
					"internalType": "bool",
					"name": "",
					"type": "bool"
				}
			],
			"stateMutability": "view",
			"type": "function"
		},
		{
			"inputs": [],
			"name": "massMintPools",
			"outputs": [],
			"stateMutability": "nonpayable",
			"type": "function"
		},
		{
			"inputs": [],
			"name": "mdx",
			"outputs": [
				{
					"internalType": "contract IMdx",
					"name": "",
					"type": "address"
				}
			],
			"stateMutability": "view",
			"type": "function"
		},
		{
			"inputs": [],
			"name": "mdxPerBlock",
			"outputs": [
				{
					"internalType": "uint256",
					"name": "",
					"type": "uint256"
				}
			],
			"stateMutability": "view",
			"type": "function"
		},
		{
			"inputs": [
				{
					"internalType": "uint256",
					"name": "_pid",
					"type": "uint256"
				}
			],
			"name": "mint",
			"outputs": [
				{
					"internalType": "bool",
					"name": "",
					"type": "bool"
				}
			],
			"stateMutability": "nonpayable",
			"type": "function"
		},
		{
			"inputs": [],
			"name": "oracle",
			"outputs": [
				{
					"internalType": "contract IOracle",
					"name": "",
					"type": "address"
				}
			],
			"stateMutability": "view",
			"type": "function"
		},
		{
			"inputs": [],
			"name": "owner",
			"outputs": [
				{
					"internalType": "address",
					"name": "",
					"type": "address"
				}
			],
			"stateMutability": "view",
			"type": "function"
		},
		{
			"inputs": [
				{
					"internalType": "address",
					"name": "",
					"type": "address"
				}
			],
			"name": "pairOfPid",
			"outputs": [
				{
					"internalType": "uint256",
					"name": "",
					"type": "uint256"
				}
			],
			"stateMutability": "view",
			"type": "function"
		},
		{
			"inputs": [
				{
					"internalType": "uint256",
					"name": "blockNumber",
					"type": "uint256"
				}
			],
			"name": "phase",
			"outputs": [
				{
					"internalType": "uint256",
					"name": "",
					"type": "uint256"
				}
			],
			"stateMutability": "view",
			"type": "function"
		},
		{
			"inputs": [],
			"name": "phase",
			"outputs": [
				{
					"internalType": "uint256",
					"name": "",
					"type": "uint256"
				}
			],
			"stateMutability": "view",
			"type": "function"
		},
		{
			"inputs": [
				{
					"internalType": "uint256",
					"name": "",
					"type": "uint256"
				}
			],
			"name": "poolInfo",
			"outputs": [
				{
					"internalType": "address",
					"name": "pair",
					"type": "address"
				},
				{
					"internalType": "uint256",
					"name": "quantity",
					"type": "uint256"
				},
				{
					"internalType": "uint256",
					"name": "totalQuantity",
					"type": "uint256"
				},
				{
					"internalType": "uint256",
					"name": "allocPoint",
					"type": "uint256"
				},
				{
					"internalType": "uint256",
					"name": "allocMdxAmount",
					"type": "uint256"
				},
				{
					"internalType": "uint256",
					"name": "lastRewardBlock",
					"type": "uint256"
				}
			],
			"stateMutability": "view",
			"type": "function"
		},
		{
			"inputs": [],
			"name": "poolLength",
			"outputs": [
				{
					"internalType": "uint256",
					"name": "",
					"type": "uint256"
				}
			],
			"stateMutability": "view",
			"type": "function"
		},
		{
			"inputs": [],
			"name": "renounceOwnership",
			"outputs": [],
			"stateMutability": "nonpayable",
			"type": "function"
		},
		{
			"inputs": [],
			"name": "reward",
			"outputs": [
				{
					"internalType": "uint256",
					"name": "",
					"type": "uint256"
				}
			],
			"stateMutability": "view",
			"type": "function"
		},
		{
			"inputs": [
				{
					"internalType": "uint256",
					"name": "blockNumber",
					"type": "uint256"
				}
			],
			"name": "reward",
			"outputs": [
				{
					"internalType": "uint256",
					"name": "",
					"type": "uint256"
				}
			],
			"stateMutability": "view",
			"type": "function"
		},
		{
			"inputs": [],
			"name": "router",
			"outputs": [
				{
					"internalType": "address",
					"name": "",
					"type": "address"
				}
			],
			"stateMutability": "view",
			"type": "function"
		},
		{
			"inputs": [
				{
					"internalType": "uint256",
					"name": "_block",
					"type": "uint256"
				}
			],
			"name": "setHalvingPeriod",
			"outputs": [],
			"stateMutability": "nonpayable",
			"type": "function"
		},
		{
			"inputs": [
				{
					"internalType": "uint256",
					"name": "_newPerBlock",
					"type": "uint256"
				}
			],
			"name": "setMdxPerBlock",
			"outputs": [],
			"stateMutability": "nonpayable",
			"type": "function"
		},
		{
			"inputs": [
				{
					"internalType": "contract IOracle",
					"name": "_oracle",
					"type": "address"
				}
			],
			"name": "setOracle",
			"outputs": [],
			"stateMutability": "nonpayable",
			"type": "function"
		},
		{
			"inputs": [
				{
					"internalType": "uint256",
					"name": "_pid",
					"type": "uint256"
				},
				{
					"internalType": "uint256",
					"name": "_allocPoint",
					"type": "uint256"
				},
				{
					"internalType": "bool",
					"name": "_withUpdate",
					"type": "bool"
				}
			],
			"name": "setPair",
			"outputs": [],
			"stateMutability": "nonpayable",
			"type": "function"
		},
		{
			"inputs": [
				{
					"internalType": "address",
					"name": "newRouter",
					"type": "address"
				}
			],
			"name": "setRouter",
			"outputs": [],
			"stateMutability": "nonpayable",
			"type": "function"
		},
		{
			"inputs": [],
			"name": "startBlock",
			"outputs": [
				{
					"internalType": "uint256",
					"name": "",
					"type": "uint256"
				}
			],
			"stateMutability": "view",
			"type": "function"
		},
		{
			"inputs": [
				{
					"internalType": "address",
					"name": "account",
					"type": "address"
				},
				{
					"internalType": "address",
					"name": "input",
					"type": "address"
				},
				{
					"internalType": "address",
					"name": "output",
					"type": "address"
				},
				{
					"internalType": "uint256",
					"name": "amount",
					"type": "uint256"
				}
			],
			"name": "swap",
			"outputs": [
				{
					"internalType": "bool",
					"name": "",
					"type": "bool"
				}
			],
			"stateMutability": "nonpayable",
			"type": "function"
		},
		{
			"inputs": [],
			"name": "takerWithdraw",
			"outputs": [],
			"stateMutability": "nonpayable",
			"type": "function"
		},
		{
			"inputs": [],
			"name": "targetToken",
			"outputs": [
				{
					"internalType": "address",
					"name": "",
					"type": "address"
				}
			],
			"stateMutability": "view",
			"type": "function"
		},
		{
			"inputs": [],
			"name": "totalAllocPoint",
			"outputs": [
				{
					"internalType": "uint256",
					"name": "",
					"type": "uint256"
				}
			],
			"stateMutability": "view",
			"type": "function"
		},
		{
			"inputs": [
				{
					"internalType": "address",
					"name": "newOwner",
					"type": "address"
				}
			],
			"name": "transferOwnership",
			"outputs": [],
			"stateMutability": "nonpayable",
			"type": "function"
		},
		{
			"inputs": [
				{
					"internalType": "uint256",
					"name": "",
					"type": "uint256"
				},
				{
					"internalType": "address",
					"name": "",
					"type": "address"
				}
			],
			"name": "userInfo",
			"outputs": [
				{
					"internalType": "uint256",
					"name": "quantity",
					"type": "uint256"
				},
				{
					"internalType": "uint256",
					"name": "blockNumber",
					"type": "uint256"
				}
			],
			"stateMutability": "view",
			"type": "function"
		}
	]
}